:020000040800F2
:10000000000001206D0B0008B50B0008B50B0008BF
:10001000B50B0008B50B0008B50B00080000000088
:10002000000000000000000000000000B50B000808
:10003000B50B000800000000B50B0008B50B000868
:10004000B50B0008B50B0008B50B0008B50B000890
:10005000B50B0008B50B0008B50B0008B50B000880
:10006000B50B0008B50B0008B50B0008B50B000870
:10007000B50B0008B50B0008B50B0008B50B000860
:10008000B50B0008B50B0008B50B0008B50B000850
:10009000B50B0008B50B0008B50B0008B50B000840
:1000A000B50B0008B50B0008B50B0008B50B000830
:1000B000B50B0008B50B0008B50B0008B50B000820
:1000C000B50B0008B50B0008B50B0008B50B000810
:1000D000B50B0008C1040008B50B0008B50B0008FB
:1000E000B50B0008B50B0008B50B0008B50B0008F0
:1000F000B50B0008B50B0008B50B0008B50B0008E0
:10010000B50B0008B50B0008B50B0008B50B0008CF
:10011000B50B0008B50B0008B50B0008B50B0008BF
:10012000B50B0008B50B0008B50B0008B50B0008AF
:1001300000000000000000000000000000000000BF
:1001400000000000000000000000000000000000AF
:10015000000000000000000000000000000000009F
:10016000000000000000000000000000000000008F
:10017000000000000000000000000000000000007F
:10018000000000000000000000000000000000006F
:10019000000000000000000000000000000000005F
:1001A000000000000000000000000000000000004F
:1001B000000000000000000000000000000000003F
:1001C000000000000000000000000000000000002F
:1001D000000000000000000000000000000000001F
:0401E0005FF8E0F1F3
:1001E40010B5054C237833B9044B13B10448AFF36D
:1001F40000800123237010BD0400002000000000D3
:10020400CC0C000808B5034B1BB103490348AFF3FA
:10021400008008BD0000000008000020CC0C00088D
:10022400704700004FF0E0231A6942F004021A619B
:10023400044A10601A6942F001021A616FF07042B8
:100244005A6170472000002010B44FF0E022546936
:100254000B4B1B6800FB03FC9369002104E0E01ACC
:1002640002441144614509D21A464FF0E0239B69C8
:100274009A42FAD0F3D9D21A1144F3E710BC70476A
:100284002000002008B54FF47A7303FB00F0FFF759
:10029400DBFF08BDC3431B0203F4E0630649CA68DD
:1002A40022F4E0621204120C42F0BF6242F4003203
:1002B4001343CB60704700BF00ED00E0194A136898
:1002C40043F480331360174B1B6813F4003FFAD0D8
:1002D400144B4FF480525A6002385A6842EA804202
:1002E4005A605A6842F480325A600F4A10211160F1
:1002F400116841F0020111601A6842F080721A60BC
:10030400084B1B685B0EFBD0064A536843F002039C
:100314005360044B5B68C3F38103022BF9D10120C2
:10032400704700BF001002400020024021F4FF711A
:1003340021F001010143014B9960704700ED00E099
:10034400F8B507460C4616461D461846FFF7A2FFA9
:10035400C5F1040307FA03F10F232B4104EA030553
:1003640070090A4C54F8203006F01F070122BA40E5
:10037400134344F82030344494F80033294301F003
:100384000F0143EA011384F80033F8BD00E100E0F3
:100394002DE9F041069E079D4FF0000C1DE006F08C
:1003A40003074FEA830E0EF0040E4EEA070E4EEAE0
:1003B400C40EBCF1070F33D807684FEA8C044FF022
:1003C4000F0808FA04F827EA0807076007680EFA16
:1003D40004F43C4304600CF1010CBCF10F0F31D860
:1003E4004FF0010E0EFA0CFE3EEA0104F3D1541E46
:1003F400012CD4D972B985B1C46824EA0E04C4604E
:10040400C46805F0010707FA0CF73C43C4604FF0D9
:10041400080ECEE74FF0000ECBE74FF0040EC8E70E
:100424004768ACF10804A4004FF00F0808FA04F878
:1004340027EA0807476047680EFA04FE47EA0E07F2
:100444004760C8E7BDE8F08112F0010F03D00369EB
:10045400194301617047036943EA0143036170472B
:1004640010B5144B00241C61DC605C619C61DC6190
:100474001A6842F001021A6059680F4A0A405A6029
:100484001A6822F0847222F480321A601A6822F404
:1004940080221A605A6822F4FE025A604FF41F0246
:1004A4009A60FFF70BFF21464FF00060FFF73EFF15
:1004B40010BD00BF001002400000FFF8114B1B6884
:1004C40013F0200F1CD00F4B5A68D2B20A2A0FD057
:1004D40010B40D490B88C3F30D000C4C22540133A6
:1004E4009BB20B80C72B01D900220A8010BC704735
:1004F400054A13886FEA43436FEA534313807047F6
:10050400704700BF0038014024000020280000206C
:100514002DE9F04182B006460C46254B9A6942F01B
:1005240004029A619A6942F004029A619A6942F457
:1005340080429A611F4F4FF00108CDF804800325D3
:100544000095002302224FF400713846FFF720FF84
:10055400CDF80480009500231A464FF48061384694
:10056400FFF716FF24FA08F3134800FB0630B0FB2C
:10057400F4F0124CA0600023E360E368E360E368F6
:1005840043F00803E360E36843F00403E360E368D3
:1005940043F02003E3600223252229462846FFF77F
:1005A400CFFEE36843F40053E36002B0BDE8F0819A
:1005B400001002400008014040420F000038014092
:1005C40070B582B0134B9A6942F008029A619A6935
:1005D40042F040029A61104E0124019400940023D9
:1005E400224620213046FFF7D3FE0C4D019400949F
:1005F4000023224620212846FFF7CAFE2246202156
:100604003046FFF721FF224620212846FFF71CFF32
:1006140002B070BD00100240000C014000180140FF
:10062400034AD36803F47F430343D360704700BF96
:10063400001001400246012002E002FB00F01946CE
:100644004B1EDBB20029F8D17047000038B50D46C7
:10065400FFF7E6FF114C2A4608212046FFF7F4FE77
:10066400002240212046FFF7EFFE0D4D00224FF4FB
:1006740080412846FFF7E8FE01224FF480412846D6
:10068400FFF7E2FE012240212046FFF7DDFE0122B2
:1006940008212046FFF7D8FE38BD00BF00140140F2
:1006A4000020014038B500250DE0104B03EBC403D6
:1006B4000121585DFFF7CAFF0134E4B214F0800F42
:1006C400F3D00135EDB2072D0FD8A5F1500000216C
:1006D400C0B2FFF7BBFF00210846FFF7B7FF0021B8
:1006E4001020FFF7B3FF0024E8E738BDF000002036
:1006F40008B500200BE0094A02EBC30200211154A3
:100704000133DBB213F0800FF5D00130C0B20728FB
:1007140001D80023F6E7FFF7C5FF08BDF00000206D
:1007240010F0800F1CD13F291AD84FEAD10C01F0E8
:10073400070101238B40D9B242B10A4B03EBC0033A
:1007440013F80C200A4303F80C207047054A02EB07
:10075400C00212F80C10DB435BB20B4002F80C3001
:10076400704700BFF00000202DE9F04F83B007462A
:1007740088469A469DF8309013F0070118BF01216E
:1007840001EBD301580800FB01F1CBB2203AD2B2FD
:10079400BAF10C0F0CD0BAF1100F14D0BAF1180F33
:1007A40041D102EBC202214800EB8202019205E032
:1007B40002EB42021E4800EB8202019244464FF0D3
:1007C400000B009327E01B4800EB02120192F5E7AF
:1007D400B9FA89F2520921463846FFF7A1FF6D00A4
:1007E400EDB20134E4B2A4EB080353450CD0013656
:1007F400F6B2072E0BD815F0800FE9D04A462146F1
:100804003846FFF78DFFEAE70137FFB244460BF1A4
:1008140001035FFA83FB009B9B4504D2019B13F801
:100824000B500026E5E703B0BDE8F08FE40C0008A8
:1008340030200008401A00082DE9F04782B08246B3
:10084400894690461D469DF8286000273C461DE0D9
:10085400700804FB00F0C0B25044012300933346F7
:1008640020224946C0B2FFF77FFF0DE0700804FB69
:1008740000F0C0B230325044012300933346D2B268
:100884004946C0B2FFF770FF0134E4B2AC421CD257
:10089400291BC9B20139C9B20A20FFF7CBFEB8FB44
:1008A400F0F00B4BA3FB003C4FEADC0C0CEB8C0C84
:1008B400A0EB4C0C5FFA8CF2002FD7D16B1E9C423C
:1008C400D4DA002AC4D00127D0E702B0BDE8F0870B
:1008D400CDCCCCCC2DE9F04182B004460D469046F7
:1008E4001F460EE0C7F140039D421CDC0123009328
:1008F4003B4618F8012B29462046FFF735FF2644CE
:10090400F4B298F800C0ACF1200C5FFA8CFCBCF196
:100914005E0F0DD87E08C6F180039C42E2DD3D44A3
:10092400EDB20024DEE7FFF7E3FE00252C46DDE709
:1009340002B0BDE8F081000070B582B05A4B9A69EC
:1009440042F010029A619A6942F020029A619A690F
:1009540042F480729A610124019400940023224697
:10096400FF215248FFF714FD514E019400940023D7
:10097400224648213046FFF70BFD4E4D019400946A
:10098400002322464FF460412846FFF701FD22462A
:100994004FF480412846FFF757FD22464FF400519B
:1009A4002846FFF751FD224640213046FFF74CFD13
:1009B400224608213046FFF747FD00224FF400414C
:1009C4002846FFF741FD6420FFF75CFC22464FF404
:1009D40000412846FFF738FD0021AE20FFF736FE20
:1009E4000021D520FFF732FE00215020FFF72EFE14
:1009F4000021A820FFF72AFE00213F20FFF726FE52
:100A04000021D320FFF722FE00210846FFF71EFE37
:100A140000214020FFF71AFE00218D20FFF716FE6B
:100A240000211420FFF712FE00212020FFF70EFE04
:100A340000210220FFF70AFE0021A120FFF706FE95
:100A44000021C820FFF702FE0021DA20FFF7FEFD97
:100A540000211220FFF7FAFD00218120FFF7F6FDA7
:100A64000021EF20FFF7F2FD0021D920FFF7EEFD72
:100A74000021F120FFF7EAFD0021DB20FFF7E6FD6E
:100A840000213020FFF7E2FD0021A420FFF7DEFD66
:100A94000021A620FFF7DAFD0021AF20FFF7D6FDE5
:100AA400FFF726FE02B070BD0010024000100140A6
:100AB400001401400020014010B582B00920FFF766
:100AC400CFFC4820FFF7AEFB4FF4E1314820FFF79D
:100AD4001FFDFFF775FDFFF72FFF18231D4A0021A7
:100AE4000846FFF7F7FE10231B4A18210020FFF7E2
:100AF400F1FE0C23194A34210020FFF7EBFE0C23EE
:100B0400174A34214020FFF7E5FEFFF7CBFD2024F0
:100B140008E04FF4FA70FFF7B5FB124AD36883F08C
:100B24002003D360012300930C2322463421242084
:100B3400FFF71AFE0C2300930323224634215E2080
:100B4400FFF77AFEFFF7AEFD0134E4B27E2CE0D964
:100B54002024DEE7A4240008B0240008C0240008F0
:100B6400C8240008000C0140FFF75AFB0B480C494D
:100B74000C4A002302E0D458C4500433C4188C42F5
:100B8400F9D3094A094C002301E013600432A2425C
:100B9400FBD300F00FF8FFF78FFF70470000002031
:100BA40004000020DC240008040000208806002043
:100BB400FEE7000070B500260C4D0D4C641BA4101C
:100BC400A64209D100F080F800260A4D0A4C641BA5
:100BD400A410A64205D170BD55F8043B98470136D0
:100BE400EEE755F8043B98470136F2E7D0240008B5
:100BF400D0240008D0240008D82400087047704787
:100C0400024B13B1024800F005B870470000000021
:100C1400250C0008002301461A46184600F014B8B3
:100C240038B5074D074C641BA4101CB9BDE8384007
:100C340000F050B8013C55F824309847F5E700BF60
:100C4400D8240008DC2400082DE9F047DFF86CA064
:100C54000646DAF8000098460F469146FFF7CEFFA5
:100C6400174B1C680CB9174C1C606568DAF8000057
:100C74001F2D05DDFFF7C3FF4FF0FF30BDE8F08700
:100C84009EB1012204EB8501C1F88890D4F8883123
:100C9400AA401343C4F88831022EC1F8088102BF68
:100CA400D4F88C311343C4F88C316B1C0235636067
:100CB40044F82570FFF7A3FF0020DFE700000020C1
:100CC400F4040020F8040020F8B500BFF8BC08BC08
:100CD4009E467047F8B500BFF8BC08BC9E467047F6
:100CE4000000000000000000000000000000000000
:100CF40000000000000000000000000000000000F0
:100D040000000000000000000000000000000000DF
:100D14000000000F80380FFE380F803800000000FC
:100D240000000000000000000000000000000100BE
:100D3400000600000C00003800003100000600002E
:100D44000C0000380000300000000000000000002B
:100D540061800067F807F9800061800061800061AC
:100D6400800061800067F807F9800061800000005E
:100D740000000000000001C0E003E0F006300804B9
:100D840018081FFFFE040E080787F00381E0000027
:100D94000000000001F000060C00040408060C70BA
:100DA40001F9C0000E00003BE000EC18070808043D
:100DB4000C180003E00000000001E00007F003F855
:100DC40018041C0804170807E1D003C0E00023B08E
:100DD400003C080020080000100000000000000192
:100DE40000003100003200001C0000000000000080
:100DF40000000000000000000000000000000000EF
:100E040000000000000000000000000000000000DE
:100E14007F0001FFC00780F00C00181000042000C0
:100E2400020000000000002000021000040C001862
:100E34000780F001FFC0007F0000000000000000F8
:100E440000000000000000000000000042000066F6
:100E540000006600003C0000180003FFC0001800FA
:100E6400003C000066000066000042000000000034
:100E7400080000080000080000080000080001FF46
:100E8400C000080000080000080000080000080076
:100E940000000000000100003100003200001C00CE
:100EA400000000000000000000000000000000003E
:100EB4000000000000000000080000080000080016
:100EC40000080000080000080000080000080000F6
:100ED40008000008000000000000000000000000FE
:100EE4003800003800003800000000000000000056
:100EF40000000000000000000000000000000000EE
:100F0400000600001C000070000180000E00003884
:100F14000000C0000700001C0000300000000000BA
:100F2400000000007F8001FFE003807006001804C9
:100F3400000804000806001803807001FFE0007F29
:100F4400800000000000000000000100080100080B
:100F540001000803FFF807FFF8000008000008007C
:100F6400000800000000000000000001C03802C0BA
:100F740058040098040118040218040418061C18E4
:100F840003F81801E0F80000000000000000000170
:100F9400C0E003C0F00400080408080408080618A8
:100FA4000803F41801E7F00001E00000000000006D
:100FB400000000000300000D0000110000610000AB
:100FC400810803010807FFF80FFFF800010800017A
:100FD400080000000000000000E007FCD00608083C
:100FE400061008061008061008061838060FF00642
:100FF40007C0000000000000000000003F8001FF67
:10100400E0038430020818041008041008041008CF
:10101400071810030FF00007C000000000000000D4
:10102400000003C0000700000600000600F80607E1
:10103400F806180006E000070000060000000000A3
:1010440000000001E1E003F7F0063410041808047E
:101054001808040C08040C0806161803F3F001C160
:10106400E000000000000000F80003FC3003063834
:101074000402080402080402080404100308F0012E
:10108400FFC0007F0000000000000000000000001E
:101094000000000000000000703800703800703854
:1010A400000000000000000000000000000000003C
:1010B400000000000000000000000000301A0030B2
:1010C4001C00000000000000000000000000000000
:1010D40000000000000000080000140000220000CE
:1010E400410000808001004002002004001008003C
:1010F4000800000000000000210000210000210081
:101104000021000021000021000021000021000036
:101114002100002100000000000000000000080081
:1011240008040010020020010040008080004100FB
:10113400002200001400000800000000000000036A
:10114400C00004C000040000080038080F38080874
:10115400380810000C300007E00003C00000000055
:10116400000000003F8000FFE0038070020F1006C3
:10117400708804C088048308047F8802C090030137
:101184002000FE400000080000180001F8003E089E
:1011940001C20007020007E20000FE00001FC800B1
:1011A40001F800003800000804000807FFF807FFF2
:1011B400F8040808040808040808040808061808BD
:1011C40003F41801E7F00001E00000000000000053
:1011D4003F8001FFE003807002001804000804004F
:1011E400080400080400100600200780C000000066
:1011F40004000807FFF807FFF804000804000804C7
:10120400000804001802001003807001FFE0007F52
:101214008000000004000807FFF807FFF80408082E
:10122400040808040808040808043E080400080622
:10123400001801006000000004000807FFF807FF21
:10124400F8040808040800040800040800043E0028
:1012540006000006000001800000000000000000FD
:101264003F8001FFE00380700600180400080402B8
:10127400080402080203F00783F0000200000200E1
:1012840004000807FFF807FFF80408080008000036
:10129400080000080000080004080807FFF807FF1A
:1012A400F80400080000000000000400080400081E
:1012B40004000807FFF807FFF80400080400080406
:1012C400000800000000000000000000000600000C
:1012D4000700000104000104000104000307FFFEED
:1012E40007FFFC04000004000004000004000807D9
:1012F400FFF807FFF8040C08001800003E0004C7BC
:10130400800503C80600F80400380400180000082B
:1013140004000807FFF807FFF804000800000800AD
:101324000008000008000008000008000018000081
:101334006000000004000807FFF807800807FC00AD
:10134400007FC00003F80007C0007800078008078A
:10135400FFF807FFF804000804000807FFF8070077
:101364000803C00000E000003800001E0000070071
:101374000001C00400F007FFF804000000000000B2
:101384007F8001FFE0038070060018040008040059
:101394000806001803003001FFE0007F8000000011
:1013A40004000807FFF807FFF80404080404000415
:1013B4000400040400040400060C0003F80001F017
:1013C40000000000000000007F8001FFE003807047
:1013D4000600880400880400C806003C03003E019F
:1013E400FFE6007F8400000004000807FFF807FF01
:1013F400F8040808040800040C00040F00040BC0DF
:101404000610F003F03801E00800000800000001B5
:10141400E0F803F030063010041808041808040C2F
:1014240008040C080206180207F00781E000000017
:101434000180000600000400000400000400080706
:10144400FFF807FFF8040008040000040000060089
:101454000001800004000007FFE007FFF00400180B
:10146400000008000008000008000008000008044C
:10147400001007FFE004000004000006000007E07D
:101484000007FE00041FE00001F80000380001E03E
:10149400043E0007C000060000040000040000072A
:1014A400E00007FFC0041FF80007C007F80007FFAB
:1014B40080043FF80007C004F8000700000400009F
:1014C40000000004000806001807C07805F1C800F1
:1014D4003E00001F800463E80780F806001804003B
:1014E4000800000004000006000007800007E00870
:1014F400047C08001FF80007F800180804E0080737
:1015040000000600000400000000000100080600BE
:10151400380400F80403E8040F08047C0805F00804
:1015240007C0080700180400600000000000000065
:1015340000000000000000000000003FFFFE20004B
:10154400022000022000022000022000020000000D
:1015540000000000000008000007000000C00000B8
:1015640038000006000001C000003000000E00003A
:101574000100000000000000000020000220000222
:101584002000022000022000023FFFFE00000000B5
:101594000000000000000000000000000000000047
:1015A400000800001000003000002000003000009F
:1015B400100000080000000000000000000001000E
:1015C4000001000001000001000001000001000012
:1015D4000100000100000100000100000100000101
:1015E40000000000000000000020000020000010A7
:1015F40000001000000000000000000000000000D7
:10160400000000000000000000F00019F8001B18A2
:10161400002208002608002408002410003FF800D7
:101624001FF800000800001800000004000007FF75
:10163400F80FFFF000181800100800200800200818
:10164400003018001FF0000FC00000000000000070
:1016540007C0001FF00018300020080020080020F8
:1016640008003C08001C100000600000000000009E
:101674000000000007C0001FF00038180020080018
:10168400200800200804101007FFF80FFFF00000E6
:10169400100000000000000000000007C0001FF060
:1016A400001230002218002208002208003208002C
:1016B4001E10000E2000000000000000200000208A
:1016C4000800200801FFF803FFF80620080420089A
:1016D40004200807200003000000000000000000B0
:1016E400000E000E6E001FF30031B10020B1002087
:1016F400B1003191001F13002E1E00200E00300097
:1017040000000004000807FFF80FFFF800100800AD
:101714002000002000002008003FF8001FF800000F
:10172400080000000000000000000020080020085D
:10173400002008063FF8063FF800000800000800F3
:10174400000800000000000000000000000000008D
:1017540003000003002001002001002003063FFED7
:10176400063FFC0000000000000000000000000430
:10177400000807FFF80FFFF8000188000300002F9E
:10178400C00038F8002038002008000008000000DD
:10179400000000000000040008040008040008071A
:1017A400FFF80FFFF8000008000008000008000020
:1017B40000000000002008003FF8003FF800100877
:1017C400002000003FF8003FF8001008002000004F
:1017D4003FF8003FF8000008000000002008003F28
:1017E400F8003FF800100800100000200000200856
:1017F400003FF8001FF8000008000000000000008F
:1018040007C0000FF0001830003008002008002046
:1018140008003008001830000FF00007C000000076
:10182400000000002001003FFF003FFF00101100F6
:101834002009002008002008003038001FF0000FA5
:10184400C00000000000000007C0001FF0003818AE
:10185400002008002008002009001011001FFF00CC
:101864003FFF0000010000000020080020080020C5
:1018740008003FF8003FF80008080010080020089E
:1018840000200000300000300000000000000000D4
:101894000000000C78001E18003308002308002103
:1018A400080021880021980030F000386000000012
:1018B40000000000200000200000200000FFF003D2
:1018C400FFF8002008002008002008000030000075
:1018D40000000000000000002000003FF0007FF83E
:1018E400000018000008000008002010003FF80065
:1018F4007FF0000010000000000000002000003015
:1019040000003C00003F800023F0000078000070DD
:10191400002380003C000030000020000020000074
:101924003C00003FE00023F80000E0002700003EF8
:1019340000003FE00021F80001E0003E000020002C
:10194400000000002008002008003838003E68002D
:1019540027800003C8002CF8003838002018002025
:1019640008000000000000002000003003003C01DB
:10197400003F830023EC000070002380003C000043
:1019840020000020000000000000000000000038DB
:10199400080020380020F80023E8002F88003E08C3
:1019A400003808002018000070000000000000004B
:1019B4000000000000000000000000000800001407
:1019C400001FF7FC300006200002000000000000A9
:1019D4000000000000000000000000000000000003
:1019E4000000FFFFFF0000000000000000000000F6
:1019F400000000000000000000002000023000068B
:101A04001FF7FC00140000080000000000000000A4
:101A1400000000000000000000000018000060004A
:101A240000400000400000200000100000080000FA
:101A34000400000400000C0000100000000000007E
:101A44000000000000000000000000000000000092
:101A540000001FCC000C0000000000000000080083
:101A6400300060000800300060000000022003FC29
:101A74001E20022003FC1E200220000000000E187D
:101A840011043FFF10840C78000000000F00108444
:101A94000F3800C0077818840078000000780F849D
:101AA40010C411240E9800E40084000808006800A3
:101AB40070000000000000000000000000000000B2
:101AC400000007E018182004400200000000400253
:101AD4002004181807E00000000000000240024043
:101AE40001800FF00180024002400000008000806D
:101AF40000800FF800800080008000000001000DCD
:101B0400000E000000000000000000000000008043
:101B14000080008000800080008000800000000CB5
:101B2400000C00000000000000000000000000069F
:101B3400001800600180060018002000000007F073
:101B4400080810041004080807F000000000080446
:101B540008041FFC000400040000000000000E0C38
:101B640010141024104411840E0C000000000C18F2
:101B740010041104110412880C700000000000E02D
:101B84000320042408241FFC0024000000001F98E4
:101B9400108411041104108810700000000007F074
:101BA40008881104110418880070000000001C004B
:101BB400100010FC13001C001000000000000E3880
:101BC40011441084108411440E38000000000700F2
:101BD400088C10441044088807F00000000000003E
:101BE4000000030C030C00000000000000000000D3
:101BF4000001010600000000000000000000008059
:101C040001400220041008081004000002200220F1
:101C14000220022002200220022000000000100402
:101C240008080410022001400080000000000E009B
:101C34001200100C106C10800F00000003E00C1850
:101C440013E4142417C4082807D000000004003C3F
:101C540003C41C40074000E4001C000410041FFCE3
:101C64001104110411040E880070000003E00C1824
:101C740010041004100410081C10000010041FFCB1
:101C8400100410041004080807F0000010041FFCDE
:101C94001104110417C410040818000010041FFCD8
:101CA4001104110017C010000800000003E00C1814
:101CB4001004100410441C780040000010041FFCA1
:101CC40010840080008010841FFC100400001004A5
:101CD40010041FFC100410040000000000030001A5
:101CE400100110011FFE10001000000010041FFC62
:101CF400110403801464181C1004000010041FFC59
:101D04001004000400040004000C000010041FFC74
:101D14001F0000FC1F001FFC1004000010041FFC27
:101D24000C04030000E010181FFC100007F0080862
:101D3400100410041004080807F0000010041FFC2D
:101D440010841080108010800F00000007F0081825
:101D540010241024101C080A07F2000010041FFCB1
:101D64001104110011C011300E0C000400000E1CEF
:101D740011041084108410441C3800001800100052
:101D840010041FFC100410001800000010001FF8BD
:101D940010040004000410041FF8100010001E00BA
:101DA40011E0001C007013801C0010001FC0103CC8
:101DB40000E01F0000E0103C1FC000001004180CDD
:101DC400163401C001C01634180C100410001C0095
:101DD400130400FC13041C00100000000804101C71
:101DE4001064108413041C04101800000000000088
:101DF40000007FFE4002400240020000000030006C
:101E04000C0003800060001C00030000000040027E
:101E1400400240027FFE00000000000000000000BD
:101E240020004000400040002000000000010001AC
:101E34000001000100010001000100010000400058
:101E44004000200000000000000000000000009896
:101E5400012401440144014400FC000410001FFC5F
:101E64000088010401040088007000000000007074
:101E740000880104010401040088000000000070CF
:101E840000880104010411081FFC0004000000F88C
:101E9400014401440144014400C80000000001045D
:101EA40001040FFC1104110411001800000000D6F5
:101EB40001290129012901C90106000010041FFCA0
:101EC400008401000100010400FC0004000001047E
:101ED400190419FC000400040000000000000003C1
:101EE40000010101190119FE0000000010041FFC8B
:101EF4000024004001B4010C01040000000010049F
:101F040010041FFC0004000400000000010401FC94
:101F14000104010001FC0104010000FC010401FCB6
:101F2400008401000100010400FC0004000000F82A
:101F3400010401040104010400F80000010101FF8F
:101F44000085010401040088007000000000007096
:101F5400008801040104010501FF000101040104DA
:101F640001FC00840104010001800000000000CC99
:101F7400012401240124012401980000000001002F
:101F8400010007F80104010400000000010001F849
:101F9400000400040004010801FC000401000180A5
:101FA4000170000C001001600180010001F0010CBF
:101FB400003001C00030010C01F0010000000104F8
:101FC400018C00740170018C010400000101018185
:101FD4000171000E001801600180010000000184FD
:101FE400010C013401440184010C000000000000D4
:101FF4000000000001003EFC40024002000000001E
:1020040000000000FFFF000000000000000040028C
:1020140040023EFC010000000000000000006000DF
:1020240080008000400040002000200000000000EC
:102034000000000000000000000000003F4000001D
:1020440000000000000030004000300040000000AC
:1020540009000BC03D000BC03D00090018C024401E
:102064007FE0224031800000180024C01B000D8056
:102074003240018003801C4027401C800740004000
:1020840010006000000000000000000000000000DC
:1020940000001F80204040200000402020401F807E
:1020A40000000000090006001F800600090000006F
:1020B400040004003F8004000400000000100060DD
:1020C40000000000000000000400040004000400FC
:1020D40004000000000000400000000000000000B8
:1020E400002001C006003800400000001F8020408E
:1020F400204020401F800000000010403FC00040EE
:102104000000000018C02140224024401840000074
:1021140010802040244024401B80000002000D0059
:1021240011003FC0014000003C8024402440244072
:10213400238000001F80244024403440038000009A
:102144003000200027C03800200000001B802440FD
:10215400244024401B8000001C0022C02240224056
:102164001F80000000000000084000000000000084
:1021740000000000046000000000000000000400F3
:102184000A001100208040400900090009000900EC
:102194000900000000004040208011000A000400F3
:1021A4001800200023402400180000001F80204055
:1021B400274029401F400000004007C039000F009D
:1021C40001C0004020403FC0244024401B80000048
:1021D4001F802040204020403080000020403FC02D
:1021E400204020401F80000020403FC024402E405B
:1021F40030C0000020403FC024402E0030000000CA
:102204000F001080204022403380020020403FC055
:10221400040004003FC02040204020403FC0204034
:10222400204000000060202020203FC0200020002B
:1022340020403FC024400B0030C0204020403FC01D
:1022440020400040004000C03FC03C0003C03C00B0
:102254003FC0000020403FC00C4023003FC020008E
:102264001F802040204020401F80000020403FC0AD
:1022740024402400180000001F802140214020E059
:102284001FA0000020403FC02440260019C0004089
:1022940018C02440244022403180000030002040F7
:1022A4003FC020403000000020003F80004000403C
:1022B4003F80200020003E0001C0070038002000BD
:1022C400380007C03C0007C038000000204039C077
:1022D400060039C0204000002000384007C03840C4
:1022E40020000000304021C02640384020C00000BB
:1022F400000000007FE0402040200000000070004B
:102304000C000380004000000000402040207FE0DB
:102314000000000000002000400020000000000039
:102324000010001000100010001000100000000049
:10233400400000000000000000000280054005404D
:1023440003C0004020003FC004400440038000005C
:1023540000000380044004400640000000000380A5
:10236400044024403FC00040000003800540054075
:1023740003400000000004401FC02440244020000B
:10238400000002E0055005500650042020403FC0E4
:102394000440040003C000400000044027C0004083
:1023A4000000000000100010041027E000000000EE
:1023B40020403FC00140070004C0044020402040AA
:1023C4003FC000400040000007C0040007C00400F4
:1023D40003C00000044007C00440040003C00040E0
:1023E400000003800440044003800000041007F050
:1023F40004500440038000000000038004400450A3
:1024040007F00010044007C002400400040000006C
:10241400000006400540054004C000000000040020
:102424001F80044000400000040007800040044076
:1024340007C000400400070004C001800600040037
:10244400060001C0070001C006000000044006C0E9
:10245400010006C0044000000410071004E00180DD
:10246400060004000000044005C0064004400000CB
:102474000000000004007BE0402000000000000099
:102484000000FFF000000000000040207BE004009A
:1024940000000000400080004000200020004000B8
:1024A400414C49454E54454B00000000302E39360E
:1024B40027204F4C4544205445535400415343492D
:0C24C400493A0000434F44453A00000034
:0824D000050C000809020008D8
:0424D800E501000812
:0424DC00F0040020E8
:0400000508000B6D77
:00000001FF
