:020000040800F2
:1000000000000120150700085D0700085D070008D3
:100010005D0700085D0700085D070008000000009C
:100020000000000000000000000000005D07000864
:100030005D070008000000005D0700085D0700087C
:10004000990600085D0700085D0700085D070008C5
:100050005D0700085D0700085D0700085D070008F0
:100060005D0700085D0700085D0700085D070008E0
:100070005D0700085D0700085D0700085D070008D0
:100080005D0700085D0700085D0700085D070008C0
:100090005D0700085D0700085D0700085D070008B0
:1000A0005D0700085D0700085D0700085D070008A0
:1000B0005D0700085D0700085D0700085D07000890
:1000C0005D0700085D0700085D0700085D07000880
:1000D0005D070008290200085D0700085D070008A9
:1000E0005D0700085D0700085D0700085D07000860
:1000F0005D0700085D0700085D0700085D07000850
:100100005D0700085D0700085D0700085D0700083F
:100110005D0700085D0700085D0700085D0700082F
:100120005D0700085D0700085D0700085D0700081F
:1001300000000000000000000000000000000000BF
:1001400000000000000000000000000000000000AF
:10015000000000000000000000000000000000009F
:10016000000000000000000000000000000000008F
:10017000000000000000000000000000000000007F
:10018000000000000000000000000000000000006F
:10019000000000000000000000000000000000005F
:1001A000000000000000000000000000000000004F
:1001B000000000000000000000000000000000003F
:1001C000000000000000000000000000000000002F
:1001D000000000000000000000000000000000001F
:0401E0005FF8E0F1F3
:1001E40010B5054C237833B9044B13B10448AFF36D
:1001F40000800123237010BD0800002000000000CF
:100204007408000808B5034B1BB103490348AFF356
:10021400008008BD000000000C00002074080008E5
:1002240070470000114B1B6813F0200F1CD00F4BBC
:100234005A68D2B20A2A0FD010B40D490B88C3F3FE
:100244000D000C4C225401339BB20B80C72B01D9F7
:1002540000220A8010BC7047054A13886FEA4343A2
:100264006FEA534313807047704700BF0038014062
:1002740024000020280000202DE9F04182B0064629
:100284000C46254B9A6942F004029A619A6942F03D
:1002940004029A619A6942F480429A611F4F4FF0B6
:1002A4000108CDF8048003250095002302224FF4B1
:1002B4000071384600F0EEF8CDF804800095002374
:1002C4001A464FF48061384600F0E4F824FA08F343
:1002D400134800FB0630B0FBF4F0124CA06000237E
:1002E400E360E368E360E36843F00803E360E36822
:1002F40043F00403E360E36843F02003E360022374
:1003040025222946284600F09DF8E36843F400536B
:10031400E36002B0BDE8F081001002400008014033
:1003240040420F00003801404FF0E0231A6942F0C8
:1003340004021A61044A10601A6942F001021A6147
:100344006FF070425A617047F000002010B44FF013
:10035400E02254690B4B1B6800FB03FC93690021EA
:1003640004E0E01A02441144614509D21A464FF0F0
:10037400E0239B699A42FAD0F3D9D21A1144F3E7E5
:1003840010BC7047F000002008B54FF47A7303FBEB
:1003940000F0FFF7DBFF08BDC3431B0203F4E06377
:1003A4000649CA6822F4E0621204120C42F0BF62E9
:1003B40042F400321343CB60704700BF00ED00E00D
:1003C400194A136843F480331360174B1B6813F402
:1003D400003FFAD0144B4FF480525A6002385A68E6
:1003E40042EA80425A605A6842F480325A600F4AA4
:1003F40010211160116841F0020111601A6842F085
:1004040080721A60084B1B685B0EFBD0064A536867
:1004140043F002035360044B5B68C3F38103022B74
:10042400F9D10120704700BF0010024000200240B3
:1004340021F4FF7121F001010143014B99607047E0
:1004440000ED00E0F8B507460C4616461D46184672
:10045400FFF7A2FFC5F1040307FA03F10F232B41B1
:1004640004EA030570090A4C54F8203006F01F070B
:100474000122BA40134344F82030344494F8003342
:10048400294301F00F0143EA011384F80033F8BD56
:1004940000E100E02DE9F041069E079D4FF0000CBD
:1004A4001DE006F003074FEA830E0EF0040E4EEA39
:1004B400070E4EEAC40EBCF1070F33D807684FEAA3
:1004C4008C044FF00F0808FA04F827EA08070760BD
:1004D40007680EFA04F43C4304600CF1010CBCF10F
:1004E4000F0F31D84FF0010E0EFA0CFE3EEA010454
:1004F400F3D1541E012CD4D972B985B1C46824EA4D
:100504000E04C460C46805F0010707FA0CF73C4305
:10051400C4604FF0080ECEE74FF0000ECBE74FF06B
:10052400040EC8E74768ACF10804A4004FF00F08B4
:1005340008FA04F827EA0807476047680EFA04FE39
:1005440047EA0E074760C8E7BDE8F08112F0010FE3
:1005540003D00369194301617047036943EA014306
:100564000361704710B5144B00241C61DC605C61AE
:100574009C61DC611A6842F001021A6059680F4AF2
:100584000A405A601A6822F0847222F480321A6097
:100594001A6822F480221A605A6822F4FE025A6011
:1005A4004FF41F029A60FFF70BFF21464FF00060E3
:1005B400FFF73EFF10BD00BF001002400000FFF82F
:1005C40070B582B0134B9A6942F008029A619A6935
:1005D40042F040029A61104E0124019400940023D9
:1005E400224620213046FFF755FF0C4D019400941C
:1005F4000023224620212846FFF74CFF22462021D3
:100604003046FFF7A3FF224620212846FFF79EFF2E
:1006140002B070BD00100240000C014000180140FF
:1006240010B5154CE36943F40063E361134B1C7884
:1006340020401870124C636843EAC2136360636815
:1006440023F07F031B041B0C636063681943616020
:10065400236818432060236843F080032360022347
:10066400002203211846FFF7EDFE0023A360636810
:1006740043F40073636010BD0010024000000020CA
:10068400002C004000F07F00014B1860704700BF51
:10069400002C004008B5094B9B6813F0010F00D1F2
:1006A40008BD064B00229A60054B1878FFF7EAFF55
:1006B400044AD36883F02003D360F1E7002C0040A0
:1006C400000000200018014008B50920FFF74AFF88
:1006D4004820FFF729FE4FF4E1314820FFF7CCFD15
:1006E400FFF76EFF002220210848FFF72FFF4FF489
:1006F4009670FFF749FE03225F217F20FFF790FFEA
:10070400012220210148FFF721FFF9E7000C0140F5
:10071400FFF786FD0B480C490C4A002302E0D4582D
:10072400C4500433C4188C42F9D3094A094C002339
:1007340001E013600432A242FBD300F00FF8FFF78C
:10074400C3FF70470000002008000020980800083C
:10075400080000208C020020FEE7000070B500268F
:100764000C4D0D4C641BA410A64209D100F080F876
:1007740000260A4D0A4C641BA410A64205D170BD84
:1007840055F8043B98470136EEE755F8043B984783
:100794000136F2E78C0800088C0800088C08000871
:1007A4009408000870477047024B13B1024800F0E8
:1007B40005B8704700000000CD070008002301467B
:1007C4001A46184600F014B838B5074D074C641B98
:1007D400A4101CB9BDE8384000F050B8013C55F8ED
:1007E40024309847F5E700BF9408000898080008EB
:1007F4002DE9F047DFF86CA00646DAF800009846C9
:100804000F469146FFF7CEFF174B1C680CB9174CE7
:100814001C606568DAF800001F2D05DDFFF7C3FFD3
:100824004FF0FF30BDE8F0879EB1012204EB850153
:10083400C1F88890D4F88831AA401343C4F88831A9
:10084400022EC1F8088102BFD4F88C311343C4F8D6
:100854008C316B1C0235636044F82570FFF7A3FFED
:100864000020DFE704000020F8000020FC00002046
:10087400F8B500BFF8BC08BC9E467047F8B500BF89
:08088400F8BC08BC9E46704759
:08088C00AD0700080902000895
:04089400E501000872
:080898007F000000F4000020C5
:0400000508000715D3
:00000001FF
