:020000040800F2
:100000000000012029090008710900087109000891
:10001000710900087109000871090008000000005A
:10002000000000000000000000000000710900084E
:10003000710900080000000071090008710900083A
:1000400071090008710900087109000871090008A8
:100050007109000871090008710900087109000898
:100060007109000871090008710900087109000888
:100070007109000871090008710900087109000878
:100080007109000871090008710900087109000868
:100090007109000871090008710900087109000858
:1000A0007109000871090008710900087109000848
:1000B0007109000871090008710900087109000838
:1000C0007109000871090008710900087109000828
:1000D0007109000829020008710900087109000867
:1000E0007109000871090008710900087109000808
:1000F00089070008710900087109000871090008E2
:1001000071090008710900087109000871090008E7
:1001100071090008710900087109000871090008D7
:1001200071090008710900087109000871090008C7
:1001300000000000000000000000000000000000BF
:1001400000000000000000000000000000000000AF
:10015000000000000000000000000000000000009F
:10016000000000000000000000000000000000008F
:10017000000000000000000000000000000000007F
:10018000000000000000000000000000000000006F
:10019000000000000000000000000000000000005F
:1001A000000000000000000000000000000000004F
:1001B000000000000000000000000000000000003F
:1001C000000000000000000000000000000000002F
:1001D000000000000000000000000000000000001F
:0401E0005FF8E0F1F3
:1001E40010B5054C237833B9044B13B10448AFF36D
:1001F40000800123237010BD0800002000000000CF
:10020400880A000808B5034B1BB103490348AFF340
:10021400008008BD000000000C000020880A0008CF
:1002240070470000114B1B6813F0200F1CD00F4BBC
:100234005A68D2B20A2A0FD010B40D490B88C3F3FE
:100244000D000C4C225401339BB20B80C72B01D9F7
:1002540000220A8010BC7047054A13886FEA4343A2
:100264006FEA534313807047704700BF0038014062
:1002740024000020280000202DE9F04182B0064629
:100284000C46254B9A6942F004029A619A6942F03D
:1002940004029A619A6942F480429A611F4F4FF0B6
:1002A4000108CDF8048003250095002302224FF4B1
:1002B4000071384600F0EEF8CDF804800095002374
:1002C4001A464FF48061384600F0E4F824FA08F343
:1002D400134800FB0630B0FBF4F0124CA06000237E
:1002E400E360E368E360E36843F00803E360E36822
:1002F40043F00403E360E36843F02003E360022374
:1003040025222946284600F09DF8E36843F400536B
:10031400E36002B0BDE8F081001002400008014033
:1003240040420F00003801404FF0E0231A6942F0C8
:1003340004021A61044A10601A6942F001021A6147
:100344006FF070425A617047F000002010B44FF013
:10035400E02254690B4B1B6800FB03FC93690021EA
:1003640004E0E01A02441144614509D21A464FF0F0
:10037400E0239B699A42FAD0F3D9D21A1144F3E7E5
:1003840010BC7047F000002008B54FF47A7303FBEB
:1003940000F0FFF7DBFF08BDC3431B0203F4E06377
:1003A4000649CA6822F4E0621204120C42F0BF62E9
:1003B40042F400321343CB60704700BF00ED00E00D
:1003C400194A136843F480331360174B1B6813F402
:1003D400003FFAD0144B4FF480525A6002385A68E6
:1003E40042EA80425A605A6842F480325A600F4AA4
:1003F40010211160116841F0020111601A6842F085
:1004040080721A60084B1B685B0EFBD0064A536867
:1004140043F002035360044B5B68C3F38103022B74
:10042400F9D10120704700BF0010024000200240B3
:1004340021F4FF7121F001010143014B99607047E0
:1004440000ED00E0F8B507460C4616461D46184672
:10045400FFF7A2FFC5F1040307FA03F10F232B41B1
:1004640004EA030570090A4C54F8203006F01F070B
:100474000122BA40134344F82030344494F8003342
:10048400294301F00F0143EA011384F80033F8BD56
:1004940000E100E02DE9F041069E079D4FF0000CBD
:1004A4001DE006F003074FEA830E0EF0040E4EEA39
:1004B400070E4EEAC40EBCF1070F33D807684FEAA3
:1004C4008C044FF00F0808FA04F827EA08070760BD
:1004D40007680EFA04F43C4304600CF1010CBCF10F
:1004E4000F0F31D84FF0010E0EFA0CFE3EEA010454
:1004F400F3D1541E012CD4D972B985B1C46824EA4D
:100504000E04C460C46805F0010707FA0CF73C4305
:10051400C4604FF0080ECEE74FF0000ECBE74FF06B
:10052400040EC8E74768ACF10804A4004FF00F08B4
:1005340008FA04F827EA0807476047680EFA04FE39
:1005440047EA0E074760C8E7BDE8F08112F0010FE3
:1005540003D00369194301617047036943EA014306
:10056400036170478368194201D00120704700205D
:100574007047000010B5144B00241C61DC605C6102
:100584009C61DC611A6842F001021A6059680F4AE2
:100594000A405A601A6822F0847222F480321A6087
:1005A4001A6822F480221A605A6822F4FE025A6001
:1005B4004FF41F029A60FFF703FF21464FF00060DB
:1005C400FFF736FF10BD00BF001002400000FFF827
:1005D40030B583B01A4B9A6942F040029A619A6925
:1005E40042F040029A619A6942F040029A619A6923
:1005F40042F004029A61134D0124019400940023F3
:100604001A4610212846FFF745FF01940094002361
:100614001A4608212846FFF73DFF01940094002361
:100624001A4604212846FFF735FF0223019300945C
:1006340000231A4621460448FFF72CFF03B030BDBF
:1006440000100240001801400008014010B510B12C
:10065400314B01221A70304B1B78002B35D01021FE
:100664002E48FFF77FFF20B108212C48FFF77AFFBF
:10067400F8B90A20FFF788FE274B00221A701021D0
:100684002648FFF76FFF48B3002408212348FFF7EB
:1006940069FF00B9022404212048FFF763FF00B971
:1006A400032401211E48FFF75DFF012814D104240F
:1006B40012E004211948FFF755FF0028D9D0012181
:1006C4001748FFF74FFF0128D3D010211348FFF735
:1006D40049FF012804D00024204610BD0124D4E79A
:1006E40008210E48FFF73EFF012801D00024F3E75C
:1006F40004210A48FFF736FF012801D00024EBE764
:1007040001210748FFF72EFF044618B9024B0122C6
:100714001A70E1E70024DFE7000000200018014020
:100724000008014070B582B0134B9A6942F0080288
:100734009A619A6942F040029A61104E0124019430
:1007440000940023224620213046FFF7A3FE0C4DDF
:10075400019400940023224620212846FFF79AFEA4
:10076400224620213046FFF7F1FE2246202128466A
:10077400FFF7ECFE02B070BD00100240000C014017
:1007840000180140174B1B6913F0010F15D0164BCD
:100794001B68B3F5807F16D9A3F58073124A1360E2
:1007A4004FF48073013B0F4A1363536943F0010311
:1007B4005361136843F0010313600A4A136923F079
:1007C40001031361704713F0FF0F05D0064A00219F
:1007D400116013F0FF03E5D1024A136823F001030B
:1007E4001360EAE700340140F4000020F0B583B060
:1007F40007460E461C4B9A6942F010029A619A69A8
:1008040042F400529A6101240194032500950023C7
:10081400022240211548FFF73DFE154BDF629E6220
:100824005A6C42F400425A649A6942F060029A6136
:100834009A6942F008029A611A6A22431A621A6A91
:100844001A621A6842F080021A60DA682243DA6097
:100854001A6822431A6002232C2229462046FFF7F5
:10086400F1FD03B0F0BD00BF0010024000100140D4
:100874000034014050B1064A1060064B5A6942F0F8
:1008840001025A611A6842F001021A60704700BFFF
:10089400F40000200034014010B582B00920FFF7B5
:1008A40069FE4820FFF740FD4FF4E1314820FFF78F
:1008B400E3FCFFF737FFFFF78BFE0123019300935F
:1008C40000231A4620211448FFF7E4FD41F61F4196
:1008D40041F28730FFF78AFF104B40F6C4125A6387
:1008E4000520FFF7C7FF14E00134E4B20A20FFF744
:1008F4004BFD322C08D80020FFF7A8FE0128F3D1C5
:100904000520FFF7B7FFEFE7054AD36883F020031C
:10091400D3600024EFE700BF001801400034014019
:10092400000C0140FFF77CFC0B480C490C4A0023E7
:1009340002E0D458C4500433C4188C42F9D3094A91
:10094400094C002301E013600432A242FBD300F0FF
:100954000FF8FFF7A1FF70470000002008000020F7
:10096400AC0A00080800002090020020FEE7000006
:1009740070B500260C4D0D4C641BA410A64209D181
:1009840000F080F800260A4D0A4C641BA410A6420D
:1009940005D170BD55F8043B98470136EEE755F88C
:1009A400043B98470136F2E7A00A0008A00A0008B1
:1009B400A00A0008A80A000870477047024B13B148
:1009C400024800F005B8704700000000E109000883
:1009D400002301461A46184600F014B838B5074DEE
:1009E400074C641BA4101CB9BDE8384000F050B893
:1009F400013C55F824309847F5E700BFA80A0008E1
:100A0400AC0A00082DE9F047DFF86CA00646DAF8D6
:100A1400000098460F469146FFF7CEFF174B1C681F
:100A24000CB9174C1C606568DAF800001F2D05DD51
:100A3400FFF7C3FF4FF0FF30BDE8F0879EB10122FE
:100A440004EB8501C1F88890D4F88831AA40134397
:100A5400C4F88831022EC1F8088102BFD4F88C3161
:100A64001343C4F88C316B1C0235636044F8257061
:100A7400FFF7A3FF0020DFE704000020FC000020B4
:100A840000010020F8B500BFF8BC08BC9E467047C2
:0C0A9400F8B500BFF8BC08BC9E467047D7
:080AA000C10900080902000869
:040AA800E50100085C
:080AAC0001000000F800002029
:0400000508000929BD
:00000001FF
