:020000040800F2
:10000000D80E0020DD010008E1010008E30100082E
:10001000E5010008E7010008E90100080000000010
:10002000000000000000000000000000EB010008DC
:10003000ED01000800000000EF010008F1010008D8
:10004000F3010008F3010008F3010008F3010008C0
:10005000F3010008F3010008F3010008F3010008B0
:10006000F3010008F3010008F3010008F3010008A0
:10007000F3010008F3010008F3010008F301000890
:10008000F3010008F3010008F3010008F301000880
:10009000F3010008F3010008F3010008F301000870
:1000A000F3010008F3010008F3010008F301000860
:1000B000F3010008F3010008F3010008F301000850
:1000C000F3010008F3010008F3010008F301000840
:1000D000F301000811050008F3010008F30100080E
:1000E000F3010008F3010008F3010008F301000820
:1000F000F3010008F3010008F3010008F301000810
:10010000F3010008F3010008F3010008F3010008FF
:10011000F3010008F3010008F3010008F3010008EF
:10012000F3010008F3010008F3010008F3010008DF
:1001300000F002F800F042F80AA090E8000C8244B7
:100140008344AAF10107DA4501D100F037F8AFF294
:10015000090EBAE80F0013F0010F18BFFB1A43F0A5
:10016000010318474874000068740000103A24BF67
:1001700078C878C1FAD8520724BF30C830C144BF0C
:1001800004680C607047000000230024002500264E
:10019000103A28BF78C1FBD8520728BF30C148BFEA
:1001A0000B607047642900F07780782900F0B080F8
:1001B000002070471FB51FBD10B510BD00F076F9C7
:1001C0001146FFF7F7FF03F057FC00F094F903B472
:1001D000FFF7F2FF03BC00F0B5F900000848004744
:1001E000FEE7FEE7FEE7FEE7FEE7FEE7FEE7FEE7E7
:1001F000FEE7FEE703480449044A054B7047000048
:1002000031010008D8080020D80E0020D80A0020AC
:10021000D80A0020704700000FB4044910B503AAA3
:10022000029800F015F910BC5DF814FB680000207E
:100230002DE9F0410E460446002020622046E16888
:10024000884730B3252805D0D4E901219047206A9A
:10025000401CF2E7E168204600278847050018D0D7
:10026000A5F14100192802D820354FF40067324625
:10027000294620462760FFF795FF40B1012804D0AA
:10028000F61D26F007060836D8E7361DD6E72846BD
:10029000DAE7206ABDE8F0812DE9F0410646002446
:1002A00010687529314616A510D0AFF300800028DC
:1002B00002DA404213A507E031688A0701D512A58A
:1002C00002E0490704D511A5012401E0AFF3008045
:1002D00000210A2206F1240709E0B0FBF2FCB0FB82
:1002E000F2F302FB1C00303078541846491C0028F9
:1002F000F3D123462A463046BDE8F04100F04EB81F
:10030000000000002D0000002B0000002000000075
:1003100070B504460D4621461068AFF30080218871
:10032000090502D50F4A7A4402E00E4A7A440E3299
:10033000002104F1240305E000F00F060009965D9A
:100340005E54491C0028F7D120780023000704D50B
:10035000702D02D009B1022311322046BDE8704051
:1003600000F01CB8E641000010B5044603E000F0C0
:1003700027F9401C09D014F8010B05490028F6D1D3
:10038000BDE810400A2000F01BB94FF0FF3010BD4F
:100390006800002070477047704770472DE9F047AC
:1003A0000D4699469246044600F1240801688806E5
:1003B00004D5E06921F01001216000E00120A8428D
:1003C00001DD471B00E00027A1697A1902EB090053
:1003D000081AA0612078C00602D42046AFF300803E
:1003E000002608E0D4E901211AF806009047206AA7
:1003F000401C761C20624E45F4DB2078C0060AD5EE
:100400002046AFF3008006E0D4E901213020904778
:10041000206A401C2062381EA7F10107F4DC07E0C7
:10042000D4E9012118F805009047206A401C206299
:10043000281EA5F10105F3DC2046AFF300802078EB
:10044000000602D50220BDE8F0870120FBE700008E
:10045000074B70B50D467B4400F011F80446284662
:1004600000F020F810B14FF0FF3070BD204670BD95
:100470006701000001694A1C02610878704700B5F5
:100480008FB0CDE901310021059105497944CDE9CD
:10049000031011466846FFF7CBFE0FB000BD000009
:1004A000E5FFFFFF007B00F080007047754600F01D
:1004B0002BF8AE4605006946534620F007008546F6
:1004C00018B020B5FFF796FEBDE820404FF00006BB
:1004D0004FF000074FF000084FF0000BAC46ACE8BF
:1004E000C009ACE8C009ACE8C009ACE8C00921F01B
:1004F00007018D46704710B50446AFF300802046D3
:10050000BDE81040FFF763BE0048704708000020B8
:1005100043F60000C4F201000168890610D5416865
:1005200040F6C000C2F200000268930A362B88BF72
:10053000704741F20003C2F200039954511C01605C
:1005400070470000704700004EF21001CEF200012B
:100550000A6842F004020A6040F2BC02C2F20002E1
:100560001060086840F0010008606FF0704048605B
:100570007047000080B54FF47A71484300F002F8EC
:1005800080BD000080B54EF2180140F2BC02CEF2F0
:100590000001C2F2000251F804CC1268002302FBF1
:1005A00000FE08680A689042FCD003449B1A9042FF
:1005B00098BF63447345104628BF80BDF2E7000032
:1005C00043F60001C4F201010A685206FCD5C2B22A
:1005D0004A60704710B501680022C2F6FE721140F1
:1005E000B1F1005F18BF10BD416840F6C404C2F20B
:1005F00000042160006803F073FD2068804710BD8F
:100600002DE9F04104461AB340F2C00815464F1CCC
:100610000026C2F20008002106E000BFB11C8EB225
:100620000237AE42014614D2481C37F8012C83B27F
:1006300089B2B3F5806F28F81120EFD120464146EA
:100640004FF4806203F034FC04F500640020E5E719
:100650000020010408BFBDE8F08140F2C00182B271
:10066000C2F20001204603F023FCBDE8F081000047
:10067000B0B582B041F21800C4F20200016841F640
:10068000000441F0400101600168C4F2010441F03E
:10069000400101600168012541F0400101600168ED
:1006A000002241F004010160204610210023009542
:1006B000019503F0B7FC2046082100220023009595
:1006C000019503F0AFFC2046042100220023009591
:1006D000019503F0A7FCA4F580500224012100221B
:1006E00000230095019403F09DFC02B0B0BD000012
:1006F000B0B540F6C8050028C2F200051CBF0020B6
:100700002870287841F60004C4F20104E0B12046C4
:10071000102103F079FC012814D12046082103F0B0
:1007200073FC01280ED12046042103F06DFC012842
:1007300008D1A4F58050012103F066FC002804BF15
:10074000002028700020B0BD2046102103F05CFC82
:1007500080B12046082103F057FC58B120460421FF
:1007600003F052FC30B1A4F58050012103F04CFCA1
:100770000128CCD10A20FFF7FDFE01202870204679
:10078000102103F041FCB0FA80F045092046082111
:1007900003F03AFC002820464FF0040108BF022570
:1007A00003F032FC0028A4F580504FF0010108BF8F
:1007B000032503F029FC012808BF04252846B0BD05
:1007C000B0B540F6CA01C2F200010A884988044661
:1007D00001FB02F50020002102F094FF03F006F96E
:1007E000002D08BFB0BD40F60000C6F6004000BFB7
:1007F000013D0480FCD1B0BD80B540F6CA01C2F213
:1008000000018871C8B1888840F2401241F6631334
:10081000C0F2F00298420A6024D049F606029042E3
:1008200020D045F21052904228D142F60042C2F642
:1008300000228A604FF42C5219E08888F02241F699
:100840006313C0F2401298420A602BD045F2105256
:10085000904233D142F60042C2F600228A604FF441
:100860002C5224E02C22C0F22A028A602B228A8198
:1008700040F22032C0F2E0120A6005E02C22C0F201
:100880002A028A602B228A8147F29672904203D014
:1008900045F21032904231D140F2E010C0F24010E7
:1008A00008602BE02C22C0F22B028A602A228A8167
:1008B00040F2E012C0F220320A6005E02C22C0F2C1
:1008C0002A028A602B228A8145F21032904207D098
:1008D00049F6060290420CD047F2967290420DD132
:1008E00040F2401249F60603C0F2E01298420A6054
:1008F00004D140F2E010C0F220300860002002F085
:100900001FFE80BD10B5144602F0FCFE03F06EF829
:1009100040F60000C6F60040048010BD80B5CF2030
:1009200003F054F8002003F041F8C12003F03EF832
:10093000302003F03BF8ED2003F048F8642003F08A
:1009400035F8032003F032F8122003F02FF881204D
:1009500003F02CF8E82003F039F8852003F026F89E
:10096000102003F023F87A2003F020F8CB2003F0C6
:100970002DF8392003F01AF82C2003F017F8002086
:1009800003F014F8342003F011F8022003F00EF8FD
:10099000F72003F01BF8202003F008F8EA2003F00A
:1009A00015F8002003F002F8002002F0FFFFC0203D
:1009B00003F00CF81B2002F0F9FFC12003F006F849
:1009C000012002F0F3FFC52003F000F8302002F010
:1009D000EDFF302002F0EAFFC72002F0F7FFB7205A
:1009E00002F0E4FF362002F0F1FF482002F0DEFFC3
:1009F0003A2002F0EBFF552002F0D8FFB12002F0C0
:100A0000E5FF002002F0D2FF1A2002F0CFFFB6204F
:100A100002F0DCFF0A2002F0C9FFA22002F0C6FFAC
:100A2000F22002F0D3FF002002F0C0FF262002F0E7
:100A3000CDFF012002F0BAFFE02002F0C7FF0F2037
:100A400002F0B4FF2A2002F0B1FF282002F0AEFF2E
:100A5000082002F0ABFF0E2002F0A8FF082002F0F1
:100A6000A5FF542002F0A2FFA92002F09FFF43201F
:100A700002F09CFF0A2002F099FF0F2002F096FF7F
:100A8000002002F093FF002002F090FF002002F00F
:100A90008DFF002002F08AFFE12002F097FF002086
:100AA00002F084FF152002F081FF172002F07EFF84
:100AB000072002F07BFF112002F078FF062002F0F1
:100AC00075FF2B2002F072FF562002F06FFF3C20D2
:100AD00002F06CFF052002F069FF102002F066FFB3
:100AE0000F2002F063FF3F2002F060FF3F2002F082
:100AF0005DFF0F2002F05AFF2B2002F067FF00205D
:100B000002F054FF002002F051FF012002F04EFFDE
:100B10003F2002F04BFF2A2002F058FF002002F095
:100B200045FF002002F042FF002002F03FFFEF20CF
:100B300002F03CFF112002F049FF7820FFF71AFD78
:100B4000292002F043FF80BD80B5FF2002F03EFF68
:100B5000FF2002F02BFF982002F028FF062002F071
:100B600025FFBC2002F032FF012002F01FFF0F2002
:100B700002F01CFF612002F019FFFF2002F016FFB7
:100B8000012002F013FF012002F010FF0B2002F001
:100B90000DFF102002F00AFF372002F007FF63204C
:100BA00002F004FFFF2002F001FFFF2002F0FEFE32
:100BB000012002F0FBFE012002F0F8FE002002F00E
:100BC000F5FE002002F0F2FEFF2002F0EFFE5220C0
:100BD00002F0ECFE012002F0E9FE002002F0E6FE49
:100BE000402002F0E3FEBD2002F0F0FE012002F002
:100BF000DDFE232002F0DAFE452002F0D7FE67205A
:100C000002F0D4FE012002F0D1FE232002F0CEFE3D
:100C1000452002F0CBFE672002F0C8FEBE2002F0A5
:100C2000D5FE002002F0C2FE012002F0BFFEAB2084
:100C300002F0BCFE602002F0B9FE222002F0B6FEF7
:100C4000222002F0B3FE222002F0B0FE222002F0A9
:100C5000ADFE222002F0AAFEC72002F0B7FE362029
:100C600002F0A4FEED2002F0B1FE7F2002F09EFE15
:100C70000F2002F09BFEC02002F0A8FE0F2002F021
:100C800095FE0B2002F092FE0A2002F08FFEFC205F
:100C900002F09CFE082002F089FEDF2002F096FEA2
:100CA000002002F083FE002002F080FE002002F00F
:100CB0007DFE002002F07AFE002002F077FE202068
:100CC00002F074FEF32002F081FE742002F06EFE4A
:100CD000B42002F07BFE002002F068FE002002F04B
:100CE00065FE002002F062FEF72002F06FFE822017
:100CF00002F05CFEB12002F069FE002002F056FE18
:100D0000132002F053FE132002F050FEF22002F0F6
:100D10005DFE802002F04AFE042002F047FE4020E3
:100D200002F044FE282002F041FEC12002F04EFEF7
:100D3000172002F03BFE882002F038FE882002F0E7
:100D400035FE202002F032FEE02002F03FFE0020BF
:100D500002F02CFE0A2002F029FE122002F026FEEC
:100D6000102002F023FE0E2002F020FE202002F0D0
:100D70001DFECC2002F01AFE072002F017FE06200E
:100D800002F014FE0B2002F011FE0E2002F00EFE07
:100D90000F2002F00BFE0D2002F008FE152002F0DD
:100DA00005FE102002F002FE002002F0FFFDE1200F
:100DB00002F00CFE002002F0F9FD0B2002F0F6FD1F
:100DC000132002F0F3FD0D2002F0F0FD0E2002F0E2
:100DD000EDFD1B2002F0EAFD712002F0E7FD062088
:100DE00002F0E4FD062002F0E1FD0A2002F0DEFD43
:100DF0000F2002F0DBFD0E2002F0D8FD0F2002F0E4
:100E0000D5FD152002F0D2FD0C2002F0CFFD002010
:100E100002F0CCFD2A2002F0D9FD002002F0C6FD30
:100E2000002002F0C3FD012002F0C0FDDF2002F02F
:100E3000BDFD2B2002F0CAFD002002F0B7FD00200E
:100E400002F0B4FD032002F0B1FD1F2002F0AEFD60
:100E50003A2002F0BBFD552002F0A8FD362002F03A
:100E6000B5FD002002F0A2FD112002F0AFFD7820B8
:100E7000FFF780FB292002F0A9FD1420FFF77AFB81
:100E80002C2002F0A3FD80BD80B5ED2002F09EFD78
:100E9000012002F08BFDFE2002F088FDEE2002F022
:100EA00095FDDE2002F082FD212002F07FFDF12081
:100EB00002F08CFD012002F079FDDF2002F086FDBA
:100EC000102002F073FDC42002F080FD8F2002F09C
:100ED0006DFDC62002F07AFD002002F067FDE220E1
:100EE00002F064FDE22002F061FDE22002F05EFD0E
:100EF000BF2002F06BFDAA2002F058FDB02002F0E6
:100F000065FD0D2002F052FD002002F04FFD0D2086
:100F100002F04CFD002002F049FD112002F046FDD8
:100F2000002002F043FD192002F040FD002002F0F5
:100F30003DFD212002F03AFD002002F037FD2D207A
:100F400002F034FD002002F031FD3D2002F02EFDC4
:100F5000002002F02BFD5D2002F028FD002002F0B1
:100F600025FD5D2002F022FD002002F01FFDB120D2
:100F700002F02CFD802002F019FD002002F016FD89
:100F80008B2002F013FD002002F010FD962002F0ED
:100F90000DFD002002F00AFDB22002F017FD002036
:100FA00002F004FD002002F001FD022002F0FEFC30
:100FB000002002F0FBFC032002F0F8FC002002F00D
:100FC000F5FCB32002F002FD002002F0EFFC00204F
:100FD00002F0ECFC002002F0E9FC002002F0E6FC4C
:100FE000002002F0E3FC002002F0E0FC002002F010
:100FF000DDFC002002F0DAFC002002F0D7FC00202B
:1010000002F0D4FC002002F0D1FC002002F0CEFC63
:10101000002002F0CBFC002002F0C8FC002002F00F
:10102000C5FC002002F0C2FC002002F0BFFC002042
:1010300002F0BCFC002002F0B9FC002002F0B6FC7B
:10104000002002F0B3FC002002F0B0FC002002F00F
:10105000ADFC002002F0AAFCB42002F0B7FC8B200B
:1010600002F0A4FC002002F0A1FC962002F09EFCFD
:10107000002002F09BFCA12002F098FC002002F06E
:1010800095FCB52002F0A2FC022002F08FFC0020AB
:1010900002F08CFC032002F089FC002002F086FCA8
:1010A000042002F083FC002002F080FCB62002F055
:1010B0008DFC002002F07AFC002002F077FCB720C3
:1010C00002F084FC002002F071FC002002F06EFCB3
:1010D0003F2002F06BFC002002F068FC5E2002F072
:1010E00065FC002002F062FC642002F05FFC00203E
:1010F00002F05CFC8C2002F059FC002002F056FC4F
:10110000AC2002F053FC002002F050FCDC2002F086
:101110004DFC002002F04AFC702002F047FC002049
:1011200002F044FC902002F041FC002002F03EFC62
:10113000EB2002F03BFC002002F038FCDC2002F047
:1011400035FC002002F032FCB82002F03FFC002009
:1011500002F02CFC002002F029FC002002F026FC0A
:10116000002002F023FC002002F020FC002002F00E
:101170001DFC002002F01AFC002002F017FCBA202F
:1011800002F024FC242002F011FC002002F00EFCEE
:10119000002002F00BFC002002F008FCC12002F04D
:1011A00015FC202002F002FC002002F0FFFB54207E
:1011B00002F0FCFB002002F0F9FBFF2002F0F6FB3E
:1011C000002002F0F3FBC22002F000FC0A2002F033
:1011D000EDFB002002F0EAFB042002F0E7FB002018
:1011E00002F0E4FBC32002F0F1FB3C2002F0DEFB46
:1011F000002002F0DBFB3A2002F0D8FB002002F0D6
:10120000D5FB392002F0D2FB002002F0CFFB3720C3
:1012100002F0CCFB002002F0C9FB3C2002F0C6FB30
:10122000002002F0C3FB362002F0C0FB002002F0D9
:10123000BDFB322002F0BAFB002002F0B7FB2F20EA
:1012400002F0B4FB002002F0B1FB2C2002F0AEFB58
:10125000002002F0ABFB292002F0A8FB002002F0E6
:10126000A5FB262002F0A2FB002002F09FFB242019
:1012700002F09CFB002002F099FB242002F096FB78
:10128000002002F093FB232002F090FB002002F0EC
:101290008DFB3C2002F08AFB002002F087FB362009
:1012A00002F084FB002002F081FB322002F07EFB82
:1012B000002002F07BFB2F2002F078FB002002F0E0
:1012C00075FB2C2002F072FB002002F06FFB29203E
:1012D00002F06CFB002002F069FB262002F066FBA6
:1012E000002002F063FB242002F060FB002002F0EB
:1012F0005DFB242002F05AFB002002F057FB232064
:1013000002F054FB002002F051FBC42002F05EFB0F
:10131000622002F04BFB002002F048FB052002F0A7
:1013200045FB002002F042FB842002F03FFB00203E
:1013300002F03CFBF02002F039FB002002F036FB0B
:10134000182002F033FB002002F030FBA42002F052
:101350002DFB002002F02AFB182002F027FB0020C2
:1013600002F024FB502002F021FB002002F01EFBC3
:101370000C2002F01BFB002002F018FB172002F0EB
:1013800015FB002002F012FB952002F00FFB00205D
:1013900002F00CFBF32002F009FB002002F006FB38
:1013A000E62002F003FB002002F000FBC52002F063
:1013B0000DFB322002F0FAFA002002F0F7FA442086
:1013C00002F0F4FA002002F0F1FA652002F0EEFAE1
:1013D000002002F0EBFA762002F0E8FA002002F09A
:1013E000E5FA882002F0E2FA002002F0DFFAC620D7
:1013F00002F0ECFA202002F0D9FA002002F0D6FA2E
:10140000172002F0D3FA002002F0D0FA012002F0F7
:10141000CDFA002002F0CAFAC72002F0D7FA002065
:1014200002F0C4FA002002F0C1FA002002F0BEFA75
:10143000002002F0BBFAC82002F0C8FA002002F037
:10144000B5FA002002F0B2FA002002F0AFFA002054
:1014500002F0ACFAC92002F0B9FA002002F0A6FAB4
:10146000002002F0A3FA002002F0A0FA002002F00F
:101470009DFA002002F09AFA002002F097FA00206C
:1014800002F094FA002002F091FA002002F08EFAA5
:10149000002002F08BFA002002F088FA002002F00F
:1014A00085FA002002F082FA002002F07FFA002084
:1014B00002F07CFA002002F079FAE02002F086FACD
:1014C000162002F073FA002002F070FA1C2002F0DD
:1014D0006DFA002002F06AFA212002F067FA00207B
:1014E00002F064FA362002F061FA002002F05EFA9F
:1014F000462002F05BFA002002F058FA522002F077
:1015000055FA002002F052FA642002F04FFA00204F
:1015100002F04CFA7A2002F049FA002002F046FA72
:101520008B2002F043FA002002F040FA992002F0EA
:101530003DFA002002F03AFAA82002F037FA002023
:1015400002F034FAB92002F031FA002002F02EFA4B
:10155000C42002F02BFA002002F028FACA2002F080
:1015600025FA002002F022FAD22002F01FFA002011
:1015700002F01CFAD92002F019FA002002F016FA43
:10158000E02002F013FA002002F010FAF32002F03B
:101590000DFA002002F00AFAE12002F017FA1620F4
:1015A00002F004FA002002F001FA1C2002F0FEF919
:1015B000002002F0FBF9222002F0F8F9002002F0EE
:1015C000F5F9362002F0F2F9002002F0EFF945209B
:1015D00002F0ECF9002002F0E9F9522002F0E6F9FD
:1015E000002002F0E3F9642002F0E0F9002002F0AC
:1015F000DDF97A2002F0DAF9002002F0D7F98B2029
:1016000002F0D4F9002002F0D1F9992002F0CEF9CD
:10161000002002F0CBF9A82002F0C8F9002002F067
:10162000C5F9B92002F0C2F9002002F0BFF9C420C8
:1016300002F0BCF9002002F0B9F9CA2002F0B6F9B4
:10164000002002F0B3F9D22002F0B0F9002002F03D
:10165000ADF9D82002F0AAF9002002F0A7F9E020A5
:1016600002F0A4F9002002F0A1F9F32002F09EF9A3
:10167000002002F09BF9E22002F0A8F9052002F018
:1016800095F9002002F092F90B2002F08FF900206A
:1016900002F08CF91B2002F089F9002002F086F993
:1016A000342002F083F9002002F080F9442002F097
:1016B0007DF9002002F07AF94F2002F077F900203E
:1016C00002F074F9612002F071F9002002F06EF965
:1016D000792002F06BF9002002F068F9882002F00E
:1016E00065F9002002F062F9972002F05FF900200E
:1016F00002F05CF9A62002F059F9002002F056F938
:10170000B72002F053F9002002F050F9C22002F095
:101710004DF9002002F04AF9C72002F047F90020F5
:1017200002F044F9D12002F041F9002002F03EF924
:10173000D62002F03BF9002002F038F9DD2002F05B
:1017400035F9002002F032F9F32002F02FF90020E1
:1017500002F02CF9E32002F039F9052002F026F915
:10176000002002F023F90A2002F020F9002002F004
:101770001DF91C2002F01AF9002002F017F933209D
:1017800002F014F9002002F011F9442002F00EF9E1
:10179000002002F00BF9502002F008F9002002F0BE
:1017A00005F9622002F002F9002002F0FFF878202B
:1017B00002F0FCF8002002F0F9F8882002F0F6F8B8
:1017C000002002F0F3F8972002F0F0F8002002F079
:1017D000EDF8A62002F0EAF8002002F0E7F8B720C2
:1017E00002F0E4F8002002F0E1F8C22002F0DEF896
:1017F000002002F0DBF8C72002F0D8F8002002F049
:10180000D5F8D12002F0D2F8002002F0CFF8D52090
:1018100002F0CCF8002002F0C9F8DD2002F0C6F892
:10182000002002F0C3F8F32002F0C0F8002002F01C
:10183000BDF8E42002F0CAF8012002F0B7F8002059
:1018400002F0B4F8012002F0B1F8002002F0AEF886
:10185000022002F0ABF8002002F0A8F82A2002F0E3
:10186000A5F8002002F0A2F83C2002F09FF800202A
:1018700002F09CF84B2002F099F8002002F096F854
:101880005D2002F093F8002002F090F8742002F03E
:101890008DF8002002F08AF8842002F087F80020FA
:1018A00002F084F8932002F081F8002002F07EF824
:1018B000A22002F07BF8002002F078F8B32002F0BA
:1018C00075F8002002F072F8BE2002F06FF80020D8
:1018D00002F06CF8C42002F069F8002002F066F80B
:1018E000CD2002F063F8002002F060F8D32002F06F
:1018F0005DF8002002F05AF8DD2002F057F80020D1
:1019000002F054F8F32002F051F8002002F04EF8F3
:10191000E52002F05BF8002002F048F8002002F019
:1019200045F8002002F042F8002002F03FF80220C3
:1019300002F03CF8002002F039F8292002F036F8D5
:10194000002002F033F83C2002F030F8002002F0D2
:101950002DF84B2002F02AF8002002F027F85D2035
:1019600002F024F8002002F021F8742002F01EF8A2
:10197000002002F01BF8842002F018F8002002F08A
:1019800015F8932002F012F8002002F00FF8A220C0
:1019900002F00CF8002002F009F8B32002F006F87B
:1019A000002002F003F8BE2002F000F8002001F051
:1019B000FDFFC42001F0FAFF002001F0F7FFCD2069
:1019C00001F0F4FF002001F0F1FFD32001F0EEFF61
:1019D000002001F0EBFFDC2001F0E8FF002001F027
:1019E000E5FFF32001F0E2FF002001F0DFFFE62039
:1019F00001F0ECFF112001F0D9FF002001F0D6FF2B
:101A0000342001F0D3FF002001F0D0FF562001F078
:101A1000CDFF002001F0CAFF762001F0C7FF0020B3
:101A200001F0C4FF772001F0C1FF002001F0BEFFEC
:101A3000662001F0BBFF002001F0B8FF882001F014
:101A4000B5FF002001F0B2FF992001F0AFFF0020A8
:101A500001F0ACFFBB2001F0A9FF002001F0A6FFC0
:101A6000992001F0A3FF002001F0A0FF662001F003
:101A70009DFF002001F09AFF552001F097FF002004
:101A800001F094FF552001F091FF002001F08EFF3E
:101A9000452001F08BFF002001F088FF432001F07A
:101AA00085FF002001F082FF442001F07FFF00202D
:101AB00001F07CFFE72001F089FF322001F076FF82
:101AC000002001F073FF552001F070FF002001F0AD
:101AD0006DFF762001F06AFF002001F067FF6620AD
:101AE00001F064FF002001F061FF672001F05EFF5C
:101AF000002001F05BFF672001F058FF002001F09B
:101B000055FF872001F052FF002001F04FFF992080
:101B100001F04CFF002001F049FFBB2001F046FF1F
:101B2000002001F043FF992001F040FF002001F068
:101B30003DFF772001F03AFF002001F037FF4420FD
:101B400001F034FF002001F031FF562001F02EFF9C
:101B5000002001F02BFF232001F028FF002001F0DE
:101B600025FF332001F022FF002001F01FFF452058
:101B700001F01CFF002001F019FFE82001F026FF12
:101B8000002001F013FF002001F010FF992001F068
:101B90000DFF002001F00AFF872001F007FF002061
:101BA00001F004FF882001F001FF002001F0FEFE9B
:101BB000772001F0FBFE002001F0F8FE662001F026
:101BC000F5FE002001F0F2FE882001F0EFFE00207B
:101BD00001F0ECFEAA2001F0E9FE002001F0E6FE93
:101BE000BB2001F0E3FE002001F0E0FE992001F0AF
:101BF000DDFE002001F0DAFE662001F0D7FE0020B5
:101C000001F0D4FE552001F0D1FE002001F0CEFEFF
:101C1000552001F0CBFE002001F0C8FE442001F069
:101C2000C5FE002001F0C2FE442001F0BFFE0020EE
:101C300001F0BCFE552001F0B9FE002001F0B6FE17
:101C4000E92001F0C3FEAA2001F0B0FE002001F05F
:101C5000ADFE002001F0AAFE002001F0A7FE00204A
:101C600001F0B4FEAA2001F0A1FECF2001F0AEFEEB
:101C7000002001F09BFE002001F098FE002001F002
:101C800095FE002001F092FE002001F08FFE002062
:101C900001F08CFE002001F089FE002001F086FE9C
:101CA000002001F083FE002001F080FE002001F002
:101CB0007DFE002001F07AFE002001F077FE00207A
:101CC00001F074FE002001F071FE002001F06EFEB4
:101CD000002001F06BFEF02001F078FE002001F002
:101CE00065FE502001F062FE002001F05FFE002042
:101CF00001F05CFE002001F059FEF32001F066FEC9
:101D0000002001F053FEF92001F060FE062001F0F2
:101D10004DFE102001F04AFE292001F047FE002070
:101D200001F044FE3A2001F051FE552001F03EFE44
:101D3000112001F04BFE6420FEF71CFC292001F06D
:101D400045FE352001F042FE002001F02FFE51201B
:101D500001F03CFEFF2001F029FE532001F036FE89
:101D60002C2001F023FE552001F030FE822001F0EE
:101D70001DFE2C2001F02AFE80BD000080B54FF42E
:101D80007040552101F03EFE4FF20100AA2101F002
:101D900039FE4FF20200522101F034FE4FF20300EF
:101DA000082101F02FFE4FF20400012101F02AFE6C
:101DB0004FF430400D2101F025FE4BF201000D21C2
:101DC00001F020FE4BF202000D2101F01BFE4FF44A
:101DD0003640342101F016FE4BF20160342101F04F
:101DE00011FE4BF20260342101F00CFE4FF4314041
:101DF0000D2101F007FE4BF201100D2101F002FE52
:101E00004BF202100D2101F0FDFD4FF4374034215B
:101E100001F0F8FD4BF20170342101F0F3FD4BF2BB
:101E20000270342101F0EEFD4FF43240002101F048
:101E3000E9FD4BF20120002101F0E4FD4BF202200C
:101E4000002101F0DFFD4FF43840242101F0DAFDDC
:101E50004BF60100242101F0D5FD4BF602002421B0
:101E600001F0D0FD4FF43F40012101F0CBFD4FF4D4
:101E700033400F2101F0C6FD4BF201300F2101F07C
:101E8000C1FD4BF202300F2101F0BCFD4FF439408F
:101E9000342101F0B7FD4BF60110342101F0B2FD01
:101EA0004BF60210342101F0ADFD4FF4354008210E
:101EB00001F0A8FD4BF20150082101F0A3FD4BF207
:101EC0000250082101F09EFD4FF44240032101F031
:101ED00099FD4FF43A40242101F094FD4BF6012086
:101EE000242101F08FFD4BF60220242101F08AFD10
:101EF0004FF43C40002101F085FD4BF60140782174
:101F000001F080FD4BF60240002101F07BFD4FF413
:101F10003D40002101F076FD4BF60150782101F0A3
:101F200071FD4BF60250002101F06CFD4FF43E4074
:101F3000002101F067FD4BF60160642101F062FDB4
:101F40004FF45140002101F05DFD4DF201103321AD
:101F500001F058FD4DF20210002101F053FD4DF249
:101F60000310342101F04EFD4DF20410002101F068
:101F700049FD4DF205103A2101F044FD4DF20610E5
:101F8000002101F03FFD4DF207104A2101F03AFD1A
:101F90004DF20810002101F035FD4DF209105C21D1
:101FA00001F030FD4DF20A10002101F02BFD4DF241
:101FB0000B10812101F026FD4DF20C10002101F0E3
:101FC00021FD4DF20D10A62101F01CFD4DF20E1069
:101FD000002101F017FD4DF20F10E52101F012FD77
:101FE0004DF21010012101F00DFD4DF211101321E1
:101FF00001F008FD4DF21210012101F003FD4DF238
:102000001310542101F0FEFC4DF21410012101F0D7
:10201000F9FC4DF21510822101F0F4FC4DF216107E
:10202000012101F0EFFC4DF21710CA2101F0EAFC8A
:102030004DF21810022101F0E5FC4DF219100021BB
:1020400001F0E0FC4DF21A10022101F0DBFC4DF230
:102050001B10012101F0D6FC4DF21C10022101F0F1
:10206000D1FC4DF21D10342101F0CCFC4DF21E10BC
:10207000022101F0C7FC4DF21F10672101F0C2FCE4
:102080004DF22010022101F0BDFC4DF221108421FF
:1020900001F0B8FC4DF22210022101F0B3FC4DF228
:1020A0002310A42101F0AEFC4DF22410022101F016
:1020B000A9FC4DF22510B72101F0A4FC4DF2261029
:1020C000022101F09FFC4DF22710CF2101F09AFC74
:1020D0004DF22810022101F095FC4DF22910DE216D
:1020E00001F090FC4DF22A10022101F08BFC4DF220
:1020F0002B10F22101F086FC4DF22C10022101F090
:1021000081FC4DF22D10FE2101F07CFC4DF22E10D1
:10211000032101F077FC4DF22F10102101F072FC29
:102120004DF23010032101F06DFC4DF231103321DE
:1021300001F068FC4DF23210032101F063FC4DF216
:1021400033106D2101F05EFC4FF45240002101F08C
:1021500059FC4DF20120332101F054FC4DF20220D4
:10216000002101F04FFC4DF20320342101F04AFC24
:102170004DF20420002101F045FC4DF205203A21EA
:1021800001F040FC4DF20620002101F03BFC4DF235
:1021900007204A2101F036FC4DF20820002101F011
:1021A00031FC4DF209205C2101F02CFC4DF20A209B
:1021B000002101F027FC4DF20B20812101F022FCCF
:1021C0004DF20C20002101F01DFC4DF20D20A62146
:1021D00001F018FC4DF20E20002101F013FC4DF22D
:1021E0000F20E52101F00EFC4DF21020012101F03D
:1021F00009FC4DF21120132101F004FC4DF21220D4
:10220000012101F0FFFB4DF21320542101F0FAFBF4
:102210004DF21420012101F0F5FB4DF21520822131
:1022200001F0F0FB4DF21620012101F0EBFB4DF225
:102230001720CA2101F0E6FB4DF21820022101F01F
:10224000E1FB4DF21920002101F0DCFB4DF21A20D8
:10225000022101F0D7FB4DF21B20012101F0D2FB3E
:102260004DF21C20022101F0CDFB4DF21D20342146
:1022700001F0C8FB4DF21E20022101F0C3FB4DF21C
:102280001F20672101F0BEFB4DF22020022101F04A
:10229000B9FB4DF22120842101F0B4FB4DF2222044
:1022A000022101F0AFFB4DF22320A42101F0AAFB93
:1022B0004DF22420022101F0A5FB4DF22520B7218B
:1022C00001F0A0FB4DF22620022101F09BFB4DF214
:1022D0002720CF2101F096FB4DF22820022101F0AA
:1022E00091FB4DF22920DE2101F08CFB4DF22A20DA
:1022F000022101F087FB4DF22B20F22101F082FB3D
:102300004DF22C20022101F07DFB4DF22D20FE210B
:1023100001F078FB4DF22E20032101F073FB4DF20A
:102320002F20102101F06EFB4DF23020032101F02F
:1023300069FB4DF23120332101F064FB4DF2322074
:10234000032101F05FFB4DF233206D2101F05AFBB8
:102350004FF45340002101F055FB4DF20130332181
:1023600001F050FB4DF20230002101F04BFB4DF229
:102370000330342101F046FB4DF20430002101F01E
:1023800041FB4DF205303A2101F03CFB4DF20630A5
:10239000002101F037FB4DF207304A2101F032FBFA
:1023A0004DF20830002101F02DFB4DF209305C2187
:1023B00001F028FB4DF20A30002101F023FB4DF221
:1023C0000B30812101F01EFB4DF20C30002101F099
:1023D00019FB4DF20D30A62101F014FB4DF20E3029
:1023E000002101F00FFB4DF20F30E52101F00AFB57
:1023F0004DF21030012101F005FB4DF21130132197
:1024000001F000FB4DF21230012101F0FBFA4DF218
:102410001330542101F0F6FA4DF21430012101F08D
:10242000F1FA4DF21530822101F0ECFA4DF216303E
:10243000012101F0E7FA4DF21730CA2101F0E2FA6A
:102440004DF21830022101F0DDFA4DF21930002171
:1024500001F0D8FA4DF21A30022101F0D3FA4DF210
:102460001B30012101F0CEFA4DF21C30022101F0A7
:10247000C9FA4DF21D30342101F0C4FA4DF21E307C
:10248000022101F0BFFA4DF21F30672101F0BAFAC4
:102490004DF22030022101F0B5FA4DF221308421B5
:1024A00001F0B0FA4DF22230022101F0ABFA4DF208
:1024B0002330A42101F0A6FA4DF22430022101F0CC
:1024C000A1FA4DF22530B72101F09CFA4DF22630E9
:1024D000022101F097FA4DF22730CF2101F092FA54
:1024E0004DF22830022101F08DFA4DF22930DE2123
:1024F00001F088FA4DF22A30022101F083FA4DF200
:102500002B30F22101F07EFA4DF22C30022101F045
:1025100079FA4DF22D30FE2101F074FA4DF22E3091
:10252000032101F06FFA4DF22F30102101F06AFA09
:102530004DF23030032101F065FA4DF23130332194
:1025400001F060FA4DF23230032101F05BFA4DF2F6
:1025500033306D2101F056FA4FF45440002101F060
:1025600051FA4DF20140332101F04CFA4DF2024094
:10257000002101F047FA4DF20340342101F042FA04
:102580004DF20440002101F03DFA4DF205403A21A0
:1025900001F038FA4DF20640002101F033FA4DF215
:1025A00007404A2101F02EFA4DF20840002101F0C7
:1025B00029FA4DF209405C2101F024FA4DF20A405B
:1025C000002101F01FFA4DF20B40812101F01AFAAF
:1025D0004DF20C40002101F015FA4DF20D40A621FC
:1025E00001F010FA4DF20E40002101F00BFA4DF20D
:1025F0000F40E52101F006FA4DF21040012101F0F3
:1026000001FA4DF21140132101F0FCF94DF2124094
:10261000012101F0F7F94DF21340542101F0F2F9D4
:102620004DF21440012101F0EDF94DF215408221E7
:1026300001F0E8F94DF21640012101F0E3F94DF205
:102640001740CA2101F0DEF94DF21840022101F0D5
:10265000D9F94DF21940002101F0D4F94DF21A4098
:10266000022101F0CFF94DF21B40012101F0CAF91E
:102670004DF21C40022101F0C5F94DF21D403421FC
:1026800001F0C0F94DF21E40022101F0BBF94DF2FC
:102690001F40672101F0B6F94DF22040022101F000
:1026A000B1F94DF22140842101F0ACF94DF2224004
:1026B000022101F0A7F94DF22340A42101F0A2F973
:1026C0004DF22440022101F09DF94DF22540B72141
:1026D00001F098F94DF22640022101F093F94DF2F4
:1026E0002740CF2101F08EF94DF22840022101F060
:1026F00089F94DF22940DE2101F084F94DF22A409A
:10270000022101F07FF94DF22B40F22101F07AF91C
:102710004DF22C40022101F075F94DF22D40FE21C1
:1027200001F070F94DF22E40032101F06BF94DF2EA
:102730002F40102101F066F94DF23040032101F0E5
:1027400061F94DF23140332101F05CF94DF2324034
:10275000032101F057F94DF233406D2101F052F998
:102760004FF45540002101F04DF94DF20150332155
:1027700001F048F94DF20250002101F043F94DF209
:102780000350342101F03EF94DF20450002101F0D4
:1027900039F94DF205503A2101F034F94DF2065065
:1027A000002101F02FF94DF207504A2101F02AF9DA
:1027B0004DF20850002101F025F94DF209505C213D
:1027C00001F020F94DF20A50002101F01BF94DF201
:1027D0000B50812101F016F94DF20C50002101F04F
:1027E00011F94DF20D50A62101F00CF94DF20E50E9
:1027F000002101F007F94DF20F50E52101F002F937
:102800004DF21050012101F0FDF84DF2115013214D
:1028100001F0F8F84DF21250012101F0F3F84DF2F9
:102820001350542101F0EEF84DF21450012101F043
:10283000E9F84DF21550822101F0E4F84DF21650FE
:10284000012101F0DFF84DF21750CA2101F0DAF84A
:102850004DF21850022101F0D5F84DF21950002127
:1028600001F0D0F84DF21A50022101F0CBF84DF2F0
:102870001B50012101F0C6F84DF21C50022101F05D
:10288000C1F84DF21D50342101F0BCF84DF21E503C
:10289000022101F0B7F84DF21F50672101F0B2F8A4
:1028A0004DF22050022101F0ADF84DF2215084216B
:1028B00001F0A8F84DF22250022101F0A3F84DF2E8
:1028C0002350A42101F09EF84DF22450022101F082
:1028D00099F84DF22550B72101F094F84DF22650A9
:1028E000022101F08FF84DF22750CF2101F08AF834
:1028F0004DF22850022101F085F84DF22950DE21D9
:1029000001F080F84DF22A50022101F07BF84DF2DF
:102910002B50F22101F076F84DF22C50022101F0FB
:1029200071F84DF22D50FE2101F06CF84DF22E5051
:10293000032101F067F84DF22F50102101F062F8E9
:102940004DF23050032101F05DF84DF2315033214A
:1029500001F058F84DF23250032101F053F84DF2D6
:1029600033506D2101F04EF84FF45640002101F034
:1029700049F84DF20160332101F044F84DF2026054
:10298000002101F03FF84DF20360342101F03AF8E4
:102990004DF20460002101F035F84DF205603A2156
:1029A00001F030F84DF20660002101F02BF84DF2F5
:1029B00007604A2101F026F84DF20860002101F07D
:1029C00021F84DF209605C2101F01CF84DF20A601B
:1029D000002101F017F84DF20B60812101F012F88F
:1029E0004DF20C60002101F00DF84DF20D60A621B2
:1029F00001F008F84DF20E60002101F003F84DF2ED
:102A00000F60E52100F0FEFF4DF21060012100F0A3
:102A1000F9FF4DF21160132100F0F4FF4DF2126046
:102A2000012100F0EFFF4DF21360542100F0EAFFA6
:102A30004DF21460012100F0E5FF4DF21560822196
:102A400000F0E0FF4DF21660012100F0DBFF4DF2D7
:102A50001760CA2100F0D6FF4DF21860022100F085
:102A6000D1FF4DF21960002100F0CCFF4DF21A6049
:102A7000022100F0C7FF4DF21B60012100F0C2FFF0
:102A80004DF21C60022100F0BDFF4DF21D603421AB
:102A900000F0B8FF4DF21E60022100F0B3FF4DF2CE
:102AA0001F60672100F0AEFF4DF22060022100F0B0
:102AB000A9FF4DF22160842100F0A4FF4DF22260B5
:102AC000022100F09FFF4DF22360A42100F09AFF45
:102AD0004DF22460022100F095FF4DF22560B721F0
:102AE00000F090FF4DF22660022100F08BFF4DF2C6
:102AF0002760CF2100F086FF4DF22860022100F010
:102B000081FF4DF22960DE2100F07CFF4DF22A604A
:102B1000022100F077FF4DF22B60F22100F072FFEE
:102B20004DF22C60022100F06DFF4DF22D60FE2170
:102B300000F068FF4DF22E60032100F063FF4DF2BC
:102B40002F60102100F05EFF4DF23060032100F095
:102B500059FF4DF23160332100F054FF4DF23260E5
:102B6000032100F04FFF4DF233606D2100F04AFF6A
:102B70004FF47040552100F045FF4FF20100AA21AB
:102B800000F040FF4FF20200522100F03BFF4FF2F5
:102B90000300082100F036FF4FF20400002100F08E
:102BA00031FF4FF43140CC2100F02CFF4BF20110EB
:102BB000002100F027FF4FF43640052100F022FFEE
:102BC0004FF43740702100F01DFF4BF2017070216F
:102BD00000F018FF4FF43840012100F013FF4BF6CE
:102BE0000100032100F00EFF4BF60200032100F06C
:102BF00009FF4BF60300032100F004FF4FF43C40B3
:102C0000022100F0FFFE4BF60140002100F0FAFE29
:102C10004BF60240002100F0F5FE4FF44940D02170
:102C200000F0F0FE4CF60110022100F0EBFE4CF635
:102C30000210502100F0E6FE4CF60310502100F087
:102C4000E1FE4CF60410502100F0DCFE4FF454502D
:102C5000002100F0D7FE4FF46850552100F0D2FE5D
:102C60004FF4885000F0B2FE7820FDF78BFC4FF453
:102C7000245000F0ABFE80BD80B5E22000F0A6FE3F
:102C80001D2000F093FE022000F090FE042000F0D2
:102C90008DFE6420FDF776FCE02000F097FE012019
:102CA00000F084FE0A20FDF765FCE02000F08EFEB7
:102CB000032000F07BFE0C20FDF75CFC012000F0FF
:102CC00085FE0A20FDF756FCE62000F07FFE2F204F
:102CD00000F06CFEFF2000F069FEFF2000F066FEB1
:102CE000B02000F073FE202000F060FE002000F015
:102CF0005DFE032000F05AFE40F21F3000F056FE49
:102D0000012000F053FE40F2DF1000F04FFE0020E3
:102D100000F04CFEB42000F059FE042000F046FE06
:102D200040F21F4000F042FE002000F03FFE2E2047
:102D300000F03CFE002000F039FE002000F036FEDE
:102D4000002000F033FE002000F030FEB62000F03E
:102D50003DFE022000F02AFE4FF4037000F026FE34
:102D6000002000F023FE172000F020FE152000F0C8
:102D70001DFE002000F01AFE002000F017FEF020DB
:102D800000F024FE032000F011FE292000F01EFEBA
:102D9000D02000F01BFE002000F008FEBE2000F056
:102DA00015FE052000F002FEFE2000F0FFFD0120D0
:102DB00000F0FCFD002000F0F9FD002000F0F6FD21
:102DC000002000F0F3FDB82000F000FE032000F02A
:102DD000EDFD012000F0EAFDBA2000F0F7FD012032
:102DE00000F0E4FD80BD000080B5112000F0EEFD94
:102DF0007820FDF7BFFB362000F0E8FD002000F052
:102E0000D5FD3A2000F0E2FD052000F0CFFDB22014
:102E100000F0DCFD0C2000F0C9FD0C2000F0C6FD28
:102E2000002000F0C3FD332000F0C0FD332000F08F
:102E3000BDFDB72000F0CAFD352000F0B7FDBB2076
:102E400000F0C4FD322000F0B1FDC02000F0BEFD56
:102E50000C2000F0ABFDC22000F0B8FD012000F016
:102E6000A5FDC32000F0B2FD102000F09FFDC4209E
:102E700000F0ACFD202000F099FDC62000F0A6FD7A
:102E80000F2000F093FDD02000F0A0FDA42000F062
:102E90008DFDA12000F08AFDE02000F097FDD020FC
:102EA00000F084FD002000F081FD022000F07EFD96
:102EB000072000F07BFD0A2000F078FD282000F0BC
:102EC00075FD322000F072FD442000F06FFD4220BD
:102ED00000F06CFD062000F069FD0E2000F066FD9C
:102EE000122000F063FD142000F060FD172000F0B8
:102EF0005DFDE12000F06AFDD02000F057FD0020CC
:102F000000F054FD022000F051FD072000F04EFDBE
:102F10000A2000F04BFD282000F048FD312000F091
:102F200045FD542000F042FD472000F03FFD0E20FB
:102F300000F03CFD1C2000F039FD172000F036FDAC
:102F40001B2000F033FD1E2000F030FD2A2000F091
:102F50003DFD002000F02AFD002000F027FD0020AC
:102F600000F024FDEF2000F021FD2B2000F02EFDCD
:102F7000002000F01BFD002000F018FD012000F0F3
:102F800015FD3F2000F012FD292000F01FFD80BD3F
:102F900080B5112000F01AFD7820FDF7EBFA3620FD
:102FA00000F014FD482000F001FD3A2000F00EFD75
:102FB000552000F0FBFCF02000F008FDC32000F0DD
:102FC000F5FCF02000F002FD962000F0EFFCB420AC
:102FD00000F0FCFC012000F0E9FCB62000F0F6FC5B
:102FE0000A2000F0E3FCA22000F0E0FCB72000F093
:102FF000EDFCC62000F0DAFCB92000F0E7FC02206E
:1030000000F0D4FCE02000F0D1FCC02000F0DEFC99
:10301000802000F0CBFC162000F0C8FCC12000F09E
:10302000D5FC192000F0C2FCC22000F0CFFCA72084
:1030300000F0BCFCC52000F0C9FC162000F0B6FC76
:10304000E82000F0C3FC402000F0B0FC8A2000F033
:10305000ADFC002000F0AAFC002000F0A7FC292015
:1030600000F0A4FC192000F0A1FCA52000F09EFCBB
:10307000332000F09BFCE02000F0A8FCF02000F0E2
:1030800095FC072000F092FC0D2000F08FFC04203E
:1030900000F08CFC052000F089FC142000F086FC78
:1030A000362000F083FC542000F080FC4C2000F01F
:1030B0007DFC382000F07AFC132000F077FC14200F
:1030C00000F074FC2E2000F071FC342000F06EFC47
:1030D000E12000F07BFCF02000F068FC102000F004
:1030E00065FC142000F062FC0E2000F05FFC0C2058
:1030F00000F05CFC082000F059FC352000F056FC84
:10310000442000F053FC4C2000F050FC262000F03E
:103110004DFC102000F04AFC122000F047FC2C204F
:1031200000F044FC322000F041FCF02000F04EFCA6
:103130003C2000F03BFCF02000F048FC692000F04F
:1031400035FC7820FDF716FA212000F03FFC2920FD
:1031500000F03CFC80BD00002DE9F047994288BF9B
:10316000BDE8F0878146101A089F013040F600063E
:1031700098460D464FEA004AC6F6004684B203E080
:103180000135A8B240450FD8A9B2484600F0BAFAB6
:1031900000F02CFCBAF1000FF2D00020013081B217
:1031A000A1423780FAD3EBE7BDE8F0872DE9F04381
:1031B00083B041F21800C4F20200016841F20045F8
:1031C00041F4807101600168C4F2010541F0200101
:1031D0000160016805F5406441F02001016001686B
:1031E000012741F4807101600168032641F0080164
:1031F00001600168022241F06001016050F8041C86
:10320000002341F4807140F8041C20464FF48051A3
:103210004FF68078CDE900674FF0000900F002FF1B
:1032200028462021022200230096019700F0FAFE92
:1032300028461021022200230096019700F0F2FE9A
:1032400020460121022200230096019700F0EAFEA9
:10325000A5F5006420460121012200230096019774
:1032600000F0E0FE28464CF2037102220023009693
:10327000019700F0D7FE05F580604FF680710222BD
:1032800000230096019700F0CDFE1820CAF200003E
:10329000C0F80090C0F80490C0F80491016841F4AF
:1032A00080510160016841F480410160016841F092
:1032B000100101604168416041684160416841F42A
:1032C00070614160D0F80411C0F80411D0F8041105
:1032D000C0F80411D0F8041141F48071C0F8041151
:1032E000016841F001010160016841F000410160A5
:1032F000D32000F06BFB00F017F940F6CA05C2F2CC
:103300000005A88000F010F9A88000F00DF9000277
:10331000A88000F009F9A98849F24132084381B236
:103320009142A88000F0AA80042000F04FFB00F03A
:10333000FBF8A88000F0F8F8A88000F0F5F800028B
:10334000A88000F0F1F8A988084348F25251884259
:1033500047F2897108BF47F289708842A88000F05F
:103360008D80D42000F032FB00F0DEF8A88000F061
:10337000DBF8A88000F0D8F80002A88000F0D4F8AC
:10338000A98845F21032084381B29142A88075D0D5
:10339000D32000F01BFB00F0C7F8A88000F0C4F8B1
:1033A000A88000F0C1F80002A88000F0BDF8A9884C
:1033B00047F29672084381B29142A8805ED04FF4E2
:1033C0007040552100F01EFB4FF20100AA2100F0D1
:1033D00019FB4FF20200522100F014FB4FF20300E0
:1033E000082100F00FFB4FF20400012100F00AFB5E
:1033F0004FF4454000F0EAFA00F096F80002A88089
:103400004CF2015000F0E2FA00F08EF8A98808436F
:10341000A8800520FDF7AEF8A88845F21051884233
:103420002CD0D32000F0D2FA00F07EF8A88000F073
:103430007BF8A88000F078F80002A88000F074F80B
:10344000A98849F60602084381B29142A88015D0A6
:10345000A12000F0BBFA00F067F8A88000F064F843
:103460000002A88000F060F8A98845F26172084364
:1034700081B2914208BF41F66310A880A98827A0B5
:10348000FCF7CAFEA88847F2887188420EDD49F22F
:103490004031884219DC47F28971884220D047F2D6
:1034A000967188422AD1FFF773FD27E041F6631138
:1034B000884218D045F2103188421DD045F2105193
:1034C00088421BD1FEF75AFC18E049F2413188428C
:1034D0000FD049F60601884210D1FDF735FB0DE00B
:1034E000FFF782FC0AE0FFF7C7FB642000F03AFA1E
:1034F00004E0FDF713FA01E0FDF7C6FC0020FDF73C
:103500007BF920460121012200F084FD08F17F00B3
:1035100080B2FDF755F903B0BDE8F0834C43442079
:1035200049443A25780D0A0081B040F60000C6F6FD
:1035300000400088ADF80200BDF8020001B07047FD
:10354000B0B540F6CA05C2F20005AC7941F6631386
:10355000621E18BF0122A988B4FA84F4CB1AB3FA08
:1035600083F35B0964091C420CD11A430AD0013869
:10357000062811D8DFE800F004121416181A1C00EF
:10358000802416E00728F2D8DFE800F004ADAFB1E0
:10359000B3B5B7B90620EAE700240AE0402408E002
:1035A000C02406E0202404E0602402E0A02400E01F
:1035B000E02445F210523620914247F2897208BF4A
:1035C0004FF4585091420AD049F24132914206D00C
:1035D00047F29672914208BF44F0080401E044F0BB
:1035E0000804214600F00EFAA88841F663118842CB
:1035F0004DD029886A88A30672D4914201D92A80C5
:10360000698045F21051884241D1688900F0DEF9A5
:10361000002000F0CBF96889013080B200F0D6F9C3
:10362000002000F0C3F96889023080B200F0CEF9C2
:1036300028880138C0F30F2000F0B8F968890330FA
:1036400080B200F0C3F928880138C0B200F0AEF9AA
:10365000A88900F0BBF9002000F0A8F9A889013082
:1036600080B200F0B3F9002000F0A0F9A889023080
:1036700080B200F0ABF968880138C0F30F2000F089
:1036800095F9A889033080B200F0A0F922E068899A
:1036900000F09CF9002000F089F9002000F086F984
:1036A00028880138C0F30F2000F080F928880138FD
:1036B000C0B200F07BF9A88900F088F9002000F082
:1036C00075F9002000F072F968880138C0F30F2006
:1036D00000F06CF968880138C0B200F067F9B0BD3D
:1036E00091428CD38DE7072041E704203FE7052076
:1036F0003DE701203BE7002039E7032037E70220C0
:1037000035E70000F0B581B040F6CA06C2F2000607
:103710000C46B18845F210529142054618D041F648
:10372000631081422ED1B079E0B3708900F04EF978
:10373000280A00F03BF9E8B200F038F93088013887
:10374000C0F30F2000F032F9308800F1FF0539E0B6
:10375000708900F03BF9280A00F028F970890130DF
:1037600080B200F033F9E8B200F020F9B08900F03F
:103770002DF9200A00F01AF9B089013080B200F06A
:1037800025F934E0708900F021F9280A00F00EF9DB
:10379000E8B200F00BF9B08900F018F9200A00F047
:1037A00005F924E03088E94345187089AFB200F08C
:1037B0000DF9002000F0FAF8002000F0F7F8380AC0
:1037C00000F0F4F8E8B200F0F1F8B08900F0FEF88B
:1037D000200A00F0EBF8E0B200F0E8F87088013859
:1037E000C0F30F2000F0E2F8708800F1FF04E0B2AF
:1037F00000F0DCF801B0F0BD2DE9F04F83B01C46BD
:103800008A46D9080123670718BF03EBD401A4F146
:103810000C034FEAB303052B69D80646A2F120003A
:10382000DFE803F0030D6515651FC0B244F238529E
:1038300000EB4000C0F6000202EB800018E044F606
:10384000AC12C0B2C0F6000202EB001010E0C0B231
:1038500044F69C7200EBC000C0F6000202EB800050
:1038600006E045F6F842C0B2C0F6000202EB801056
:10387000029060084843010639D040F6CA08C0B239
:103880000027C2F200085546019002984FF0000B45
:1038900010F807904FFA89F00D9A002806D40C987A
:1038A00040B940F20400C2F200000268B0B2A9B20E
:1038B000FDF728F80135B8F80210A8B2884216D2F0
:1038C000A0EB0A00A04207D0BBF1060F0BF1010BE1
:1038D0004FEA4909DED906E00136B8F80000B1B276
:1038E0008142554603D2019801378742CDD103B0BA
:1038F000BDE8F08F2DE9F04F83B00D9E0C46377870
:10390000A7F12001C9B25E2929D8DDF830C081466F
:10391000104419194FEA5C0A01361FFA80FB1FFA9E
:1039200081F84D46A8B2584528BF6444A1B228BFCB
:103930005FFA89F5414512D20020FAB20E9F00903D
:10394000A8B2634601976746FFF756FFBC4616F8D4
:10395000017B5544A7F12000C0B25F28E2D303B039
:10396000BDE8F08F10B50446BE2000F02FF805200A
:1039700000F01CF8204600F0BAFC46F26663C4F280
:1039800004034FF0663200F0C5FC00F081FC00F04B
:103990000DF8012000F00AF8FF2000F007F80020E1
:1039A00000F004F8002000F001F810BD81B0ADF87F
:1039B0000200BDF8020040F60001ADF80200BDF8BB
:1039C0000200C6F60041088001B0704781B0ADF832
:1039D0000200BDF8020040F2FE71ADF80200BDF831
:1039E0000200C6F60041088001B0704740F6CA00E8
:1039F000C2F20000008940F2FE71C6F60041088064
:103A00007047000040F2FE72C6F6004210805180FE
:103A10007047000070B582B041F21800C4F2020095
:103A2000016840F6004441F0080101600168C4F2F9
:103A3000010441F0400101600126204620210122BD
:103A400000230096019600F0EDFA04F54065284643
:103A50002021012200230096019600F0E3FA20467F
:103A60002021012200F0D6FA28462021012200F070
:103A7000D1FA02B070BD000084B0092000F07CFBD8
:103A80004820FCF761FD48204FF4E13100F0A4FB31
:103A9000FFF7C0FFFFF78AFBFCF7EAFDABA04FF092
:103AA000100A4FF47844CDE900A01E203221C8222C
:103AB00010230294FFF71EFFA6A0CDE900A01E2050
:103AC0004621C82210230294FFF714FFA4A0CDE9D9
:103AD00000A01E205A21C82210230294FFF70AFFDB
:103AE000A3A0CDE900A01E206E21C82210230294BD
:103AF000FFF700FFA4A0CDE900A01E208221C8226C
:103B000010230294FFF7F6FEA4A0CDE901041E20C5
:103B10009621C8221023CDF800A0FFF7EBFE40F657
:103B2000C00B4FF00009C2F2000B4FF01F08002736
:103B3000002615E047F2FC40C0F60000FCF714FC3C
:103B400047F27C50C0F6000001901E20BE21C82222
:103B50001023CDF800A0CDF80880FFF7CBFE072694
:103B6000DBF800507DB1A9450CD14FF0000990A0C1
:103B7000CBF80090FCF7F8FB92A02946FCF74CFB31
:103B80002F4600E0A94601340A20E5B2FCF7F2FC1A
:103B90001E2D19D140F60C42C4F201021068310604
:103BA00080F0200010600DD0013E300608D11E20AC
:103BB000D221F022E2234FF6FF750095FFF7CCFAF1
:103BC000002401E0002400260020FCF791FD0546BA
:103BD00004283DD1002F6FD07FA0FCF7C5FB47F232
:103BE0009650C0F6000001901E20BE21C82210236E
:103BF000CDF800A0CDF80880FFF77CFE41F204006C
:103C0000C2F20000006800F07F40B0F1006F69D19F
:103C100049F2000041F20001C0F60000C2F20001CA
:103C20003A46FCF7EDFC47F26750C0F60000019001
:103C30001E20BE21C8221023CDF800A0CDF8088098
:103C4000FFF758FE47F2ED40C0F600005DE000BF10
:103C5000022D5FD149F20006C0F60006706800F040
:103C60007F40B0F1006F0DD147F2B840C0F60000C0
:103C7000FCF77AFB0A20FCF77DFC3046FCF7AAFC37
:103C800015E000BF47F23D50C0F60000FCF76CFBAA
:103C900047F28E50C0F6000001901E20BE21C822BF
:103CA0001023CDF800A0CDF80880FFF723FE0726EB
:103CB000012D7FF455AF30E047F22850C0F60000E8
:103CC000FCF752FB47F28E50C0F6000001901E2018
:103CD000BE21C8221023CDF800A0CDF80880FFF740
:103CE00009FE14E047F25250C0F6000001901E2079
:103CF000BE21C8221023CDF800A0CDF80880FFF720
:103D0000F9FD47F21650C0F60000FCF72DFB072620
:103D1000022D9FD0012D7FF423AF47F2D340C0F690
:103D20000000FCF721FB0A20FCF724FC41F204010F
:103D3000C2F20001086800F07F40B0F1005F7FF43C
:103D4000F9AE081FFCF746FC072609E753544D332C
:103D500032000000494150205445535400000000F7
:103D600041544F4D40414C49454E54454B00000095
:103D70004B45595F55503A20436F70792041505060
:103D800032464C41534821004B4559313A20527537
:103D90006E20464C41534820415050004B4559300D
:103DA0003A2052756E205352414D20415050000030
:103DB000D3C3BBA7B3CCD0F2BDD3CAD5CDEAB3C968
:103DC000210D0000B4FAC2EBB3A4B6C83A25644290
:103DD000797465730D0A0000BFAACABCB8FCD0C2D2
:103DE000B9CCBCFE2E2E2E0D00000000B0B504464E
:103DF00000F04CF800B1B0BD42F21005C4F202056B
:103E000029684FF0006000EBC42041F002012960F6
:103E10006860286840F04000286000F037F801280A
:103E200008BFB0BD296821F002012960B0BD0000C3
:103E300042F20C00C4F202000068C1071CBF01205E
:103E4000704741074FBF0220C006032101EAE0701E
:103E50007047000042F21000C4F20200016841F015
:103E600080010160704700000088704742F2040042
:103E700040F22311C4F20200C4F26751016048F617
:103E8000AB11CCF6EF5101607047000010B54FF652
:103E9000FF74C0F25F0400BFFFF7CAFF012802D120
:103EA000013CF9D10024002C08BFFF2010BD000008
:103EB0002DE9F041B0F1006F36D304460020C0F682
:103EC0000800844230D814F0010018BFBDE8F0812A
:103ED00016460D46FFF7CAFF04EB4607A74212D964
:103EE0004FF6FF78264602E00436BE420BD230463B
:103EF000FFF7BAFF4045F7D0C6F3CF20FFF776FFB4
:103F00000028F2D000E0002060B9A7420AD900BF23
:103F10002988204600F00AF820B90234BC4205F195
:103F20000205F5D3FFF796FFBDE8F08170B50C46AA
:103F30000546FFF7ABFF00B170BD42F21006C4F2B8
:103F40000206306840F0010030602C80FFF79EFFD1
:103F5000012808BF70BD316821F00101316070BDDA
:103F600041F20401C4F2020151F8042C42F48032FF
:103F700041F8042C002204E001324FF6F0739A421B
:103F800009D000BF51F8043CB2F5004FF4D913F446
:103F90000033F1D001E04FF6F0724FF6EF739A4222
:103FA00084BF012070474FF480620A600022CFF680
:103FB000F8720B6802EB8040184308600868102212
:103FC00040F48030086042F20000C4F20200026057
:103FD000026842F00202026051F8040C40F0807066
:103FE00041F8040C51F8040CB0F1007FFAD30868D2
:103FF00040F00200086000BF086800F00C000828CC
:10400000FAD10020704700008068084018BF0120E6
:1040100070470000D207026908BF0904114301611B
:10402000704700002DE9F04F81B0DDE90A4703F049
:10403000010304F0030444EA8303A2F1010E07F034
:10404000010743EAC20A00254FF0010B0024009744
:1040500018E000BF2B460646082C24BF203B043640
:10406000D6F800C00F2707FA03F82CEA08073760D4
:10407000376809FA03F33B4333600134102C05F130
:10408000040529D00BFA04F30B42F6D0002A174698
:104090004FF0000618BF0127BEF1020F38BF0126FE
:1040A00046EA07064FF0000938BFAAF10809002EBA
:1040B00008BF4FF00409CDD10B9F002FCAD0C668AE
:1040C0004FF0080926EA0303C360C368009F07FA9C
:1040D00004F63343C360BDE701B0BDE8F08F0000D4
:1040E00080F3088870470000F0B581B00746184695
:1040F0001C4615460E4600F021F80F21C4F10400BD
:10410000E14007FA00F031401C274EF2001607EAA2
:10411000D507CEF2000605F01F020123BC5903FAB1
:1041200002F22243BA5145EA060292F800330843EC
:1041300043EA001082F8000301B0F0BD072121EA34
:1041400000004EF60C51CEF200010A684FF6FF0354
:104150001A4042EA002040F0806040F0FD700860A4
:104160007047000040F2FF12914308434EF6085199
:10417000CEF200010860704780B541F20001C4F240
:104180000201002214230A61CA604B618A61CA617C
:104190000A68002342F001020A604A68CFF6FF0372
:1041A0001A404A600A684FF6FF73CFF6F6631A406A
:1041B0000A600A6822F480220A604A6822F4FE0239
:1041C0004A604FF41F028A60FFF7CAFE4FF000609A
:1041D0000021FFF7C7FF80BD2DE9F04383B041F216
:1041E0001802C4F2020213680C4643F00403136081
:1041F000136840F6000643F004011160116805469B
:1042000041F48040C4F2010610604FF0010803271A
:1042100030464FF4007102220023CDE900784FF0C0
:104220000009FFF7FFFE30464FF4806100220023B3
:104230000097CDF80480FFF7F5FE43F60950684378
:10424000610801EB8010B0FBF4F043F60C04C4F2FB
:10425000010444F8040CC4F8009020680321206095
:104260002068252240F0080020602068022340F0EA
:1042700004002060206840F0200020600320FFF749
:1042800033FF206840F40050206003B0BDE8F083A5
:104290004FEA41034FEA5353A3F58063D3F11E0362
:1042A000C8BFD3F1210C0CDD4FF0004242EAC1221D
:1042B00042EA505232FA03FC8CEAE17CACEBE1704A
:1042C0007047102BC4BF0020704703F5787CBCF109
:1042D000FF3F04D06FF0004282EA2100704770B5C2
:1042E00000F0C2F84992248000207047F2E7B0FA4B
:1042F00080F310FA03F10AD0C3F11D0303F58063C4
:104300004FEA03524FEA415002EBD12170474FF080
:104310000000704770B5DFF848C11CEA111E1EBFCF
:104320001CEA13159EEA0C0F95EA0C0F00F06F8043
:1043300081EA03044EEAD47EAE4421EA4C1123EA1A
:104340004C1341F4801143F48013AEF17F7EA1FB46
:10435000024CA0FB0365361955EB0C05A1FB034C81
:104360004CF10003A0FB021C16EB0C06654153F157
:104370000003094218BF46F0010613F4007F0BD179
:104380004FEA03314FEA053041EA155140EA165031
:1043900034036FF003020AE04FEAC3214FEAC5205D
:1043A00041EA555140EA5650F4026FF0020202EB26
:1043B0002E4201EB025585EACE710AD05FEA440C29
:1043C00018BF24F0004450F1000041F1000120EA40
:1043D000D47040F2FE7C624500D270BDA84214BF8A
:1043E0004FF080444FF04044002E08BF0024BEF13F
:1043F000806FA8BFA1F1C041BDE8704080F282800B
:1044000001F1C04101F000414FF0000070470CEA9B
:1044100013159EEA0C0F18BF95EA0C0F06D081EA1F
:10442000030E4FF000000EF0004170BD00F01CF8CC
:104430008900013E00F007B800F009B84FEA430CCC
:104440005FEA5C5C08D081EA030100F05BB84FEAE8
:10445000410C5FEA5C5CF6D102494FF00000704706
:104460000000FF070000F87F0EF1020E2EF0030E91
:104470005EF8046B364205D4012A43EB030515F5BB
:10448000001F12D8012841EB010C1CF5001F0CD8AD
:104490000ED14FEAD17C0CEB4C0C0CF1020C15F553
:1044A000001F08BF4CEBD37C04E04FF0080C01E088
:1044B0004FEAD37C0CEB4C0526FA05F606F007060E
:1044C000B6F1040C06D20EEB860CBDE870404CF041
:1044D000010C6047DFE80CF0090B02024FF00041CD
:1044E000A1F500214FF0000070BD194610460128CB
:1044F00051EB010418BFD4F5001484BF002001F073
:10450000004170BD0808A0F500114FEA3101704765
:1045100030313233343536373839414243444546F9
:1045200040305800303132333435363738396162F3
:104530006364656640307800000000000000000001
:1045400000000000000000003F40000000000000EC
:1045500000003000400030004000000009000BC0A7
:104560003D000BC03D00090018C024407FE0224000
:1045700031800000180024C01B000D8032400180F3
:1045800003801C4027401C80074000401000600052
:1045900000000000000000000000000000001F807C
:1045A000204040200000402020401F8000000000EC
:1045B000090006001F800600090000000400040036
:1045C0003F800400040000000010006000000000B4
:1045D00000000000040004000400040004000000C7
:1045E000000000400000000000000000002001C0AA
:1045F00006003800400000001F802040204020407E
:104600001F800000000010403FC00040000000007C
:1046100018C0214022402440184000001080204053
:10462000244024401B80000002000D0011003FC008
:10463000014000003C8024402440244023800000AE
:104640001F802440244034400380000030002000BC
:1046500027C03800200000001B8024402440244054
:104660001B8000001C0022C0224022401F8000004E
:1046700000000000084000000000000000000000F2
:104680000460000000000000000004000A001100A7
:1046900020804040090009000900090009000000CD
:1046A00000004040208011000A0004001800200093
:1046B00023402400180000001F802040274029408C
:1046C0001F400000004007C039000F0001C000403B
:1046D00020403FC0244024401B8000001F80204019
:1046E000204020403080000020403FC0204020403B
:1046F0001F80000020403FC024402E4030C00000FA
:1047000020403FC024402E00300000000F001080E9
:10471000204022403380020020403FC004000400BB
:104720003FC02040204020403FC0204020400000AB
:104730000060202020203FC02000200020403FC0FB
:1047400024400B0030C0204020403FC020400040AB
:10475000004000C03FC03C0003C03C003FC0000020
:1047600020403FC00C4023003FC020001F8020405D
:10477000204020401F80000020403FC024402400F3
:10478000180000001F802140214020E01FA00000F1
:1047900020403FC02440260019C0004018C02440DB
:1047A0002440224031800000300020403FC02040A3
:1047B0003000000020003F80004000403F8020008B
:1047C00020003E0001C0070038002000380007C06C
:1047D0003C0007C038000000204039C0060039C046
:1047E000204000002000384007C038402000000072
:1047F000304021C02640384020C0000000000000AA
:104800007FE0402040200000000070000C0003808A
:10481000004000000000402040207FE00000000039
:1048200000002000400020000000000000100010E8
:1048300000100010001000100000000040000000F8
:1048400000000000000002800540054003C0004059
:1048500020003FC0044004400380000000000380AB
:10486000044004400640000000000380044024404F
:104870003FC00040000003800540054003400000A9
:10488000000004401FC0244024402000000002E03B
:10489000055005500650042020403FC0044004004D
:1048A00003C000400000044027C00040000000009A
:1048B00000100010041027E00000000020403FC05E
:1048C0000140070004C00440204020403FC0004099
:1048D0000040000007C0040007C0040003C000003F
:1048E000044007C00440040003C0004000000380EF
:1048F0000440044003800000041007F0045004400A
:1049000003800000000003800440045007F0001002
:10491000044007C0024004000400000000000640FC
:104920000540054004C00000000004001F80044052
:1049300000400000040007800040044007C0004021
:104940000400070004C0018006000400060001C046
:10495000070001C006000000044006C0010006C0B8
:10496000044000000410071004E001800600040069
:104970000000044005C006400440000000000000A4
:1049800004007BE040200000000000000000FFF079
:1049900000000000000040207BE004000000000058
:1049A0004000800040002000200040000000000087
:1049B00000000000000000000000000000000000F7
:1049C00000001FCC000C00000000000000000800E8
:1049D000300060000800300060000000022003FC8E
:1049E0001E20022003FC1E200220000000000E18E2
:1049F00011043FFF10840C78000000000F001084A9
:104A00000F3800C0077818840078000000780F8401
:104A100010C411240E9800E4008400080800680007
:104A20007000000000000000000000000000000016
:104A3000000007E0181820044002000000004002B7
:104A40002004181807E000000000000002400240A7
:104A500001800FF0018002400240000000800080D1
:104A600000800FF800800080008000000001000D31
:104A7000000E0000000000000000000000000080A8
:104A80000080008000800080008000800000000C1A
:104A9000000C000000000000000000000000000604
:104AA000001800600180060018002000000007F0D8
:104AB000080810041004080807F0000000000804AB
:104AC00008041FFC000400040000000000000E0C9D
:104AD00010141024104411840E0C000000000C1857
:104AE00010041104110412880C700000000000E092
:104AF0000320042408241FFC0024000000001F9849
:104B0000108411041104108810700000000007F0D8
:104B100008881104110418880070000000001C00AF
:104B2000100010FC13001C001000000000000E38E4
:104B300011441084108411440E3800000000070056
:104B4000088C10441044088807F0000000000000A2
:104B50000000030C030C0000000000000000000037
:104B600000010106000000000000000000000080BD
:104B70000140022004100808100400000220022056
:104B80000220022002200220022000000000100467
:104B900008080410022001400080000000000E0000
:104BA0001200100C106C10800F00000003E00C18B5
:104BB00013E4142417C4082807D000000004003CA4
:104BC00003C41C40074000E4001C000410041FFC48
:104BD0001104110411040E880070000003E00C1889
:104BE00010041004100410081C10000010041FFC16
:104BF000100410041004080807F0000010041FFC43
:104C00001104110417C410040818000010041FFC3C
:104C10001104110017C010000800000003E00C1878
:104C20001004100410441C780040000010041FFC05
:104C300010840080008010841FFC10040000100409
:104C400010041FFC10041004000000000003000109
:104C5000100110011FFE10001000000010041FFCC6
:104C6000110403801464181C1004000010041FFCBD
:104C70001004000400040004000C000010041FFCD9
:104C80001F0000FC1F001FFC1004000010041FFC8C
:104C90000C04030000E010181FFC100007F00808C7
:104CA000100410041004080807F0000010041FFC92
:104CB00010841080108010800F00000007F008188A
:104CC00010241024101C080A07F2000010041FFC16
:104CD0001104110011C011300E0C000400000E1C54
:104CE00011041084108410441C38000018001000B7
:104CF00010041FFC100410001800000010001FF822
:104D000010040004000410041FF8100010001E001E
:104D100011E0001C007013801C0010001FC0103C2C
:104D200000E01F0000E0103C1FC000001004180C41
:104D3000163401C001C01634180C100410001C00F9
:104D4000130400FC13041C00100000000804101CD5
:104D50001064108413041C041018000000000000EC
:104D600000007FFE400240024002000000003000D0
:104D70000C0003800060001C0003000000004002E3
:104D8000400240027FFE0000000000000000000022
:104D90002000400040004000200000000001000111
:104DA00000010001000100010001000100004000BD
:104DB00040002000000000000000000000000098FB
:104DC000012401440144014400FC000410001FFCC4
:104DD00000880104010400880070000000000070D9
:104DE0000088010401040104008800000000007034
:104DF00000880104010411081FFC0004000000F8F1
:104E0000014401440144014400C8000000000104C1
:104E100001040FFC1104110411001800000000D659
:104E200001290129012901C90106000010041FFC04
:104E3000008401000100010400FC000400000104E2
:104E4000190419FC00040004000000000000000325
:104E500000010101190119FE0000000010041FFCEF
:104E60000024004001B4010C010400000000100403
:104E700010041FFC0004000400000000010401FCF9
:104E80000104010001FC0104010000FC010401FC1B
:104E9000008401000100010400FC0004000000F88F
:104EA000010401040104010400F80000010101FFF4
:104EB00000850104010400880070000000000070FB
:104EC000008801040104010501FF0001010401043F
:104ED00001FC00840104010001800000000000CCFE
:104EE0000124012401240124019800000000010094
:104EF000010007F80104010400000000010001F8AE
:104F0000000400040004010801FC00040100018009
:104F10000170000C001001600180010001F0010C23
:104F2000003001C00030010C01F00100000001045C
:104F3000018C00740170018C0104000001010181E9
:104F40000171000E00180160018001000000018461
:104F5000010C013401440184010C00000000000038
:104F60000000000001003EFC400240020000000082
:104F700000000000FFFF00000000000000004002F1
:104F800040023EFC01000000000000000000600044
:104F90008000800040004000200020000000000051
:104FA0000000000000000000000000000000000001
:104FB00000000000000000000000000000000000F1
:104FC0000000000000000000000000000000000FD2
:104FD00080380FFE380F803800000000000000000D
:104FE00000000000000000000000010000060000BA
:104FF0000C00003800003100000600000C000038F2
:105000000000300000000000000000006180006728
:10501000F807F98000618000618000618000618094
:105020000067F807F98000618000000000000000C0
:10503000000001C0E003E0F00630080418081FFF7C
:10504000FE040E080787F00381E000000000000066
:1050500001F000060C00040408060C7001F9C00001
:105060000E00003BE000EC18070808040C180003D1
:10507000E00000000001E00007F003F818041C083D
:1050800004170807E1D003C0E00023B0003C08008B
:1050900020080000100000000000000100003100A6
:1050A000003200001C0000000000000000000000B2
:1050B00000000000000000000000000000000000F0
:1050C0000000000000000000000000007F0001FF61
:1050D000C00780F00C00181000042000020000003F
:1050E0000000002000021000040C00180780F001EE
:1050F000FFC0007F00000000000000000000000072
:105100000000000000000000420000660000660091
:10511000003C0000180003FFC0001800003C000025
:105120006600006600004200000000000800000861
:105130000000080000080000080001FFC00008008F
:10514000000800000800000800000800000000003F
:10515000000100003100003200001C0000000000CF
:10516000000000000000000000000000000000003F
:10517000000000000800000800000800000800000F
:1051800008000008000008000008000008000008EF
:10519000000000000000000000000000380000389F
:1051A00000003800000000000000000000000000C7
:1051B00000000000000000000000000000060000E9
:1051C0001C000070000180000E0000380000C000CC
:1051D0000700001C0000300000000000000000007C
:1051E0007F8001FFE00380700600180400080400BF
:1051F0000806001803807001FFE0007F80000000B7
:105200000000000000000100080100080100080380
:10521000FFF807FFF8000008000008000008000081
:105220000000000000000001C03802C058040098CF
:10523000040118040218040418061C1803F81801C5
:10524000E0F800000000000000000001C0E003C022
:10525000F004000804080804080806180803F418F5
:1052600001E7F00001E00000000000000000000085
:105270000300000D0000110000610000810803011F
:105280000807FFF80FFFF800010800010800000000
:105290000000000000E007FCD00608080610080621
:1052A0001008061008061838060FF00607C00000A0
:1052B00000000000000000003F8001FFE003843098
:1052C0000208180410080410080410080718100336
:1052D0000FF00007C000000000000000000003C045
:1052E000000700000600000600F80607F806180090
:1052F00006E00007000006000000000000000001BA
:10530000E1E003F7F0063410041808041808040C50
:1053100008040C0806161803F3F001C1E0000000B1
:1053200000000000F80003FC300306380402080403
:1053300002080402080404100308F001FFC0007F03
:10534000000000000000000000000000000000005D
:105350000000000070380070380070380000000055
:10536000000000000000000000000000000000003D
:105370000000000000000000301A00301C00000097
:10538000000000000000000000000000000000001D
:10539000000000080000140000220000410000800E
:1053A00080010040020020040010080008000000F6
:1053B0000000000021000021000021000021000069
:1053C0002100002100002100002100002100002117
:1053D00000000000000000000000080008040010A9
:1053E00002002001004000808000410000220000F7
:1053F000140000080000000000000003C00004C00A
:1054000000040000080038080F38080838081000A9
:105410000C300007E00003C00000000000000000A6
:105420003F8000FFE0038070020F1006708804C008
:1054300088048308047F8802C09003012000FE4096
:105440000000080000180001F8003E0801C2000733
:10545000020007E20000FE00001FC80001F8000083
:105460003800000804000807FFF807FFF8040808E0
:1054700004080804080804080806180803F41801BA
:10548000E7F00001E0000000000000003F8001FFA5
:10549000E0038070020018040008040008040008FB
:1054A0000400100600200780C00000000400080768
:1054B000FFF807FFF80400080400080400080400CF
:1054C0001802001003807001FFE0007F80000000E0
:1054D00004000807FFF807FFF80408080408080498
:1054E0000808040808043E08040008060018010023
:1054F0006000000004000807FFF807FFF804080830
:10550000040800040800040800043E000600000629
:105510000000018000000000000000003F8001FF4B
:10552000E003807006001804000804020804020862
:105530000203F00783F000020000020004000807E5
:10554000FFF807FFF804080800080000080000083A
:105550000000080004080807FFF807FFF804000827
:105560000000000000000400080400080400080710
:10557000FFF807FFF8040008040008040008000012
:10558000000000000000000000060000070000010D
:1055900004000104000104000307FFFE07FFFC04F0
:1055A000000004000004000004000807FFF807FFE3
:1055B000F8040C08001800003E0004C7800503C86A
:1055C0000600F8040038040018000008040008076A
:1055D000FFF807FFF80400080000080000080000BA
:1055E000080000080000080000180000600000002B
:1055F00004000807FFF807800807FC00007FC000D0
:1056000003F80007C000780007800807FFF807FFCD
:10561000F804000804000807FFF807000803C000AA
:1056200000E000003800001E000007000001C00478
:1056300000F007FFF8040000000000007F8001FF79
:10564000E003807006001804000804000806001833
:1056500003003001FFE0007F800000000400080725
:10566000FFF807FFF804040804040004040004041D
:1056700000040400060C0003F80001F00000000024
:10568000000000007F8001FFE003807006008804B6
:1056900000880400C806003C03003E01FFE6007FCE
:1056A0008400000004000807FFF807FFF80408085A
:1056B000040800040C00040F00040BC00610F003E3
:1056C000F03801E00800000800000001E0F803F0F5
:1056D00030063010041808041808040C08040C08DC
:1056E0000206180207F00781E000000001800006B2
:1056F000000004000004000004000807FFF807FF92
:10570000F804000804000004000006000001800006
:1057100004000007FFE007FFF00400180000080085
:10572000000800000800000800000804001007FF3F
:10573000E004000004000006000007E00007FE008F
:10574000041FE00001F80000380001E0043E0007FB
:10575000C00006000004000004000007E00007FF8E
:10576000C0041FF80007C007F80007FF80043FF8D7
:105770000007C004F8000700000400000000000457
:10578000000806001807C07805F1C8003E00001F99
:10579000800463E80780F806001804000800000091
:1057A00004000006000007800007E008047C0800F1
:1057B0001FF80007F800180804E0080700000600BA
:1057C000000400000000000100080600380400F892
:1057D0000403E8040F08047C0805F00807C0080764
:1057E000001804006000000000000000000000003D
:1057F000000000000000003FFFFE20000220000229
:105800002000022000022000020000000000000032
:10581000000008000007000000C00000380000067B
:10582000000001C000003000000E00000100000078
:1058300000000000000020000220000220000220E2
:1058400000022000023FFFFE0000000000000000F8
:105850000000000000000000000000000008000040
:105860001000003000002000003000001000000890
:105870000000000000000000000001000001000026
:105880000100000100000100000100000100000112
:105890000000010000010000010000010000000004
:1058A0000000000000200000200000100000100098
:1058B00000000000000000000000000000000000E8
:1058C0000000000000F00019F8001B18002208007A
:1058D0002608002408002410003FF8001FF80000EC
:1058E0000800001800000004000007FFF80FFFF098
:1058F00000181800100800200800200800301800C8
:105900001FF0000FC00000000000000007C0001FD3
:10591000F0001830002008002008002008003C0893
:10592000001C1000006000000000000000000000EB
:1059300007C0001FF00038180020080020080020D1
:105940000804101007FFF80FFFF00000100000001F
:105950000000000000000007C0001FF0001230002F
:105960002218002208002208003208001E10000E33
:105970002000000000000000200000200800200897
:1059800001FFF803FFF80620080420080420080798
:10599000200003000000000000000000000E000EC8
:1059A0006E001FF30031B10020B10020B100319131
:1059B000001F13002E1E00200E0030000000000407
:1059C000000807FFF80FFFF8001008002000002073
:1059D00000002008003FF8001FF800000800000049
:1059E0000000000000000020080020080020080639
:1059F0003FF8063FF800000800000800000800001B
:105A00000000000000000000000000000300000390
:105A1000002001002001002003063FFE063FFC009D
:105A2000000000000000000000000004000807FF64
:105A3000F80FFFF8000188000300002FC00038F8BD
:105A400000203800200800000800000000000000CE
:105A5000000004000804000804000807FFF80FFF16
:105A6000F800000800000800000800000000000026
:105A7000002008003FF8003FF80010080020000058
:105A80003FF8003FF8001008002000003FF8003FFA
:105A9000F8000008000000002008003FF8003FF870
:105AA000001008001000002000002008003FF8004F
:105AB0001FF80000080000000000000007C0000FF1
:105AC000F0001830003008002008002008003008DE
:105AD000001830000FF00007C000000000000000B8
