:020000042000DA
:10100000A0D70020F9110020FD110020FF110020C1
:101010000112002003120020051200200000000031
:101020000000000000000000000000000712002087
:1010300009120020000000000B1200200D120020F9
:101040000F1200200F1200200F1200200F1200209C
:101050000F1200200F1200200F1200200F1200208C
:101060000F1200200F1200200F1200200F1200207C
:101070000F1200200F1200200F1200200F1200206C
:101080000F1200200F1200200F1200200F1200205C
:101090000F1200200F1200200F1200200F1200204C
:1010A0000F1200200F1200200F1200200F1200203C
:1010B0000F1200200F1200200F1200200F1200202C
:1010C0000F1200200F1200200F1200200F1200201C
:1010D0000F120020A92400200F1200200F12002060
:1010E0000F1200200F1200200F1200200F120020FC
:1010F0000F1200200F1200200F1200200F120020EC
:101100000F1200200F1200200F1200200F120020DB
:101110000F1200200F1200200F1200200F120020CB
:101120000F1200200F1200200F1200200F120020BB
:1011300000F002F800F050F80AA090E8000C824499
:101140008344AAF10107DA4501D100F045F8AFF276
:10115000090EBAE80F0013F0010F18BFFB1A43F095
:101160000103184770AA000090AA0000103A24BF9B
:1011700078C878C1FAD8520724BF30C830C144BFFC
:1011800004680C607047000000230024002500263E
:10119000103A28BF78C1FBD8520728BF30C148BFDA
:1011A0000B607047662907F09284642900F08C80F8
:1011B000782900F0C580732900F06584002070470D
:1011C0001FB500F077FC04000020002106F020FF8E
:1011D000E0601FBD10B510BD00F070FD1146FFF7B7
:1011E000EFFF05F077FE00F08EFD03B4FFF7F2FF8E
:1011F00003BC01F0B6F9000008480047FEE7FEE72F
:10120000FEE7FEE7FEE7FEE7FEE7FEE7FEE7FEE7B6
:1012100003480449044A054B70470000311100207F
:10122000A0D10020A0D70020A0D30020A0D3002070
:10123000704700000FB4044910B503AA029800F0EB
:1012400027FC10BC5DF814FB04D000200FB41CB5C3
:10125000074B06AA7B4469460090059800F0E9FB1D
:101260000020694600F0F8FB1CBC5DF814FB000090
:101270000108000070B50C460546012A05D0287803
:10128000800600D5EA69002302E0012305E05B1C2B
:10129000934202D2E05C0028F9D1A869E618C01A8E
:1012A000A861286A184428622846AFF3008004E049
:1012B000D5E9012114F8010B9047B442F8D3284630
:1012C000AFF3008070BD00002DE9F0410646002418
:1012D00010687529314616A510D0AFF3008000289C
:1012E00002DA404213A507E031688A0701D512A54A
:1012F00002E0490704D511A5012401E0AFF3008005
:1013000000210A2206F1240709E0B0FBF2FCB0FB41
:10131000F2F302FB1C00303078541846491C0028B8
:10132000F3D123462A463046BDE8F04100F014B917
:10133000000000002D0000002B0000002000000035
:1013400070B504460D4621461068AFF30080218831
:10135000090502D50F4A7A4402E00E4A7A440E3259
:10136000002104F1240305E000F00F060009965D5A
:101370005E54491C0028F7D120780023000704D5CB
:10138000702D02D009B1022311322046BDE8704011
:1013900000F0E2B830A700002DE9F05F894604466E
:1013A0004FF0000ADFF824B1FB44C0F820A020462B
:1013B000E168884700287DD0252806D0D4E901219E
:1013C0009047206A401C2062F1E700255F462046D6
:1013D000E16888472028064607DB312E05D2B81978
:1013E00010F8200C08B10543F1E7A80701D525F056
:1013F0000405C4F81CA00027C4F818A02A2E09D0A0
:10140000304601F0A7F838B304EB8708303EC8F83F
:10141000186019E059F8041B204604EB870291611B
:10142000E1688847012F064618D1E069002820DAD4
:1014300025F020051DE0D8F8180000EB800006EB31
:1014400040003038C8F818002046E1688847064652
:1014500001F080F80028EED1012F0AD02E2E08D1FD
:101460002046E16888477F1C0646022F45F020058C
:10147000C4DBA069002803DA404245F00105A06101
:10148000E80701D025F01005A6B1A6F14100192802
:1014900002D8203645F400654A463146204625608C
:1014A0004D46FFF77FFE60B1012807D0ED1D25F006
:1014B000070000E007E000F1080978E705F10409FA
:1014C00075E730467AE7206ABDE8F09F06A700007E
:1014D0004FF0013C50F8042B51F8043B9A4221D1C3
:1014E000A2EB0C03934313EACC1317D150F8042B4F
:1014F00051F8043B9A4215D1A2EB0C03934313EA33
:10150000CC130BD150F8042B51F8043B9A4209D16B
:10151000A2EB0C03934313EACC13DBD04FF0000093
:10152000704700BFD01A01BAB1FA81F101F0180179
:1015300022FA01F0CB40C1F12001DBB2C0B2C01AE7
:101540002CFA01F3D11A914311EAC311E6D1704785
:1015500070477047704770472DE9F0470D46994630
:101560009246044600F124080168880604D5E06923
:1015700021F01001216000E00120A84201DD471B9D
:1015800000E00027A1697A1902EB0900081AA0619E
:101590002078C00602D42046AFF30080002608E081
:1015A000D4E901211AF806009047206A401C761CF5
:1015B00020624E45F4DB2078C0060AD52046AFF302
:1015C000008006E0D4E9012130209047206A401CC9
:1015D0002062381EA7F10107F4DC07E0D4E90121FD
:1015E00018F805009047206A401C2062281EA5F1CB
:1015F0000105F3DC2046AFF300802078000602D519
:101600000220BDE8F0870120FBE770472DE9FF4F7E
:101610000C461E464FF0FF378BB0D2E90001DDF8D3
:1016200060800A908A46C1F30A5505B93D460021FB
:1016300008464FF00000BAF1000F00F4400005DA50
:1016400000EB80004FF4400101EA50004FEA90594E
:10165000B9F1010F00DDB9460A9850EA4A000ED0F0
:1016600044F61050A5F2FF3545432F14B8F1000F92
:101670001ED07542291E1EDDC9F100021CE0B8F122
:10168000010F4FF0000001D0302103E0F24305E0EC
:101690002154401CB042FBDB304600220021215483
:1016A0000B99C1F80880C1E900200FB0BDE8F08FA8
:1016B000BD1B6D1CDEE74A4600DA694206A800F051
:1016C00083FA06AB93E8070003AB83E807005046B4
:1016D0000A9900F021FB8DE80700A0F500501F38A3
:1016E00000900398002D0ADD42F21F014A4608448B
:1016F000002303A90390684600F08AFD09E0A0F5E5
:1017000000504A461F38002303A90390684600F0A2
:1017100094FD8DE807000004000C03D04FF0FF306B
:10172000410800E01046B8F1000F03D000220092FB
:1017300015461EE0751E05D400F0C0F93032625522
:101740006D1EF9D5B3460122084302D000227F1C4A
:1017500004E02078302801D100227F1E002A09975A
:1017600084D01DE0112D07DA00F0A8F9303262555F
:101770006D1C50EA0102F5D1084302D00098C8B1AF
:101780000EE00021681E05E0235C625C6354225475
:10179000401E491C8142F7DBAB46A81B401E099046
:1017A000002004F80B000B98099AC0F80880C0E9E3
:1017B000002B7AE711264FF0000857E72DE9F04F8C
:1017C00088460446D21D22F0070191B0D1E90001FC
:1017D000CDE90A0100F0AAFE02460B98C00F01D025
:1017E0002D2007E02068810701D52B2002E0202171
:1017F00001EAC000032A099001D0072A05DB03464D
:101800004146204600F0A0F90BE12078800601D582
:10181000E06900E00620B8F1650F814606D0B8F116
:10182000660F18D0B8F1670F70D131E00020B9F120
:10183000110F009001DB112301E009F101030AAA55
:1018400001A90CA8FFF7E2FEDDE90C70002609F102
:101850000105834647E001204B4600904FF00047CA
:101860000AAA01A90CA8FFF7D1FEDDE90DB00C9979
:101870005D46002610B909F101000D18B9EB05000D
:1018800003D4C0F1FF3609F10105A5EB09002BE0F7
:10189000B9F1010F01DA4FF001090020B9F1110F80
:1018A0000090484601DD112300E003460AAA01A981
:1018B0000CA8FFF7ABFEDDE90C704D460026834611
:1018C000207800070AD4AB4500DA5D4601A8012D57
:1018D00004DD411911F8011C302907D04F4502DA07
:1018E00017F1040F04DA012082460FE06D1EEEE7C7
:1018F000002F02DCED1B3E4403E0781CA84200DD13
:101900007D1CB81B00F1010A4FF00047207800074A
:1019100003D4AA4501DB4FF0FF3A0021B7F1004F95
:101920000DF143088DF8431024D002202B23002F03
:1019300001DA7F422D230A21021EA0F1010000DC02
:101940005FB197FBF1FC97FBF1F201FB1C7C1746A2
:101950000CF1300C08F801CDEEE7A8F1010003709E
:101960002188090501D5452100E06521A0F1010884
:1019700000F8011C09980FA9A1EB0807FF1D00B191
:101980000120411901EBEA70A1693844081A401E90
:10199000A0612078C00602D42046AFF300800998E9
:1019A00028B1D4E901219047206A401C20622078A8
:1019B000C00622D52046AFF300801EE0002E04DBD7
:1019C000B34502DD01A8805D00E03020D4E90121AB
:1019D0009047206A401C2062761CAAF101005FEA51
:1019E000000A0AD100F066F8C0680168405CD4E9DA
:1019F00001219047206A401C2062281EA5F10105A4
:101A0000DCDC07E0D4E9012118F8010B9047206ADB
:101A1000401C2062381EA7F10107F3DC2046AFF31B
:101A20000080032011B041E601694A1C0261087878
:101A3000704700B58FB0CDE901310021059105490E
:101A40007944CDE9031011466846FFF7A5FC0FB0B5
:101A500000BD0000E5FFFFFF0A6802F8010B0A6005
:101A6000704710B5436913B1AFF3008001E0FFF791
:101A700001FC012010BD127800F124010A7000223F
:101A80004A700122EDE711684FF0FF32E9E70000EC
:101A9000074B70B50D467B44FFF7CBFF0446284645
:101AA00000F004F910B14FF0FF3070BD204670BD5A
:101AB000E70F0000004870475CD1002030B5B0F15E
:101AC0000A024FEA900E71F100034EEA817EB0EBFC
:101AD0000E0061EB91014FEA101E4EEA017E10EB01
:101AE0000E0041EB11114FEA102E4EEA016E10EB81
:101AF0000E0041EB11214FEA104E4EEA014E10EB61
:101B00000E0041EB1141401841F100014FEAD000B5
:101B100040EA41704FEAD10110EB80054FEA8104A1
:101B200044EA907444EB01046D1944EB0404521B25
:101B3000A3414FF0000348BF0A3200D530BD401C1E
:101B400041F1000130BD00002DE9F0411F4604467F
:101B500003260168072A01F4006004DB08B116A51A
:101B600005E016A503E008B115A500E015A521F0D4
:101B700010002060A069C01EA0610FB1401EA061CE
:101B80002046AFF300804FB1D4E901213846904799
:101B9000206A401C2062C01C206206E0206AFAE72E
:101BA000D4E9012115F8010B9047761EF8D22046A2
:101BB000AFF30080BDE8F0814E414E006E616E00D3
:101BC000494E4600696E66002DE9F047814616468B
:101BD0008AB0354878440DC88DE80D003248784405
:101BE000801C03AC0DC884E80D0041F69B3008440E
:101BF000372190FBF1F290FBF1F5A5F1800501FB97
:101C000012041B3C02D56442012000E00020DFF8F2
:101C100098A080460027FA44AAF1BE0A0EE0E00729
:101C20000AD03246684607EB470101230AEB8101DF
:101C300000F003FB8DE8070064107F1C002CEED140
:101C4000194F7F44AE3F19E0E80715D007EB0410A9
:101C50000DF1180A90E80E008AE80E00C068F04204
:101C600001D1981908903246012306A903A800F073
:101C7000E4FA03AB83E807006D10641C002DE3D188
:101C80004FF0010332466946B8F1000F03A802D0B5
:101C900000F0BEFA01E000F0D0FAC9E90001C9F88D
:101CA00008200AB0BDE8F087689F0000007B00F0C4
:101CB00080007047004870473CD100207546FFF710
:101CC000F9FFAE4605006946534620F007008546F9
:101CD00018B020B5FFF79CFABDE820404FF0000691
:101CE0004FF000074FF000084FF0000B21F0070104
:101CF000AC46ACE8C009ACE8C009ACE8C009ACE847
:101D0000C0098D46704710B50446AFF300802046E9
:101D1000BDE81040FFF769BA5FEA400C08BF91F0D8
:101D2000000F4FEA8C234FEAC12243EA51514FEA98
:101D30001C5018BF00F5F0404FEA300018BF41F0CA
:101D400000415FEA6C5C00F02980BCF1FF3F08BFF6
:101D500040F080407047130C06BF12044FF0100C87
:101D60004FF0000C130E04BF12020CF1080C130FFD
:101D700004BF12010CF1040C930F04BF92000CF18C
:101D8000020CD30F04BF52000CF1010C11464FF0AE
:101D90000002A0F11F00A0EB0C00704711F0004FF3
:101DA00008BF704731F000413FF4D5AF0B0C06BFC0
:101DB00009044FF0100C4FF0000C0B0E04BF090289
:101DC0000CF1080C0B0F04BF09010CF1040C8B0F74
:101DD00004BF89000CF1020CCB0F04BF49000CF1C9
:101DE000010CCCF12003A0EB0C0022FA03F302FA61
:101DF0000CF241EA030100F10100704720F07F4C32
:101E000080EA030023F07F47ACEB070303F57C5324
:101E100000F0004003F1FF032DE980494FEA154B24
:101E200009B44FEA144325EA0B4E24EA03480FF2A3
:101E3000042606EB132749083E785FEA320203FBCB
:101E40000667C7F5000707FB06F64FEA54374FEA67
:101E5000D64606F1020607FB066CCCF1005C4FEAA1
:101E60001C472CEA074C07FB06F40CFB06F504EBB9
:101E700015464FEA961634BF00204FF000404FEA57
:101E8000D13706FB07FC4FEA1C4C0CFB0BF7D21BAF
:101E900003FB0CF761EB07010CFB0EF7B0EB0740FF
:101EA00072EB17420CFB08F734BFA2EB0742B2EB10
:101EB000074261EB17414FEA0C444FEA910706FBDA
:101EC00007FC4FEA1C4C0CFB0BF7B0EBC74072EB66
:101ED000573203FB0CF734BFA2EBC742B2EBC74249
:101EE00061EB57310CFB0EF7B0EBC70072EB57728A
:101EF0000CFB08F734BFA2EBC702B2EBC70261EBE1
:101F00005771039F4FEA816141EA921104EBCC04BF
:101F10004FEAD1374FEA826206FB07FC42EA901291
:101F20004FEA80604FEA1C4C0CFB0BF7D21B03FB03
:101F30000CF761EB07010CFB0EF7B0EB074072EBFF
:101F400017420CFB08F734BFA2EB0742B2EB074283
:101F500061EB17414FEA8C554FEA910704EB9C2443
:101F600006FB07FC4FEA1C4C0CFB0BF7B0EBC74021
:101F700072EB573203FB0CF734BFA2EBC742B2EB54
:101F8000C74261EB57310CFB0EF7B0EBC70072EBA9
:101F900057720CFB08F734BFA2EBC702B2EBC702C3
:101FA00061EB577115EB4C254FEA816141EA9211C3
:101FB0004FEA82624FEAD13742EA901206FB07FCF1
:101FC00044F100044FEA80604FEA1C4C0CFB0BF715
:101FD000D21B03FB0CF761EB07010CFB0EF7B0EB18
:101FE000074072EB17420CFB08F734BFA2EB074225
:101FF000B2EB074261EB174115EB1C154FEA81313B
:1020000041EA92414FEA823242EA90424FEA8030FE
:102010004FEA0C7644F1000448EA03434EEA0B48C9
:102020004FF0000EB2EB080C71EB030724BF6246C1
:1020300039464EEB0E0E4FF0000B0018524149414D
:102040004BEB0B0BB2EB080C71EB03077BF1000BB6
:1020500024BF624639464EEB0E0E4FF0000B0018BF
:10206000524149414BEB0B0BB2EB080C71EB0307F0
:102070007BF1000B24BF624639464EEB0E0E51EA4F
:10208000020718BF46F0010616EB0E7655F1000266
:1020900054F1000103D5BDE88901BDE80088BDE821
:1020A0008901BDE80048B619524141EB0101A3F195
:1020B0000103704780807F7E7D7C7B7A797877769C
:1020C00076757473727171706F6E6E6D6C6C6B6A15
:1020D0006A696868676666656464636362616160B3
:1020E000605F5F5E5E5D5D5C5C5B5B5A5A59595830
:1020F000585757565655555554545353525252519A
:10210000515050504F4F4F4E4E4D4D4D4C4C4C4BEF
:102110004B4B4A4A4A494949484848474747474636
:102120004646454545444444444343434342424272
:1021300042414141002B9C4630D477002BD01CB546
:102140004FEA370703B44FF010004FF01001BAF117
:10215000000F06D0BCF1000FDCBF40F0080040F0DB
:1021600008014FF000000FBCBDE810400BF1010B5F
:10217000BBF1010F08BF5FEA170722BF12F101028E
:1021800011F101014FF0004143F1000300F0004064
:1021900043EA00007047F9D35708D0E746EA0646FD
:1021A00013F1400F4FEA16461FDD13F1200FDFBF7A
:1021B00016430A46002120335B42BED0C3F12007FC
:1021C00046EA064602FA07F74FEA164646EA0706C7
:1021D000C3F1200722FA03F201FA07F721FA03F10B
:1021E0004FF0000342EA0702A7E746EA020646EA82
:1021F00006464FEA164646EA0106BCBF46EA0646D0
:10220000360C4FF000034FF000024FF0000194E74E
:102210002DE9804C9A46934670B491E8380007C87F
:1022200031EA400C48BF34EA430C03D5FFF7E6FD22
:10223000FFF780FFF0BCBDE8008C2DE9804C9A468A
:10224000934670B491E8380007C810F0804F08BF7B
:1022500013F0804F03D100F005F8FFF76BFFF0BCDF
:10226000BDE8008C20F07F4780EA030023F07F4C1C
:1022700007EB0C03A3F57C5300F00040A3F1FE0331
:1022800092F0000F00F0B38095F0000F00F077801F
:102290002DE901494FEA11404FEA144621EA00486E
:1022A00000FB06FC24EA064708FB06F607FB08F8D5
:1022B00000FB07F718EB06484CEB164C4FEA124BA5
:1022C00018EB07484FEA15464CEB174022EA0B4E35
:1022D0000BFB06FC25EA06470EFB06F607FB0EFE87
:1022E0000BFB07F71EEB064E4CEB164C4FF00006AF
:1022F0001EEB074E4CEB174B18EB0B0840F10000A0
:1023000018EB0E0B58EB000840F100008F1A4FF04D
:1023100000013CBFC943661B14BFB5EB040C002190
:102320003CBFC943F61B4FEA17444EEA8E0E27EA1C
:1023300004454FEA1C4704FB07622CEA074C05FBE7
:1023400007F70CFB05F604FB0CFC16EB074642EB0B
:10235000174216EB0C4642EB1C421BEB060658EBF1
:102360000202414146EA9E0601D5BDE80189B6193F
:10237000524141EB0101A3F10103BDE801894FEA9C
:1023800014454FEA114724EA054621EA074C05FBAC
:1023900007F406FB07F70CFB06F105FB0CFC11EB41
:1023A000074144EB17444FEA124711EB0C4144EB51
:1023B0001C4422EA074C05FB07F206FB07F70CFB5F
:1023C00006F605FB0CFC16EB074642EB174216EB34
:1023D0000C4642EB1C456A1854F1000148BF704797
:1023E000B619524141EB0101A3F10103704795F089
:1023F000000F37D04FEA11424FEA144721EA024654
:1024000024EA074C02FB07F106FB07F70CFB06F476
:1024100002FB0CFC14EB074441EB17414FEA154754
:1024200014EB0C4441EB1C4125EA074C02FB07F579
:1024300006FB07F70CFB06F602FB0CFC16EB074647
:1024400045EB174516EB0C4645EB1C42121951F1B2
:10245000000148BF7047B619524141EB0101A3F199
:10246000010370474FEA14454FEA114724EA054635
:1024700021EA074C05FB07F106FB07F70CFB06F208
:102480004FF0000605FB0CFC12EB074241EB174135
:1024900012EB0C4251EB1C4148BF7047921841EBC4
:1024A0000101A3F1010370471D49096801F02001F2
:1024B00011B31B49091D0968C8B21A49098801F4FA
:1024C0000041C9B91749098801F4804161B10A285E
:1024D00003D00021134A118020E01249098841F4F9
:1024E0000041104A118019E00D2806D10D490988D4
:1024F00041F480410B4A118010E00A490988C1F378
:102500000D01094A505407490988491C054A1180A0
:1025100011460988C72901DD00211180704700009C
:102520000038014008D0002064D00020490050EA63
:10253000C12018BF04204A0D18BF40F0010040F22E
:10254000FF72B2EB515F08BF40F00200012808BFE4
:102550000520704730380A2801D20120704700203A
:10256000704700BF704710B500F0E2FE10BD70B5B7
:1025700005460C46164606E028466A1C95B200F051
:1025800008F804F8010B301EA6F101018EB2F3D158
:1025900070BD70B50446002600F05EFF2112A02237
:1025A00002EB4101C8B200F031FF00F08DFF25467B
:1025B000E11704EB11610912A4EB0121C8B200F08C
:1025C00025FF00F081FF00F047FFA12000F01EFF73
:1025D00000F07AFF002000F0EFFE064600F05AFF00
:1025E000304670BD70B505460C46164606E02178AB
:1025F000284600F009F8681C85B2641C301EA6F15C
:1026000001018EB2F3D170BD70B504460E4600F0E4
:1026100023FF2112A02202EB4101C8B200F0F6FE16
:1026200000F052FF2546E11704EB11610912A4EBFB
:102630000121C8B200F0EAFE00F046FF304600F08B
:10264000E5FE00F041FF00F025FF0A2000F0EAF966
:1026500070BD000010B500224FF400710D4804F069
:1026600087FD00F01BF8012202210B4804F080FDD9
:1026700000F014F800220221074804F079FD00F070
:102680000DF801225102034804F072FD00F006F833
:1026900010BD0000001C0140000C014010B50220DC
:1026A00000F0CAF910BD00001CB500BF11488069D8
:1026B00040F008000F49886100BF00BF08468069EC
:1026C00040F08000886100BF012000900023024696
:1026D00002210190084804F057FD012000900346B4
:1026E000024641020190054804F04EFD00F09CF8BE
:1026F0001CBD000000100240000C0140001C014005
:1027000010B5012251020A4804F032FDFFF7C6FF5E
:1027100001220221074804F02BFDFFF7BFFF002232
:102720000221044804F024FDFFF7B8FF10BD0000AB
:10273000001C0140000C014070B505460024002635
:1027400019E06006040E01220221104804F010FD79
:10275000FFF7A4FF4FF400710D4804F001FD08B12C
:10276000601CC4B200220221084804F001FDFFF7FA
:1027700095FF701CC6B2082EE3DB15B9FFF7C0FF4A
:1027800001E0FFF767FF204670BD0000000C01402C
:10279000001C014070B50446002517E0E2094FF423
:1027A00000710E4804F0E4FCFFF778FF01220221DB
:1027B0000B4804F0DDFCFFF771FF002202210848FE
:1027C00004F0D6FC6006040E681CC5B2082DE5DBDB
:1027D00001225102014804F0CBFC70BD001C0140F5
:1027E000000C014010B5012251020D4804F0C0FC5C
:1027F000012202210B4804F0BBFCFFF74FFF00222F
:102800004FF40071064804F0B3FCFFF747FF0022C5
:102810000221044804F0ACFCFFF740FF10BD0000AB
:10282000001C0140000C014010B500224FF4007163
:10283000094804F09DFCFFF731FF012202210748FF
:1028400004F096FCFFF72AFF01225102024804F02F
:102850008FFCFFF723FF10BD001C0140000C01405E
:1028600070B50024002501225102144804F080FCB8
:10287000FFF714FF01220221114804F079FCFFF751
:102880000DFF09E0601CC4B2FA2C03DDFFF7CCFF9A
:10289000012508E0FFF702FF4FF40071074804F03C
:1028A0005FFC0028EED100BF00220221044804F0A2
:1028B0005FFCFFF7F3FE284670BD0000001C0140DE
:1028C000000C01408CB00024002505264648808875
:1028D00041F21801884200D10A2683E0434841684A
:1028E00000208847002468E04048808E0121A140F4
:1028F000084000285AD03D480C3030F814003A49BE
:102900000988884257DA3948203030F814003649AF
:10291000498888424FDA02A830F824004FF6FF7148
:1029200088420DD131480C3030F8140002A921F84A
:1029300024002E48203030F8140001EB8401488038
:102940002B4830F814000221284F2037CDE9001021
:1029500037F81430143F37F8142002AF07EB840720
:10296000798802AF37F8240000F056FF1F480C307A
:1029700030F8140002A921F824001C48203030F857
:10298000140001EB8401488018480C3030F8141012
:1029900015480088183881420DDD1448203030F881
:1029A0001400142807DA04F07BFA04E04FF6FF70F5
:1029B00002A921F82400601CC4B2B44294DB0520B3
:1029C00000F030F8681CC5B2142095FBF0F100FB54
:1029D000115038B900BF0748006880F02000054951
:1029E000086000BF7AE700002CD1002018D000203A
:1029F000D28A00200C0C01404FF0E021096941F01F
:102A000004014FF0E022116105490860114609698F
:102A100041F0010111616FF0704151617047000098
:102A200000D0002010B504464FF47A7104FB01F089
:102A300000F002F810BD000070B5034600224FF010
:102A4000E02675690D4E366803FB06F44FF0E0266C
:102A5000B16910E04FF0E026B06988420BD088429F
:102A600002D20E1A324402E02E1A0E4432440146BB
:102A7000A24200D300E0EDE700BF70BD00D000200F
:102A800000BF054A126802F04002002AF9D0C2B223
:102A9000014B1B1D1A607047003801400EB500BF86
:102AA0003B48806940F080003949886100BF00BF21
:102AB0000846806940F08000886100BF01200090D6
:102AC00000230246C1020190324804F05DFB012060
:102AD000009000231A46810201902E4804F054FB16
:102AE000FFF7E2FD00224FF400612A4804F040FBAA
:102AF0001420FFF797FF0122D102264804F038FB8B
:102B00003220FFF78FFF00208DF80800012202A974
:102B100000F046F9012202A9A42000F041F9162094
:102B20008DF80800012202A9802000F039F90C205C
:102B30008DF80800012202A9882000F031F9022254
:102B400002A9A12000F02EF89DF80800302803D13A
:102B50009DF8090003280DD09DF80900012809D02F
:102B60009DF80900022805D09DF8080068B99DF875
:102B7000090050B99DF809009DF8082000EB0221DA
:102B800005A0FEF757FB00200EBD0120FCE700006A
:102B900000100240001C01404354502049443A2593
:102BA000780D0A002DE9F04106460F461546FFF75D
:102BB00019FE7020FFF7EEFDFFF752FEF0B2FFF7AF
:102BC000E9FDFFF74DFEFFF70DFE7120FFF7E2FD77
:102BD000FFF746FE00240BE0691EA14201D001214F
:102BE00000E000210846FFF7A7FD3855601CC4B27D
:102BF000AC42F1DBFFF718FEBDE8F0812DE9FC41A6
:102C00000746002001900024002661480078401CFF
:102C10005F490870084600780A2190FBF1F201FB39
:102C2000120018B15A4800780A2867DA012201A96F
:102C30000220FFF7B7FF9DF8040000F00F00002806
:102C40005CD09DF8040000F00F0006287BDA9DF8A8
:102C5000040000F00F014FF6FF70884085B2E84392
:102C600080B240F440404B4988860420FFF7DAFEEA
:102C700000245AE04748808E0121A1400840E0B37B
:102C8000454931F8140004226946FFF78BFF41489B
:102C900090F8440000F00100C0B19DF801009DF8DB
:102CA000001001F00F0100EB01203A49203121F81A
:102CB00014009DF803009DF8021001F00F0100EBD5
:102CC000012134480C3020F814101EE09DF801005A
:102CD0009DF8001001F00F0100EB01202F49098839
:102CE000081A81B22B480C3020F814109DF803000C
:102CF0009DF8021001F00F0101E014E023E000EB69
:102D000001202449203121F814009DF8000000F032
:102D1000F000802807D000211E48203020F8141031
:102D2000143820F81410601CC4B2052CA2DB012654
:102D30001848808920B91748008C08B900200190F4
:102D40000020134908709DF8040000F01F00A8B986
:102D50001048808E00F4004030B10E48808E20F480
:102D600000400C49888609E04FF6FF7009498881C8
:102D700008840846808E00F4604088860448007805
:102D8000F02802DD0A20024908703046BDE8FC81C7
:102D900060D0002018D000206CBA00202CD1002078
:102DA0002DE9F04105460E4617464FF00008FFF7A3
:102DB00019FD7020FFF7EEFCFFF752FDE8B2FFF7B8
:102DC000E9FCFFF74DFD00240BE0305DFFF7E2FC6E
:102DD000FFF746FD8046B8F1000F00D003E0601C0D
:102DE000C4B2BC42F1DB00BFFFF71EFD4046BDE8A8
:102DF000F08100001FB500BF4148806940F08000AD
:102E00003F49886100BF00BF0846806940F08000EC
:102E1000886100BF0120009000230246C10201909A
:102E2000384804F0B1F90120009000231A468102CD
:102E30000190344804F0A8F9FFF736FC00224FF463
:102E40000061304804F094F90A20FFF7EBFD0122FD
:102E5000D1022C4804F08CF90A20FFF7E3FD002092
:102E6000012103460246CDE900108902254804F0FD
:102E70008BF96420FFF7D6FD042202A948F2401026
:102E800000F058F800208DF80C001FA102A8FEF7F2
:102E90001FFB88B11DA102A8FEF71AFB60B11DA19E
:102EA00002A8FEF715FB38B11CA102A8FEF710FB23
:102EB00010B1012004B010BD02A91AA0FEF7BAF9A2
:102EC00016A102A8FEF704FB10B90A2018490870E1
:102ED00002208DF80800012202A948F2400000F00B
:102EE000D3F90A20FFF79EFD00208DF8080001228B
:102EF00002A948F2400000F0C7F90020DAE700001C
:102F000000100240001C01403931310039313437A2
:102F1000000000003131353800000000393237310F
:102F2000000000004354502049443A25730D0A0024
:102F300061D000202DE9F04105460F461646FFF707
:102F400051FC2820FFF726FCFFF78AFC2812FFF728
:102F500021FCFFF785FCE8B2FFF71CFCFFF780FCC3
:102F6000FFF740FC2920FFF715FCFFF779FC002450
:102F70000BE0711EA14201D0012100E000210846B2
:102F8000FFF7DAFB3855601CC4B2B442F1DBFFF73F
:102F90004BFCBDE8F081000071B583B000200190CA
:102FA0000026B4480078401CB249087008460178F1
:102FB0000A2091FBF0F200FB121018B1AD48007826
:102FC0000A287DDA012203A948F24E10FFF7B2FF6A
:102FD0009DF80C0000F0800078B19DF80C0000F026
:102FE0000F00A5490978884207DC002001900122E2
:102FF00001A948F24E1000F047F99DF80C0000F0CE
:103000000F0000285CD09DF80C0000F00F009A49DA
:103010000978884254DC9DF80C0000F00F014FF64F
:10302000FF70884084B29548858EE04380B240F4BA
:10303000404092498886084682898F480078401E21
:103040000C3121F810208D48028C8B480078401EEE
:10305000143121F8102000200190A7E08748808ECD
:103060009DF8042001219140084000283FD0844968
:103070009DF8042031F81200042202A9FFF75AFF3C
:103080008048808845F2105188420BD07D48808866
:1030900049F60601884205D07A48808847F2967141
:1030A000884240D1754890F8440000F00100F8B122
:1030B0009DF80A009DF80B1000EB0120714900E01B
:1030C000B2E00988081A81B26C480C309DF80420DF
:1030D00020F812109DF808009DF8091000EB01205F
:1030E00081B2664820309DF8042020F8121058E084
:1030F0009DF808009DF8091000EB012081B25F489F
:103100000C309DF8042020F812109DF80A009DF85C
:103110000B1000EB012081B2584820309DF80420AC
:1031200020F812103DE0554890F8440000F00100EE
:10313000D0B19DF808009DF8091000EB012081B284
:103140004E480C309DF8042020F812109DF80A001B
:103150009DF80B1000EB012081B2484820309DF80B
:10316000042020F812101CE09DF80A009DF80B10B6
:1031700000EB012043490988081A81B23F480C300E
:103180009DF8042020F812109DF808009DF8091001
:1031900000EB012081B2394820309DF8042020F84E
:1031A00012109DF80400401CC0B201909DF804006C
:1031B000314909788842FFF651AF01262F488089AE
:1031C00030490988884205DC2C48008C2D49498803
:1031D000884226DD9DF80C0000F00F0001280ADD72
:1031E0002648C089254988810846408C08840020EB
:1031F0002049087018E020480078401E1F490C3113
:1032000031F810000C3988811B480078401E2031AD
:1032100031F8100020390884802003900846858604
:1032200002E00020134908709DF80C0000F08F00A8
:10323000802815D11148808E00F4004030B10F482D
:10324000808E20F400400D49888609E04FF6FF701B
:103250000A49888108840846808E00F46040888688
:1032600004480078F02802DD0A2002490870304640
:1032700004B070BD62D0002061D0002018D00020C2
:1032800076BA00202CD100202DE9F04104460E46EC
:1032900017464FF00008FFF7A5FA2820FFF77AFA43
:1032A000FFF7DEFA2012FFF775FAFFF7D9FAE0B25E
:1032B000FFF770FAFFF7D4FA00250BE0705DFFF717
:1032C00069FAFFF7CDFA8046B8F1000F00D003E0AD
:1032D000681CC5B2BD42F1DB00BFFFF7A5FA40464E
:1032E000BDE8F08110B5002280210D4803F040FFB9
:1032F00000F018F801224021094803F039FF00F0DE
:1033000011F800224021064803F032FF00F00AF8CD
:1033100001228021024803F02BFF00F003F810BDCA
:10332000000C014010B50220FFF786FB10BD000025
:103330001CB500BF1148806940F008000F49886142
:1033400000BF00BF0846806940F00800886100BFE8
:10335000012000900023024640210190084803F01C
:1033600013FF01200090034602468021019004488B
:1033700003F00AFF00F08EF81CBD000000100240B0
:10338000000C014010B5012280210A4803F0F0FE34
:10339000FFF7C8FF01224021064803F0E9FEFFF7CE
:1033A000C1FF00224021034803F0E2FEFFF7BAFF0D
:1033B00010BD0000000C014070B505460024002639
:1033C00018E06006040E012240210F4803F0D0FEF1
:1033D000FFF7A8FF80210C4803F0C2FE08B1601C73
:1033E000C4B200224021084803F0C2FEFFF79AFF52
:1033F000701CC6B2082EE4DB15B9FFF7C3FF01E06D
:10340000FFF770FF204670BD000C014070B5044608
:10341000002516E0E20980210E4803F0A9FEFFF71F
:1034200081FF012240210B4803F0A2FEFFF77AFF43
:1034300000224021074803F09BFE6006040E681C32
:10344000C5B2082DE6DB01228021024803F090FE80
:1034500070BD0000000C014010B5012280210C4815
:1034600003F086FE01224021094803F081FEFFF7A8
:1034700059FF00228021064803F07AFEFFF752FF31
:1034800000224021024803F073FEFFF74BFF10BDFE
:10349000000C014010B5002280210A4803F068FEAC
:1034A000FFF740FF01224021064803F061FEFFF7CD
:1034B00039FF01228021034803F05AFEFFF732FF53
:1034C00010BD0000000C014070B500240025012251
:1034D0008021124803F04CFEFFF724FF0122402117
:1034E0000E4803F045FEFFF71DFF07E0601CC4B265
:1034F000FA2C03DDFFF7CEFF012505E08021074808
:1035000003F02EFE0028F1D100BF00224021034825
:1035100003F02EFEFFF706FF284670BD000C0140A9
:103520001CB500BF2048806940F040001E498861FA
:1035300000BF00BF0846806940F04000886100BFBE
:1035400000BF0846806940F04000886100BF00BFAE
:103550000846806940F00400886100BF01200090A7
:1035600000231A4610210190104803F00DFE01209F
:10357000009000231A46082101900C4803F004FE35
:103580000120009000231A4604210190074803F00F
:10359000FBFD0220012100231A46CDE9001004485A
:1035A00003F0F2FD1CBD00000010024000180140B5
:1035B0000008014070B50446002514B101202B49D4
:1035C00008702A480078002834D01021284803F0D9
:1035D000C7FD78B10821264803F0C2FD50B104218F
:1035E000234803F0BDFD28B10121224803F0B8FDB6
:1035F00001281FD10A20FFF715FA00201B49087087
:1036000010211B4803F0ACFD00B901250821184822
:1036100003F0A6FD00B902250421154803F0A0FD22
:1036200000B903250121134803F09AFD01281BD19D
:10363000042519E010210E4803F092FD012813D152
:1036400008210B4803F08CFD01280DD10421084806
:1036500003F086FD012807D10121064803F080FD13
:1036600010B9012001490870284670BD14D000200F
:10367000001801400008014070B5044600260948C2
:103680000588408845430021084603F01BFA03F0F3
:10369000C1FB00BF02E004480480761CAE42FAD3AE
:1036A00070BD00002CD100200008006C10B504464D
:1036B00058488471002C58D1F020564908804FF4A6
:1036C000A07048800846808845F21051884210D189
:1036D0004FF430504F4908814FF4285048814FF43F
:1036E0002C5088814FF4F07008804FF44870488067
:1036F0001AE04848808841F6631188420DD12C2099
:10370000444908812B2048812A2088814FF4F07099
:1037100008804FF44870488006E02C203D4908811D
:103720002A2048812B2088813A48808845F2103130
:10373000884205D03748808847F29671884206D182
:103740004FF4A070334908804FF4F070488031483E
:10375000808849F60601884258D14FF4F0702D490F
:1037600008804FF44870488050E04FF4A070294919
:103770000880F02048800846808845F21051884231
:1037800010D14FF43050234908814FF4285048811C
:103790004FF42C5088814FF4487008804FF4F0703B
:1037A000488020E01B48808841F66311884205D09C
:1037B0001848808849F6060188420DD12C20154909
:1037C00008812A2048812B2088814FF44870088086
:1037D0004FF4F070488006E02C200E4908812A2022
:1037E00048812B2088810B48808845F2103188421F
:1037F00005D00848808847F29671884206D14FF478
:10380000F070044908804FF4A0704880002003F055
:103810003BF810BD2CD100202DE9FF4F85B080462C
:103820008946129F002003900290B84507DB079855
:10383000B84204DBB94502DB0898B84202DA09B0A5
:10384000BDE8F08F0798A0EB08040898A0EB0905E5
:10385000CDF80480CDF80090002C02DD4FF0010A75
:1038600006E014B94FF0000A02E04FF0FF3A64425C
:10387000002D02DD4FF0010B06E015B94FF0000BF3
:1038800002E04FF0FF3B6D42AC4201DD264600E016
:103890002E460020049023E0009A91B2019A90B243
:1038A0003A46139B02F040FD03982044039002988F
:1038B000284402900398B04205DD0398801B0390D2
:1038C0000198504401900298B04205DD0298801B97
:1038D00002900098584400900498401C80B20490D4
:1038E000711C04988842D7DD00BFA8E72DE9F04796
:1038F00006460F4690469A46002445460320A0EB14
:10390000480944E07A1B91B2321990B2524600F055
:10391000B5F83A1B91B2721990B2524600F0AEF867
:103920003A1991B2721990B2524600F0A7F87A197A
:1039300091B2321990B2524600F0A0F87A1991B2C1
:10394000321B90B2524600F099F83A1991B2721BAC
:1039500090B2524600F092F87A1B91B2321B90B2AC
:10396000524600F08BF83A1B91B2721B90B252464D
:1039700000F084F8641CB9F1000F03DAA000801D88
:10398000814404E0601B80000A3081446D1EAC421B
:10399000B8DDBDE8F0870000F8B504460D461646D0
:1039A0001F463EB109480088A04203DB0748408813
:1039B000A84200DAF8BDA019401E82B22B46294663
:1039C0002046009702F086FC00BFF3E72CD10020D0
:1039D0002DE9FF4F84B081468A460020029083463D
:1039E0000698A0EB09050798A0EB0A06CDF804900D
:1039F000CDF800A0002D01DD012705E00DB900275D
:103A000002E04FF0FF376D42002E02DD4FF001085B
:103A100006E016B94FF0000802E04FF0FF3876429A
:103A2000B54201DD2C4600E03446002003901EE044
:103A3000009A91B2019A90B2119A00F01FF8029880
:103A400028440290B3440298A04205DD0298001B6E
:103A50000290019838440190A34504DDABEB040BC0
:103A60000098404400900398401C80B20390611C71
:103A700003988842DCDD08B0BDE8F08F70B50546DC
:103A80000E4614463146284603F01CF803F0C2F9EE
:103A900001490C8070BD00000008006C10B5CF20FB
:103AA00003F0ACF9002003F09DF9C12003F09AF96E
:103AB000302003F097F9ED2003F0A0F9642003F023
:103AC00091F9032003F08EF9122003F08BF9812085
:103AD00003F088F9E82003F091F9852003F082F9DA
:103AE000102003F07FF97A2003F07CF9CB2003F05B
:103AF00085F9392003F076F92C2003F073F90020C2
:103B000003F070F9342003F06DF9022003F06AF934
:103B1000F72003F073F9202003F064F9EA2003F0A2
:103B20006DF9002003F05EF9002003F05BF9C0207E
:103B300003F064F91B2003F055F9C12003F05EF98E
:103B4000012003F04FF9C52003F058F9302003F0AD
:103B500049F9302003F046F9C72003F04FF9B720A8
:103B600003F040F9362003F049F9482003F03AF910
:103B70003A2003F043F9552003F034F9B12003F063
:103B80003DF9002003F02EF91A2003F02BF9B6209E
:103B900003F034F90A2003F025F9A22003F022F9FA
:103BA000F22003F02BF9002003F01CF9262003F08B
:103BB00025F9012003F016F9E02003F01FF90F208A
:103BC00003F010F92A2003F00DF9282003F00AF978
:103BD000082003F007F90E2003F004F9082003F091
:103BE00001F9542003F0FEF8A92003F0FBF843206C
:103BF00003F0F8F80A2003F0F5F80F2003F0F2F8CC
:103C0000002003F0EFF8002003F0ECF8002003F0B0
:103C1000E9F8002003F0E6F8E12003F0EFF80020D7
:103C200003F0E0F8152003F0DDF8172003F0DAF8D0
:103C3000072003F0D7F8112003F0D4F8062003F092
:103C4000D1F82B2003F0CEF8562003F0CBF83C201F
:103C500003F0C8F8052003F0C5F8102003F0C2F8FF
:103C60000F2003F0BFF83F2003F0BCF83F2003F023
:103C7000B9F80F2003F0B6F82B2003F0BFF80020AE
:103C800003F0B0F8002003F0ADF8012003F0AAF82B
:103C90003F2003F0A7F82A2003F0B0F8002003F03B
:103CA000A1F8002003F09EF8002003F09BF8EF201D
:103CB00003F098F8112003F0A1F87820FEF7B2FE87
:103CC000292003F09BF810BD10B5FF2003F096F8F3
:103CD000FF2003F087F8982003F084F8062003F013
:103CE00081F8BC2003F08AF8012003F07BF80F2054
:103CF00003F078F8612003F075F8FF2003F072F804
:103D0000012003F06FF8012003F06CF80B2003F0A2
:103D100069F8102003F066F8372003F063F8632099
:103D200003F060F8FF2003F05DF8FF2003F05AF87D
:103D3000012003F057F8012003F054F8002003F0AD
:103D400051F8002003F04EF8FF2003F04BF852200A
:103D500003F048F8012003F045F8002003F042F892
:103D6000402003F03FF8BD2003F048F8012003F0A5
:103D700039F8232003F036F8452003F033F86720A4
:103D800003F030F8012003F02DF8232003F02AF887
:103D9000452003F027F8672003F024F8BE2003F045
:103DA0002DF8002003F01EF8012003F01BF8AB20D3
:103DB00003F018F8602003F015F8222003F012F841
:103DC000222003F00FF8222003F00CF8222003F049
:103DD00009F8222003F006F8C72003F00FF8362078
:103DE00003F000F8ED2003F009F87F2002F0FAFF5D
:103DF0000F2002F0F7FFC02003F000F80F2002F0C0
:103E0000F1FF0B2002F0EEFF0A2002F0EBFFFC2096
:103E100002F0F4FF082002F0E5FFDF2002F0EEFFE1
:103E2000002002F0DFFF002002F0DCFF002002F0A3
:103E3000D9FF002002F0D6FF002002F0D3FF20209F
:103E400002F0D0FFF32002F0D9FF742002F0CAFF85
:103E5000B42002F0D3FF002002F0C4FF002002F0E3
:103E6000C1FF002002F0BEFFF72002F0C7FF822052
:103E700002F0B8FFB12002F0C1FF002002F0B2FF53
:103E8000132002F0AFFF132002F0ACFFF22002F08B
:103E9000B5FF802002F0A6FF042002F0A3FF40201F
:103EA00002F0A0FF282002F09DFFC12002F0A6FF33
:103EB000172002F097FF882002F094FF882002F07C
:103EC00091FF202002F08EFFE02002F097FF0020FB
:103ED00002F088FF0A2002F085FF122002F082FF24
:103EE000102002F07FFF0E2002F07CFF202002F065
:103EF00079FFCC2002F076FF072002F073FF062046
:103F000002F070FF0B2002F06DFF0E2002F06AFF3E
:103F10000F2002F067FF0D2002F064FF152002F071
:103F200061FF102002F05EFF002002F05BFFE12045
:103F300002F064FF002002F055FF0B2002F052FF58
:103F4000132002F04FFF0D2002F04CFF0E2002F074
:103F500049FF1B2002F046FF712002F043FF0620BC
:103F600002F040FF062002F03DFF0A2002F03AFF77
:103F70000F2002F037FF0E2002F034FF0F2002F076
:103F800031FF152002F02EFF0C2002F02BFF002045
:103F900002F028FF2A2002F031FF002002F022FF69
:103FA000002002F01FFF012002F01CFFDF2002F0C2
:103FB00019FF2B2002F022FF002002F013FF002047
:103FC00002F010FF032002F00DFF1F2002F00AFF95
:103FD0003A2002F013FF552002F004FF362002F0D1
:103FE0000DFF002002F0FEFE112002F007FF7820F6
:103FF000FEF718FD292002F001FF1420FEF712FD44
:104000002C2002F0FBFE10BD10B5ED2002F0F6FEF4
:10401000012002F0E7FEFE2002F0E4FEEE2002F0B6
:10402000EDFEDE2002F0DEFE212002F0DBFEF120BC
:1040300002F0E4FE012002F0D5FEDF2002F0DEFEF9
:10404000102002F0CFFEC42002F0D8FE8F2002F034
:10405000C9FEC62002F0D2FE002002F0C3FEE2201C
:1040600002F0C0FEE22002F0BDFEE22002F0BAFE45
:10407000BF2002F0C3FEAA2002F0B4FEB02002F07E
:10408000BDFE0D2002F0AEFE002002F0ABFE0D20C2
:1040900002F0A8FE002002F0A5FE112002F0A2FE10
:1040A000002002F09FFE192002F09CFE002002F08A
:1040B00099FE212002F096FE002002F093FE2D20B2
:1040C00002F090FE002002F08DFE3D2002F08AFEFC
:1040D000002002F087FE5D2002F084FE002002F046
:1040E00081FE5D2002F07EFE002002F07BFEB1200A
:1040F00002F084FE802002F075FE002002F072FEC5
:104100008B2002F06FFE002002F06CFE962002F081
:1041100069FE002002F066FEB22002F06FFE002071
:1041200002F060FE002002F05DFE022002F05AFE66
:10413000002002F057FE032002F054FE002002F09F
:1041400051FEB32002F05AFE002002F04BFE002088
:1041500002F048FE002002F045FE002002F042FE80
:10416000002002F03FFE002002F03CFE002002F0A2
:1041700039FE002002F036FE002002F033FE00205F
:1041800002F030FE002002F02DFE002002F02AFE98
:10419000002002F027FE002002F024FE002002F0A2
:1041A00021FE002002F01EFE002002F01BFE002077
:1041B00002F018FE002002F015FE002002F012FEB0
:1041C000002002F00FFE002002F00CFE002002F0A2
:1041D00009FE002002F006FEB42002F00FFE8B2044
:1041E00002F000FE002002F0FDFD962002F0FAFD34
:1041F000002002F0F7FDA12002F0F4FD002002F003
:10420000F1FDB52002F0FAFD022002F0EBFD0020E6
:1042100002F0E8FD032002F0E5FD002002F0E2FDDF
:10422000042002F0DFFD002002F0DCFDB62002F0E9
:10423000E5FD002002F0D6FD002002F0D3FDB720FE
:1042400002F0DCFD002002F0CDFD002002F0CAFDEE
:104250003F2002F0C7FD002002F0C4FD5E2002F006
:10426000C1FD002002F0BEFD642002F0BBFD002075
:1042700002F0B8FD8C2002F0B5FD002002F0B2FD86
:10428000AC2002F0AFFD002002F0ACFDDC2002F01B
:10429000A9FD002002F0A6FD702002F0A3FD002081
:1042A00002F0A0FD902002F09DFD002002F09AFD9A
:1042B000EB2002F097FD002002F094FDDC2002F0DC
:1042C00091FD002002F08EFDB82002F097FD002045
:1042D00002F088FD002002F085FD002002F082FD42
:1042E000002002F07FFD002002F07CFD002002F0A3
:1042F00079FD002002F076FD002002F073FDBA2067
:1043000002F07CFD242002F06DFD002002F06AFD29
:10431000002002F067FD002002F064FDC12002F0E1
:104320006DFD202002F05EFD002002F05BFD5420B8
:1043300002F058FD002002F055FDFF2002F052FD72
:10434000002002F04FFDC22002F058FD0A2002F0CA
:1043500049FD002002F046FD042002F043FD00204C
:1043600002F040FDC32002F049FD3C2002F03AFD7E
:10437000002002F037FD3A2002F034FD002002F068
:1043800031FD392002F02EFD002002F02BFD3720F8
:1043900002F028FD002002F025FD3C2002F022FD65
:1043A000002002F01FFD362002F01CFD002002F06C
:1043B00019FD322002F016FD002002F013FD2F201F
:1043C00002F010FD002002F00DFD2C2002F00AFD8D
:1043D000002002F007FD292002F004FD002002F079
:1043E00001FD262002F0FEFC002002F0FBFC242050
:1043F00002F0F8FC002002F0F5FC242002F0F2FCB0
:10440000002002F0EFFC232002F0ECFC002002F080
:10441000E9FC3C2002F0E6FC002002F0E3FC362040
:1044200002F0E0FC002002F0DDFC322002F0DAFCB9
:10443000002002F0D7FC2F2002F0D4FC002002F074
:10444000D1FC2C2002F0CEFC002002F0CBFC292075
:1044500002F0C8FC002002F0C5FC262002F0C2FCDD
:10446000002002F0BFFC242002F0BCFC002002F07F
:10447000B9FC242002F0B6FC002002F0B3FC23209B
:1044800002F0B0FC002002F0ADFCC42002F0B6FC4B
:10449000622002F0A7FC002002F0A4FC052002F03C
:1044A000A1FC002002F09EFC842002F09BFC002076
:1044B00002F098FCF02002F095FC002002F092FC43
:1044C000182002F08FFC002002F08CFCA42002F0E7
:1044D00089FC002002F086FC182002F083FC0020FA
:1044E00002F080FC502002F07DFC002002F07AFCFB
:1044F0000C2002F077FC002002F074FC172002F080
:1045000071FC002002F06EFC952002F06BFC002094
:1045100002F068FCF32002F065FC002002F062FC6F
:10452000E62002F05FFC002002F05CFCC52002F0F7
:1045300065FC322002F056FC002002F053FC4420BF
:1045400002F050FC002002F04DFC652002F04AFC15
:10455000002002F047FC762002F044FC002002F02C
:1045600041FC882002F03EFC002002F03BFCC6200B
:1045700002F044FC202002F035FC002002F032FC66
:10458000172002F02FFC002002F02CFC012002F08A
:1045900029FC002002F026FCC72002F02FFC00209E
:1045A00002F020FC002002F01DFC002002F01AFCAA
:1045B000002002F017FCC82002F020FC002002F0CE
:1045C00011FC002002F00EFC002002F00BFC002089
:1045D00002F008FCC92002F011FC002002F002FCED
:1045E000002002F0FFFB002002F0FCFB002002F0A4
:1045F000F9FB002002F0F6FB002002F0F3FB0020A4
:1046000002F0F0FB002002F0EDFB002002F0EAFBDC
:10461000002002F0E7FB002002F0E4FB002002F0A3
:10462000E1FB002002F0DEFB002002F0DBFB0020BB
:1046300002F0D8FB002002F0D5FBE02002F0DEFB08
:10464000162002F0CFFB002002F0CCFB1C2002F071
:10465000C9FB002002F0C6FB212002F0C3FB0020B2
:1046600002F0C0FB362002F0BDFB002002F0BAFBD6
:10467000462002F0B7FB002002F0B4FB522002F00B
:10468000B1FB002002F0AEFB642002F0ABFB002087
:1046900002F0A8FB7A2002F0A5FB002002F0A2FBAA
:1046A0008B2002F09FFB002002F09CFB992002F07F
:1046B00099FB002002F096FBA82002F093FB00205B
:1046C00002F090FBB92002F08DFB002002F08AFB83
:1046D000C42002F087FB002002F084FBCA2002F015
:1046E00081FB002002F07EFBD22002F07BFB002049
:1046F00002F078FBD92002F075FB002002F072FB7B
:10470000E02002F06FFB002002F06CFBF32002F0CF
:1047100069FB002002F066FBE12002F06FFB16202F
:1047200002F060FB002002F05DFB1C2002F05AFB4F
:10473000002002F057FB222002F054FB002002F080
:1047400051FB362002F04EFB002002F04BFB4520CF
:1047500002F048FB002002F045FB522002F042FB31
:10476000002002F03FFB642002F03CFB002002F03E
:1047700039FB7A2002F036FB002002F033FB8B205D
:1047800002F030FB002002F02DFB992002F02AFB02
:10479000002002F027FBA82002F024FB002002F0FA
:1047A00021FBB92002F01EFB002002F01BFBC420FD
:1047B00002F018FB002002F015FBCA2002F012FBE9
:1047C000002002F00FFBD22002F00CFB002002F0D0
:1047D00009FBD82002F006FB002002F003FBE020DA
:1047E00002F000FB002002F0FDFAF32002F0FAFADA
:1047F000002002F0F7FAE22002F000FB052002F0B0
:10480000F1FA002002F0EEFA0B2002F0EBFA0020A1
:1048100002F0E8FA1B2002F0E5FA002002F0E2FACA
:10482000342002F0DFFA002002F0DCFA442002F02B
:10483000D9FA002002F0D6FA4F2002F0D3FA002075
:1048400002F0D0FA612002F0CDFA002002F0CAFA9C
:10485000792002F0C7FA002002F0C4FA882002F0A2
:10486000C1FA002002F0BEFA972002F0BBFA002045
:1048700002F0B8FAA62002F0B5FA002002F0B2FA6F
:10488000B72002F0AFFA002002F0ACFAC22002F02A
:10489000A9FA002002F0A6FAC72002F0A3FA00202D
:1048A00002F0A0FAD12002F09DFA002002F09AFA5C
:1048B000D62002F097FA002002F094FADD2002F0F0
:1048C00091FA002002F08EFAF32002F08BFA002019
:1048D00002F088FAE32002F091FA052002F082FA51
:1048E000002002F07FFA0A2002F07CFA002002F099
:1048F00079FA1C2002F076FA002002F073FA3320D5
:1049000002F070FA002002F06DFA442002F06AFA18
:10491000002002F067FA502002F064FA002002F052
:1049200061FA622002F05EFA002002F05BFA782061
:1049300002F058FA002002F055FA882002F052FAEC
:10494000002002F04FFA972002F04CFA002002F00B
:1049500049FAA62002F046FA002002F043FAB720F6
:1049600002F040FA002002F03DFAC22002F03AFACA
:10497000002002F037FAC72002F034FA002002F0DB
:1049800031FAD12002F02EFA002002F02BFAD520C5
:1049900002F028FA002002F025FADD2002F022FAC7
:1049A000002002F01FFAF32002F01CFA002002F0AF
:1049B00019FAE42002F022FA012002F013FA002092
:1049C00002F010FA012002F00DFA002002F00AFABB
:1049D000022002F007FA002002F004FA2A2002F076
:1049E00001FA002002F0FEF93C2002F0FBF9002061
:1049F00002F0F8F94B2002F0F5F9002002F0F2F98C
:104A00005D2002F0EFF9002002F0ECF9742002F0D2
:104A1000E9F9002002F0E6F9842002F0E3F9002031
:104A200002F0E0F9932002F0DDF9002002F0DAF95B
:104A3000A22002F0D7F9002002F0D4F9B32002F04E
:104A4000D1F9002002F0CEF9BE2002F0CBF900200F
:104A500002F0C8F9C42002F0C5F9002002F0C2F942
:104A6000CD2002F0BFF9002002F0BCF9D32002F003
:104A7000B9F9002002F0B6F9DD2002F0B3F9002008
:104A800002F0B0F9F32002F0ADF9002002F0AAF92B
:104A9000E52002F0B3F9002002F0A4F9002002F0B2
:104AA000A1F9002002F09EF9002002F09BF90220FB
:104AB00002F098F9002002F095F9292002F092F90D
:104AC000002002F08FF93C2002F08CF9002002F067
:104AD00089F94B2002F086F9002002F083F95D206D
:104AE00002F080F9002002F07DF9742002F07AF9DA
:104AF000002002F077F9842002F074F9002002F01F
:104B000071F9932002F06EF9002002F06BF9A220F7
:104B100002F068F9002002F065F9B32002F062F9B2
:104B2000002002F05FF9BE2002F05CF9002002F0E4
:104B300059F9C42002F056F9002002F053F9CD20B3
:104B400002F050F9002002F04DF9D32002F04AF9AA
:104B5000002002F047F9DC2002F044F9002002F0C6
:104B600041F9F32002F03EF9002002F03BF9E62083
:104B700002F044F9112002F035F9002002F032F978
:104B8000342002F02FF9002002F02CF9562002F018
:104B900029F9002002F026F9762002F023F90020FE
:104BA00002F020F9772002F01DF9002002F01AF936
:104BB000662002F017F9002002F014F9882002F0B4
:104BC00011F9002002F00EF9992002F00BF90020F3
:104BD00002F008F9BB2002F005F9002002F002F90A
:104BE000992002F0FFF8002002F0FCF8662002F0A5
:104BF000F9F8002002F0F6F8552002F0F3F8002052
:104C000002F0F0F8552002F0EDF8002002F0EAF88A
:104C1000452002F0E7F8002002F0E4F8432002F01B
:104C2000E1F8002002F0DEF8442002F0DBF800207A
:104C300002F0D8F8E72002F0E1F8322002F0D2F8D2
:104C4000002002F0CFF8552002F0CCF8002002F04E
:104C5000C9F8762002F0C6F8002002F0C3F86620FA
:104C600002F0C0F8002002F0BDF8672002F0BAF8A8
:104C7000002002F0B7F8672002F0B4F8002002F03C
:104C8000B1F8872002F0AEF8002002F0ABF89920CE
:104C900002F0A8F8002002F0A5F8BB2002F0A2F86C
:104CA000002002F09FF8992002F09CF8002002F00A
:104CB00099F8772002F096F8002002F093F844204B
:104CC00002F090F8002002F08DF8562002F08AF8E9
:104CD000002002F087F8232002F084F8002002F080
:104CE00081F8332002F07EF8002002F07BF84520A6
:104CF00002F078F8002002F075F8E82002F07EF863
:104D0000002002F06FF8002002F06CF8992002F009
:104D100069F8002002F066F8872002F063F80020AE
:104D200002F060F8882002F05DF8002002F05AF8E6
:104D3000772002F057F8002002F054F8662002F0C5
:104D400051F8002002F04EF8882002F04BF80020C5
:104D500002F048F8AA2002F045F8002002F042F8DC
:104D6000BB2002F03FF8002002F03CF8992002F04E
:104D700039F8002002F036F8662002F033F80020FF
:104D800002F030F8552002F02DF8002002F02AF849
:104D9000552002F027F8002002F024F8442002F009
:104DA00021F8002002F01EF8442002F01BF8002039
:104DB00002F018F8552002F015F8002002F012F861
:104DC000E92002F01BF8AA2002F00CF8002002F003
:104DD00009F8002002F006F8002002F003F8002095
:104DE00002F00CF8AA2001F0FDFFCF2002F006F837
:104DF000002001F0F7FF002001F0F4FF002001F097
:104E0000F1FF002001F0EEFF002001F0EBFF002099
:104E100001F0E8FF002001F0E5FF002001F0E2FFD3
:104E2000002001F0DFFF002001F0DCFF002001F096
:104E3000D9FF002001F0D6FF002001F0D3FF0020B1
:104E400001F0D0FF002001F0CDFF002001F0CAFFEB
:104E5000002001F0C7FFF02001F0D0FF002001F09A
:104E6000C1FF502001F0BEFF002001F0BBFF002079
:104E700001F0B8FF002001F0B5FFF32001F0BEFF04
:104E8000002001F0AFFFF92001F0B8FF062001F08B
:104E9000A9FF102001F0A6FF292001F0A3FF0020A8
:104EA00001F0A0FF3A2001F0A9FF552001F09AFF80
:104EB000112001F0A3FF6420FDF7B4FD292001F0CB
:104EC0009DFF352001F09AFF002001F08BFF51205B
:104ED00001F094FFFF2001F085FF532001F08EFFC9
:104EE0002C2001F07FFF552001F088FF822001F087
:104EF00079FF2C2001F082FF10BD10B555214FF431
:104F0000704001F091FFAA214FF2010001F08CFFE7
:104F100052214FF2020001F087FF08214FF20300F7
:104F200001F082FF01214FF2040001F07DFF0D210D
:104F30004FF4304001F078FF0D214BF2010001F0F9
:104F400073FF0D214BF2020001F06EFF34214FF48C
:104F5000364001F069FF34214BF2016001F064FF3B
:104F600034214BF2026001F05FFF0D214FF431401C
:104F700001F05AFF0D214BF2011001F055FF0D21F8
:104F80004BF2021001F050FF34214FF4374001F092
:104F90004BFF34214BF2017001F046FF34214BF2FC
:104FA000027001F041FF00214FF4324001F03CFF5C
:104FB00000214BF2012001F037FF00214BF20220CB
:104FC00001F032FF24214FF4384001F02DFF24215D
:104FD0004BF6010001F028FF24214BF6020001F0FE
:104FE00023FF01214FF43F4001F01EFF0F214FF43A
:104FF000334001F019FF0F214BF2013001F014FF93
:105000000F214BF2023001F00FFF34214FF43940F1
:1050100001F00AFF34214BF6011001F005FF3421A5
:105020004BF6021001F000FF08214FF4354001F06B
:10503000FBFE08214BF2015001F0F6FE08214BF275
:10504000025001F0F1FE03214FF4424001F0ECFE6A
:1050500024214FF43A4001F0E7FE24214BF60120D1
:1050600001F0E2FE24214BF6022001F0DDFE0021DA
:105070004FF43C4001F0D8FE78214BF6014001F09E
:10508000D3FE00214BF6024001F0CEFE00214FF48A
:105090003D4001F0C9FE78214BF6015001F0C4FEFD
:1050A00000214BF6025001F0BFFE00214FF43E40BC
:1050B00001F0BAFE64214BF6016001F0B5FE00215B
:1050C0004FF4514001F0B0FE33214DF2011001F0D8
:1050D000ABFE00214DF2021001F0A6FE34214DF28C
:1050E000031001F0A1FE00214DF2041001F09CFE1E
:1050F0003A214DF2051001F097FE00214DF2061005
:1051000001F092FE4A214DF2071001F08DFE0021C0
:105110004DF2081001F088FE5C214DF2091001F0FB
:1051200083FE00214DF20A1001F07EFE81214DF236
:105130000B1001F079FE00214DF20C1001F074FE0D
:10514000A6214DF20D1001F06FFE00214DF20E1060
:1051500001F06AFEE5214DF20F1001F065FE01211C
:105160004DF2101001F060FE13214DF2111001F00C
:105170005BFE01214DF2121001F056FE54214DF25A
:10518000131001F051FE01214DF2141001F04CFEFC
:1051900082214DF2151001F047FE01214DF216104B
:1051A00001F042FECA214DF2171001F03DFE02212E
:1051B0004DF2181001F038FE00214DF2191001F0E7
:1051C00033FE02214DF21A1001F02EFE01214DF2A4
:1051D0001B1001F029FE02214DF21C1001F024FEEB
:1051E00034214DF21D1001F01FFE02214DF21E1060
:1051F00001F01AFE67214DF21F1001F015FE022189
:105200004DF2201001F010FE84214DF2211001F02A
:105210000BFE02214DF2221001F006FEA4214DF2F8
:10522000231001F001FE02214DF2241001F0FCFDDB
:10523000B7214DF2251001F0F7FD02214DF22610A5
:1052400001F0F2FDCF214DF2271001F0EDFD02211A
:105250004DF2281001F0E8FDDE214DF2291001F099
:10526000E3FD02214DF22A1001F0DEFDF2214DF2A4
:105270002B1001F0D9FD02214DF22C1001F0D4FDCC
:10528000FE214DF22D1001F0CFFD03214DF22E1025
:1052900001F0CAFD10214DF22F1001F0C5FD0321D0
:1052A0004DF2301001F0C0FD33214DF2311001F00C
:1052B000BBFD03214DF2321001F0B6FD6D214DF220
:1052C000331001F0B1FD00214FF4524001F0ACFD6C
:1052D00033214DF2012001F0A7FD00214DF2022003
:1052E00001F0A2FD34214DF2032001F09DFD0021CB
:1052F0004DF2042001F098FD3A214DF2052001F015
:1053000093FD00214DF2062001F08EFD4A214DF261
:10531000072001F089FD00214DF2082001F084FDF5
:105320005C214DF2092001F07FFD00214DF20A20A1
:1053300001F07AFD81214DF20B2001F075FD002175
:105340004DF20C2001F070FDA6214DF20D2001F070
:105350006BFD00214DF20E2001F066FDE5214DF2BE
:105360000F2001F061FD01214DF2102001F05CFDE4
:1053700013214DF2112001F057FD01214DF21220B1
:1053800001F052FD54214DF2132001F04DFD012199
:105390004DF2142001F048FD82214DF2152001F05C
:1053A00043FD01214DF2162001F03EFDCA214DF2D0
:1053B000172001F039FD02214DF2182001F034FDD3
:1053C00000214DF2192001F02FFD02214DF21A208B
:1053D00001F02AFD01214DF21B2001F025FD0221E3
:1053E0004DF21C2001F020FD34214DF21D2001F072
:1053F0001BFD02214DF21E2001F016FD67214DF22A
:105400001F2001F011FD02214DF2202001F00CFDC2
:1054100084214DF2212001F007FD02214DF22220CE
:1054200001F002FDA4214DF2232001F0FDFC022138
:105430004DF2242001F0F8FCB7214DF2252001F0B7
:10544000F3FC02214DF2262001F0EEFCCF214DF2BB
:10545000272001F0E9FC02214DF2282001F0E4FCB4
:10546000DE214DF2292001F0DFFC02214DF22A203D
:1054700001F0DAFCF2214DF22B2001F0D5FC0221E3
:105480004DF22C2001F0D0FCFE214DF22D2001F038
:10549000CBFC03214DF22E2001F0C6FC10214DF271
:1054A0002F2001F0C1FC03214DF2302001F0BCFCA3
:1054B00033214DF2312001F0B7FC03214DF23220AF
:1054C00001F0B2FC6D214DF2332001F0ADFC002162
:1054D0004FF4534001F0A8FC33214DF2013001F0AC
:1054E000A3FC00214DF2023001F09EFC34214DF26C
:1054F000033001F099FC00214DF2043001F094FCDE
:105500003A214DF2053001F08FFC00214DF20630BA
:1055100001F08AFC4A214DF2073001F085FC0021A0
:105520004DF2083001F080FC5C214DF2093001F0B1
:105530007BFC00214DF20A3001F076FC81214DF216
:105540000B3001F071FC00214DF20C3001F06CFCCD
:10555000A6214DF20D3001F067FC00214DF20E3016
:1055600001F062FCE5214DF20F3001F05DFC0121FC
:105570004DF2103001F058FC13214DF2113001F0C2
:1055800053FC01214DF2123001F04EFC54214DF23A
:10559000133001F049FC01214DF2143001F044FCBC
:1055A00082214DF2153001F03FFC01214DF2163001
:1055B00001F03AFCCA214DF2173001F035FC02210E
:1055C0004DF2183001F030FC00214DF2193001F09D
:1055D0002BFC02214DF21A3001F026FC01214DF284
:1055E0001B3001F021FC02214DF21C3001F01CFCAB
:1055F00034214DF21D3001F017FC02214DF21E3016
:1056000001F012FC67214DF21F3001F00DFC022168
:105610004DF2203001F008FC84214DF2213001F0E0
:1056200003FC02214DF2223001F0FEFBA4214DF2D9
:10563000233001F0F9FB02214DF2243001F0F4FB9C
:10564000B7214DF2253001F0EFFB02214DF226305B
:1056500001F0EAFBCF214DF2273001F0E5FB0221FA
:105660004DF2283001F0E0FBDE214DF2293001F04F
:10567000DBFB02214DF22A3001F0D6FBF2214DF284
:105680002B3001F0D1FB02214DF22C3001F0CCFB8C
:10569000FE214DF22D3001F0C7FB03214DF22E30DB
:1056A00001F0C2FB10214DF22F3001F0BDFB0321B0
:1056B0004DF2303001F0B8FB33214DF2313001F0C2
:1056C000B3FB03214DF2323001F0AEFB6D214DF200
:1056D000333001F0A9FB00214FF4544001F0A4FB4A
:1056E00033214DF2014001F09FFB00214DF20240B9
:1056F00001F09AFB34214DF2034001F095FB0021AB
:105700004DF2044001F090FB3A214DF2054001F0CA
:105710008BFB00214DF2064001F086FB4A214DF241
:10572000074001F081FB00214DF2084001F07CFBB5
:105730005C214DF2094001F077FB00214DF20A4057
:1057400001F072FB81214DF20B4001F06DFB002155
:105750004DF20C4001F068FBA6214DF20D4001F026
:1057600063FB00214DF20E4001F05EFBE5214DF29E
:105770000F4001F059FB01214DF2104001F054FBA4
:1057800013214DF2114001F04FFB01214DF2124067
:1057900001F04AFB54214DF2134001F045FB012179
:1057A0004DF2144001F040FB82214DF2154001F012
:1057B0003BFB01214DF2164001F036FBCA214DF2B0
:1057C000174001F031FB02214DF2184001F02CFB93
:1057D00000214DF2194001F027FB02214DF21A4041
:1057E00001F022FB01214DF21B4001F01DFB0221C3
:1057F0004DF21C4001F018FB34214DF21D4001F028
:1058000013FB02214DF21E4001F00EFB67214DF209
:105810001F4001F009FB02214DF2204001F004FB82
:1058200084214DF2214001F0FFFA02214DF2224085
:1058300001F0FAFAA4214DF2234001F0F5FA022119
:105840004DF2244001F0F0FAB7214DF2254001F06D
:10585000EBFA02214DF2264001F0E6FACF214DF29B
:10586000274001F0E1FA02214DF2284001F0DCFA74
:10587000DE214DF2294001F0D7FA02214DF22A40F3
:1058800001F0D2FAF2214DF22B4001F0CDFA0221C3
:105890004DF22C4001F0C8FAFE214DF22D4001F0EE
:1058A000C3FA03214DF22E4001F0BEFA10214DF251
:1058B0002F4001F0B9FA03214DF2304001F0B4FA63
:1058C00033214DF2314001F0AFFA03214DF2324065
:1058D00001F0AAFA6D214DF2334001F0A5FA002142
:1058E0004FF4554001F0A0FA33214DF2015001F080
:1058F0009BFA00214DF2025001F096FA34214DF24C
:10590000035001F091FA00214DF2045001F08CFA9D
:105910003A214DF2055001F087FA00214DF2065070
:1059200001F082FA4A214DF2075001F07DFA002180
:105930004DF2085001F078FA5C214DF2095001F067
:1059400073FA00214DF20A5001F06EFA81214DF2F6
:105950000B5001F069FA00214DF20C5001F064FA8D
:10596000A6214DF20D5001F05FFA00214DF20E50CC
:1059700001F05AFAE5214DF20F5001F055FA0121DC
:105980004DF2105001F050FA13214DF2115001F078
:105990004BFA01214DF2125001F046FA54214DF21A
:1059A000135001F041FA01214DF2145001F03CFA7C
:1059B00082214DF2155001F037FA01214DF21650B7
:1059C00001F032FACA214DF2175001F02DFA0221EE
:1059D0004DF2185001F028FA00214DF2195001F053
:1059E00023FA02214DF21A5001F01EFA01214DF264
:1059F0001B5001F019FA02214DF21C5001F014FA6B
:105A000034214DF21D5001F00FFA02214DF21E50CB
:105A100001F00AFA67214DF21F5001F005FA022148
:105A20004DF2205001F000FA84214DF2215001F096
:105A3000FBF902214DF2225001F0F6F9A4214DF2BA
:105A4000235001F0F1F902214DF2245001F0ECF95C
:105A5000B7214DF2255001F0E7F902214DF2265011
:105A600001F0E2F9CF214DF2275001F0DDF90221DA
:105A70004DF2285001F0D8F9DE214DF2295001F005
:105A8000D3F902214DF22A5001F0CEF9F2214DF264
:105A90002B5001F0C9F902214DF22C5001F0C4F94C
:105AA000FE214DF22D5001F0BFF903214DF22E5091
:105AB00001F0BAF910214DF22F5001F0B5F9032190
:105AC0004DF2305001F0B0F933214DF2315001F078
:105AD000ABF903214DF2325001F0A6F96D214DF2E0
:105AE000335001F0A1F900214FF4564001F09CF928
:105AF00033214DF2016001F097F900214DF202606F
:105B000001F092F934214DF2036001F08DF900218A
:105B10004DF2046001F088F93A214DF2056001F080
:105B200083F900214DF2066001F07EF94A214DF221
:105B3000076001F079F900214DF2086001F074F975
:105B40005C214DF2096001F06FF900214DF20A600D
:105B500001F06AF981214DF20B6001F065F9002135
:105B60004DF20C6001F060F9A6214DF20D6001F0DC
:105B70005BF900214DF20E6001F056F9E5214DF27E
:105B80000F6001F051F901214DF2106001F04CF964
:105B900013214DF2116001F047F901214DF212601D
:105BA00001F042F954214DF2136001F03DF9012159
:105BB0004DF2146001F038F982214DF2156001F0C8
:105BC00033F901214DF2166001F02EF9CA214DF290
:105BD000176001F029F902214DF2186001F024F953
:105BE00000214DF2196001F01FF902214DF21A60F7
:105BF00001F01AF901214DF21B6001F015F90221A3
:105C00004DF21C6001F010F934214DF21D6001F0DD
:105C10000BF902214DF21E6001F006F967214DF2E9
:105C20001F6001F001F902214DF2206001F0FCF843
:105C300084214DF2216001F0F7F802214DF222603B
:105C400001F0F2F8A4214DF2236001F0EDF80221F9
:105C50004DF2246001F0E8F8B7214DF2256001F023
:105C6000E3F802214DF2266001F0DEF8CF214DF27B
:105C7000276001F0D9F802214DF2286001F0D4F834
:105C8000DE214DF2296001F0CFF802214DF22A60A9
:105C900001F0CAF8F2214DF22B6001F0C5F80221A3
:105CA0004DF22C6001F0C0F8FE214DF22D6001F0A4
:105CB000BBF803214DF22E6001F0B6F810214DF231
:105CC0002F6001F0B1F803214DF2306001F0ACF823
:105CD00033214DF2316001F0A7F803214DF232601B
:105CE00001F0A2F86D214DF2336001F09DF85521CD
:105CF0004FF4704001F098F8AA214FF2010001F032
:105D000093F852214FF2020001F08EF808214FF271
:105D1000030001F089F800214FF2040001F084F83B
:105D2000CC214FF4314001F07FF800214BF20110FB
:105D300001F07AF805214FF4364001F075F8702132
:105D40004FF4374001F070F870214BF2017001F010
:105D50006BF801214FF4384001F066F803214BF64F
:105D6000010001F061F803214BF6020001F05CF83C
:105D700003214BF6030001F057F802214FF43C4099
:105D800001F052F800214BF6014001F04DF80021DE
:105D90004BF6024001F048F8D0214FF4494001F0A1
:105DA00043F802214CF6011001F03EF850214CF668
:105DB000021001F039F850214CF6031001F034F8CC
:105DC00050214CF6041001F02FF800214FF45450EC
:105DD00001F02AF855214FF4685001F025F84FF4EE
:105DE000885001F00BF87820FCF726FE4FF4245081
:105DF00001F004F810BD10B5E22000F0FFFF1D20F7
:105E000000F0F0FF022000F0EDFF042000F0EAFFB8
:105E10006420FCF711FEE02000F0F0FF012000F00C
:105E2000E1FF0A20FCF7FEFDE02000F0E7FF032081
:105E300000F0D8FF0C20FCF7F5FD012000F0DEFF9C
:105E40000A20FCF7EFFDE62000F0D8FF2F2000F03D
:105E5000C9FFFF2000F0C6FFFF2000F0C3FFB02005
:105E600000F0CCFF202000F0BDFF002000F0BAFFC2
:105E7000032000F0B7FF40F21F3000F0B3FF012015
:105E800000F0B0FF40F2DF1000F0ACFF002000F0A7
:105E9000A9FFB42000F0B2FF042000F0A3FF40F2FD
:105EA0001F4000F09FFF002000F09CFF2E2000F01C
:105EB00099FF002000F096FF002000F093FF0020E3
:105EC00000F090FF002000F08DFFB62000F096FF5C
:105ED000022000F087FF4FF4037000F083FF0020E2
:105EE00000F080FF172000F07DFF152000F07AFF02
:105EF000002000F077FF002000F074FFF02000F099
:105F00007DFF032000F06EFF292000F077FFD020F6
:105F100000F074FF002000F065FFBE2000F06EFF6F
:105F2000052000F05FFFFE2000F05CFF012000F084
:105F300059FF002000F056FF002000F053FF002022
:105F400000F050FFB82000F059FF032000F04AFF96
:105F5000012000F047FFBA2000F050FF012000F0C0
:105F600041FF10BD10B5112000F048FF7820FCF76C
:105F700059FD362000F042FF002000F033FF3A20A8
:105F800000F03CFF052000F02DFFB22000F036FFAE
:105F90000C2000F027FF0C2000F024FF002000F070
:105FA00021FF332000F01EFF332000F01BFFB7203D
:105FB00000F024FF352000F015FFBB2000F01EFF8D
:105FC000322000F00FFFC02000F018FF0C2000F07E
:105FD00009FFC22000F012FF012000F003FFC320E0
:105FE00000F00CFF102000F0FDFEC42000F006FFC2
:105FF000202000F0F7FEC62000F000FF0F2000F088
:10600000F1FED02000F0FAFEA42000F0EBFEA1206B
:1060100000F0E8FEE02000F0F1FED02000F0E2FE0B
:10602000002000F0DFFE022000F0DCFE072000F080
:10603000D9FE0A2000F0D6FE282000F0D3FE322040
:1060400000F0D0FE442000F0CDFE422000F0CAFE59
:10605000062000F0C7FE0E2000F0C4FE122000F063
:10606000C1FE142000F0BEFE172000F0BBFEE120B0
:1060700000F0C4FED02000F0B5FE002000F0B2FE1B
:10608000022000F0AFFE072000F0ACFE0A2000F076
:10609000A9FE282000F0A6FE312000F0A3FE542027
:1060A00000F0A0FE472000F09DFE0E2000F09AFEBA
:1060B0001C2000F097FE172000F094FE1B2000F03B
:1060C00091FE1E2000F08EFE2A2000F097FE002098
:1060D00000F088FE002000F085FE002000F082FE27
:1060E000EF2000F07FFE2B2000F088FE002000F063
:1060F00079FE002000F076FE012000F073FE3F20C4
:1061000000F070FE292000F079FE10BD10B51120BE
:1061100000F074FE7820FCF785FC362000F06EFE5F
:10612000482000F05FFE3A2000F068FE552000F0A5
:1061300059FEF02000F062FEC32000F053FEF02074
:1061400000F05CFE962000F04DFEB42000F056FEFC
:10615000012000F047FEB62000F050FE0A2000F0BB
:1061600041FEA22000F03EFEB72000F047FEC62010
:1061700000F038FEB92000F041FE022000F032FEAF
:10618000E02000F02FFEC02000F038FE802000F05C
:1061900029FE162000F026FEC12000F02FFE192057
:1061A00000F020FEC22000F029FEA72000F01AFE19
:1061B000C52000F023FE162000F014FEE82000F0B9
:1061C0001DFE402000F00EFE8A2000F00BFE002095
:1061D00000F008FE002000F005FE292000F002FE7D
:1061E000192000F0FFFDA52000F0FCFD332000F099
:1061F000F9FDE02000F002FEF02000F0F3FD0720A2
:1062000000F0F0FD0D2000F0EDFD042000F0EAFDAF
:10621000052000F0E7FD142000F0E4FD362000F03A
:10622000E1FD542000F0DEFD4C2000F0DBFD3820C5
:1062300000F0D8FD132000F0D5FD142000F0D2FDB1
:106240002E2000F0CFFD342000F0CCFDE12000F046
:10625000D5FDF02000F0C6FD102000F0C3FD142095
:1062600000F0C0FD0E2000F0BDFD0C2000F0BAFDD6
:10627000082000F0B7FD352000F0B4FD442000F008
:10628000B1FD4C2000F0AEFD262000F0ABFD10204B
:1062900000F0A8FD122000F0A5FD2C2000F0A2FDCA
:1062A000322000F09FFDF02000F0A8FD3C2000F01F
:1062B00099FDF02000F0A2FD692000F093FD782008
:1062C000FCF7B0FB212000F099FD292000F096FD9D
:1062D00010BD00002DE9F04F05460E4617469846C2
:1062E000DDF824A04FF0000B781B401C1FFA80FB48
:1062F000344613E02146284600F0E4FB00F08AFD16
:106300004FF0000906E00749A1F800A009F10100DB
:106310001FFA80F9D945F6DB601C84B24445E9DDFB
:10632000BDE8F08F0008006C2DE9F04F0746884665
:1063300016469A4640F2C32070434FF47A71B0FB80
:10634000F1F000F1010906FB06F000EB560B3446B4
:1063500071040A0CB91B88B253464146FDF71CFB79
:10636000012535E005FB05F004FB040058451AD96A
:106370004C4517D96B1E5B041A0C08EB040399B249
:106380007B1B5B1C98B25346FDF706FB6B1E5B0440
:106390001A0CA8EB040399B27B1B5B1C98B2534602
:1063A000FDF7FAFA641E63041A0C08EB050399B2B0
:1063B0003B1B98B25346FDF7EFFA63041A0CA8EBA7
:1063C000050399B23B1B98B25346FDF7E5FA6D1CE5
:1063D0004D45C7D9BDE8F08F1CB500BFFA488069AC
:1063E00040F48070F849886100BF00BF08468069AA
:1063F00040F02000886100BF00BF0846806940F07F
:106400002000886100BF00BF0846806940F48070AA
:10641000886100BF00BF0846806940F008008861BD
:1064200000BF0846806940F0600088610846406906
:1064300040F4807048610120032100230222CDE94D
:1064400000100103E14800F09FFE0120032100231A
:106450000222CDE900102021DD4800F095FE012048
:10646000032100230222CDE900101021D84800F0BA
:106470008BFE0120032100230222CDE900100146FA
:10648000D24800F081FE0120032100230246CDE91D
:1064900000100146CF4800F077FE012003210023C1
:1064A0000222CDE900104CF20371C94800F06CFEE5
:1064B0000120032100230222CDE900104FF6807154
:1064C000C54800F061FE00204FF020418861C8619E
:1064D000C24908604FF02040806940F480504FF07E
:1064E000204188610846806940F480408861084600
:1064F000806940F0100088610846C069C86108469C
:10650000C069C8610846C06940F47060C861B3489A
:106510000068C1F81C01B1480068C1F81C010846B8
:10652000D0F81C0140F48070C1F81C010846806955
:1065300040F0010088610846806940F000408861B1
:10654000A74800F08FF9D32000F058FC00F090F934
:10655000A449888000F08CF9A249888000F088F96D
:10656000A0498880084680884FF6FF7101EA002024
:106570009C49888000F07CF99A49898808439949A8
:1065800088800846808849F2413188427ED00420C4
:1065900000F034FC00F06CF99249888000F068F952
:1065A0009049888000F064F98E4988800846808888
:1065B0004FF6FF7101EA00208A49888000F058F9FF
:1065C000884989880843874988800846808848F236
:1065D0005251884203D147F28970824988808148AC
:1065E000808847F289718842D0D0D42000F006FC20
:1065F00000F03EF97B49888000F03AF979498880BB
:1066000000F036F977498880084680884FF6FF7198
:1066100001EA00207349888000F02AF971498988CD
:106620000843704988800846808845F210318842C6
:10663000ACD0D32000F0E2FB00F01AF96949888061
:1066400000F016F96749888000F012F965498880E2
:10665000084680884FF6FF7101EA00206149888072
:1066600000F006F95F49898808435E49888008463A
:10667000808847F29671884288D055214FF4704047
:1066800000F0D2FBAA214FF2010000E07CE000F014
:10669000CBFB52214FF2020000F0C6FB08214FF263
:1066A000030000F0C1FB01214FF2040000F0BCFB2D
:1066B0004FF4454000F0A2FB00F0DAF84949888029
:1066C000084680884FF6FF7101EA0020454988801E
:1066D0004CF2015000F092FB00F0CAF84149898861
:1066E0000843404988800520FCF79CF93D48808894
:1066F00045F21051884247D0D32000F07FFB00F0D4
:10670000B7F83849888000F0B3F83649888000F03F
:10671000AFF834498880084680884FF6FF7101EA57
:1067200000203049888000F0A3F82E49898808436A
:106730002C4988800846808849F60601884223D083
:10674000A12000F05BFB00F093F82649888000F060
:106750008FF824498880084680884FF6FF7101EA47
:1067600000202049888000F083F81E49898808436A
:106770001C4988800846808845F26171884203D1AF
:1067800041F66310174988801648818816A0FAF7E9
:1067900051FD1448808847F28971884202D1FFF781
:1067A000E1FB4DE00F48808849F24131884202D137
:1067B000FDF774F944E00B48808845F210318842B7
:1067C00018D1FDF721FC3BE0001002400020014001
:1067D00000140140000C0140001801401C0100A001
:1067E000FFFF01002CD100204C43442049443A25AE
:1067F000780D0A001948808847F29671884202D1C4
:10680000FFF784FC1CE01548808845F2105188424F
:1068100002D1FEF772FB13E01048808849F60601AA
:10682000884202D1FDF750FA0AE00C48808841F610
:106830006311884204D1FFF7DEFA642000F0A8FA61
:106840000020FCF733FF01221146054800F090FCC0
:106850004FF6FF70FCF710FF1CBD00002CD100208C
:10686000000C014000BF011EA0F10100FBD17047E8
:1068700008B50220FFF7F6FF024800880090BDF837
:10688000000008BD0008006CF0B505460024002794
:106890008B488079012805D18948808841F66311A9
:1068A000884208D186488079F0B98548808841F6C9
:1068B0006311884218D1082D15D2DFE805F00406CF
:1068C000080A0C0E101206250DE007250BE0042522
:1068D00009E0052507E0012505E0002503E0032583
:1068E00001E0022500BF00BF082D1CD2DFE805F043
:1068F0000406090C0F12151800BF14E044F08004C0
:1069000011E044F040040EE044F0C0040BE044F019
:10691000200408E044F0600405E044F0A00402E034
:1069200044F0E00400BF00BF36276548808845F288
:106930001051884200D13F026148808849F24131BC
:1069400088420BD05E48808847F28971884205D022
:106950005B48808847F29671884201D144F0080470
:106960002146384600F060FA5548808841F66311A8
:1069700088421DD004F0200068B151480088504979
:106980004988884214DA4E48068840884C49088075
:10699000084646800CE04A480088494949888842B0
:1069A00006DD4748068840884549088008464680F5
:1069B0004348808845F21051884252D14049488965
:1069C00000F01CFA002000F00DFA3D494989491CED
:1069D00088B200F013FA002000F004FA384949891F
:1069E000891C88B200F00AFA35490988491EC1F3AA
:1069F0000F2000F0F7F932494989C91C88B200F02C
:106A0000FDF92F490978491EC8B200F0EBF92C496D
:106A1000888900F0F3F9002000F0E4F92849898919
:106A2000491C88B200F0EAF9002000F0DBF92449A3
:106A30008989891C88B200F0E1F921494988491EF9
:106A4000C1F30F2000F0CEF91D498989C91C88B215
:106A500000F0D4F91A498978491EC8B200F0C2F989
:106A60002DE01749488900F0C9F9002000F0BAF973
:106A7000002000F0B7F912490988491EC1F30F2020
:106A800000F0B0F90E490978491EC8B200F0AAF921
:106A90000B49888900F0B2F9002000F0A3F900202A
:106AA00000F0A0F906494988491EC1F30F2000F003
:106AB00099F903498978491EC8B200F093F9F0BDED
:106AC0002CD1002010B502460C464548808841F67E
:106AD0006311884247D142488079A8B9404800886C
