:020000040800F2
:1000000000000120F108000839090008390900083A
:100010003909000839090008390900080000000002
:100020000000000000000000000000003909000886
:1000300039090008000000003909000839090008E2
:100040003909000839090008390900083909000888
:10005000390900083909000815080008390900089D
:10006000E9070008B90700087D07000839090008FA
:100070003909000839090008390900083909000858
:100080003909000839090008390900083909000848
:100090003909000839090008390900083909000838
:1000A0003909000839090008390900083909000828
:1000B0003909000839090008390900083909000818
:1000C0003909000839090008390900083909000808
:1000D000390900082902000839090008390900080F
:1000E00039090008390900083909000839090008E8
:1000F00039090008390900083909000839090008D8
:1001000039090008390900083909000839090008C7
:1001100039090008390900083909000839090008B7
:1001200039090008390900083909000839090008A7
:1001300000000000000000000000000000000000BF
:1001400000000000000000000000000000000000AF
:10015000000000000000000000000000000000009F
:10016000000000000000000000000000000000008F
:10017000000000000000000000000000000000007F
:10018000000000000000000000000000000000006F
:10019000000000000000000000000000000000005F
:1001A000000000000000000000000000000000004F
:1001B000000000000000000000000000000000003F
:1001C000000000000000000000000000000000002F
:1001D000000000000000000000000000000000001F
:0401E0005FF8E0F1F3
:1001E40010B5054C237833B9044B13B10448AFF36D
:1001F40000800123237010BD0400002000000000D3
:10020400500A000808B5034B1BB103490348AFF378
:10021400008008BD0000000008000020500A00080B
:1002240070470000114B1B6813F0200F1CD00F4BBC
:100234005A68D2B20A2A0FD010B40D490B88C3F3FE
:100244000D000C4C225401339BB20B80C72B01D9F7
:1002540000220A8010BC7047054A13886FEA4343A2
:100264006FEA534313807047704700BF0038014062
:1002740020000020240000202DE9F04182B0064631
:100284000C46254B9A6942F004029A619A6942F03D
:1002940004029A619A6942F480429A611F4F4FF0B6
:1002A4000108CDF8048003250095002302224FF4B1
:1002B4000071384600F036F9CDF80480009500232B
:1002C4001A464FF48061384600F02CF924FA08F3FA
:1002D400134800FB0630B0FBF4F0124CA06000237E
:1002E400E360E368E360E36843F00803E360E36822
:1002F40043F00403E360E36843F02003E360022374
:1003040025222946284600F09DF8E36843F400536B
:10031400E36002B0BDE8F081001002400008014033
:1003240040420F00003801404FF0E0231A6942F0C8
:1003340004021A61044A10601A6942F001021A6147
:100344006FF070425A617047EC00002010B44FF017
:10035400E02254690B4B1B6800FB03FC93690021EA
:1003640004E0E01A02441144614509D21A464FF0F0
:10037400E0239B699A42FAD0F3D9D21A1144F3E7E5
:1003840010BC7047EC00002008B54FF47A7303FBEF
:1003940000F0FFF7DBFF08BDC3431B0203F4E06377
:1003A4000649CA6822F4E0621204120C42F0BF62E9
:1003B40042F400321343CB60704700BF00ED00E00D
:1003C400194A136843F480331360174B1B6813F402
:1003D400003FFAD0144B4FF480525A6002385A68E6
:1003E40042EA80425A605A6842F480325A600F4AA4
:1003F40010211160116841F0020111601A6842F085
:1004040080721A60084B1B685B0EFBD0064A536867
:1004140043F002035360044B5B68C3F38103022B74
:10042400F9D10120704700BF0010024000200240B3
:1004340021F4FF7121F001010143014B99607047E0
:1004440000ED00E0F8B507460C4616461D46184672
:10045400FFF7A2FFC5F1040307FA03F10F232B41B1
:1004640004EA030570090A4C54F8203006F01F070B
:100474000122BA40134344F82030344494F8003342
:10048400294301F00F0143EA011384F80033F8BD56
:1004940000E100E0F0B500F14046A6F58436B60A66
:1004A4001D48836943F001038361002300E00133A5
:1004B4000F2B30D80120984030EA0104F7D103F023
:1004C400030E4FEA8E0E4FEA930C144C0CF1020CFF
:1004D40054F82C500F2707FA0EF725EA070544F8BD
:1004E4002C5054F82C5006FA0EFE45EA0E0544F83A
:1004F4002C500B4D2C6804432C6012F0010F02D0D9
:10050400EC680443EC6012F0020FD0D0044DAC68E8
:100514002043A860CBE7F0BD00100240000001407A
:10052400000401402DE9F041069E079D4FF0000CA8
:100534001DE006F003074FEA830E0EF0040E4EEAA8
:10054400070E4EEAC40EBCF1070F33D807684FEA12
:100554008C044FF00F0808FA04F827EA080707602C
:1005640007680EFA04F43C4304600CF1010CBCF17E
:100574000F0F31D84FF0010E0EFA0CFE3EEA0104C3
:10058400F3D1541E012CD4D972B985B1C46824EABC
:100594000E04C460C46805F0010707FA0CF73C4375
:1005A400C4604FF0080ECEE74FF0000ECBE74FF0DB
:1005B400040EC8E74768ACF10804A4004FF00F0824
:1005C40008FA04F827EA0807476047680EFA04FEA9
:1005D40047EA0E074760C8E7BDE8F08112F0010F53
:1005E40003D00369194301617047036943EA014376
:1005F400036170478368194201D0012070470020CD
:100604007047000010B5144B00241C61DC605C6171
:100614009C61DC611A6842F001021A6059680F4A51
:100624000A405A601A6822F0847222F480321A60F6
:100634001A6822F480221A605A6822F4FE025A6070
:100644004FF41F029A60FFF7BBFE21464FF0006093
:10065400FFF7EEFE10BD00BF001002400000FFF8DF
:1006640010B582B00B4A936943F0080393610A4CB6
:1006740001220192009200234FF480712046FFF77B
:1006840051FF00224FF480712046FFF7A7FF02B00C
:1006940010BD00BF00100240000C014030B583B013
:1006A4001A4B9A6942F040029A619A6942F04002F8
:1006B4009A619A6942F040029A619A6942F004028E
:1006C4009A61134D01240194009400231A461021C9
:1006D4002846FFF727FF0194009400231A460821B7
:1006E4002846FFF71FFF0194009400231A460421B3
:1006F4002846FFF717FF02230193009400231A46AC
:1007040021460448FFF70EFF03B030BD001002403D
:10071400001801400008014070B582B0134B9A697B
:1007240042F008029A619A6942F040029A61104EBE
:100734000124019400940023224620213046FFF72F
:10074400F1FE0C4D019400940023224620212846FA
:10075400FFF7E8FE224620213046FFF73FFF2246FE
:1007640020212846FFF73AFF02B070BD0010024076
:10077400000C01400018014008B51420FFF704FEE6
:100784001021094B59610948FFF734FF50B9084A51
:10079400D36883F02003D36002F54062D36883F00A
:1007A4002003D36008BD00BF0004014000180140CD
:1007B400000C014008B51420FFF7E6FD0821064BA4
:1007C40059610648FFF716FF20B9054AD36883F03C
:1007D4002003D36008BD00BF00040140001801409D
:1007E400000C014008B51420FFF7CEFD0421064B90
:1007F40059610648FFF7FEFE20B9044AD36883F026
:100804002003D36008BD00BF00040140001801406C
:1008140008B51420FFF7B8FD0121074B59610748BB
:10082400FFF7E8FE012800D008BD054AD36883F429
:100834008073D360F8E700BF000401400008014062
:10084400000C014010B5FFF729FF174C01221021BD
:100854002046FFF71FFE012208212046FFF71AFE5B
:10086400012204212046FFF715FE022201210F4830
:10087400FFF710FE02230A2219460020FFF7E2FDCB
:100884000223092219460120FFF7DCFD0223082276
:1008940019461846FFF7D6FD0223062219460320FF
:1008A400FFF7D0FD10BD00BF001801400008014053
:1008B40008B50920FFF7A6FE4820FFF735FD4FF4E1
:1008C400E1314820FFF7D8FCFFF726FFFFF7C8FE09
:1008D400FFF7B8FF002220210348FFF77FFE4FF403
:1008E4007A70FFF751FDFAE7000C0140FFF798FC1E
:1008F4000B480C490C4A002302E0D458C45004337A
:10090400C4188C42F9D3094A094C002301E013604E
:100914000432A242FBD300F00FF8FFF7C9FF70477F
:100924000000002004000020740A000804000020D5
:1009340088020020FEE7000070B500260C4D0D4C27
:10094400641BA410A64209D100F080F800260A4DC9
:100954000A4C641BA410A64205D170BD55F8043B93
:1009640098470136EEE755F8043B98470136F2E71D
:10097400680A0008680A0008680A0008700A000883
:1009840070477047024B13B1024800F005B8704736
:1009940000000000A9090008002301461A46184671
:1009A40000F014B838B5074D074C641BA4101CB9EB
:1009B400BDE8384000F050B8013C55F82430984761
:1009C400F5E700BF700A0008740A00082DE9F04733
:1009D400DFF86CA00646DAF8000098460F46914608
:1009E400FFF7CEFF174B1C680CB9174C1C606568E9
:1009F400DAF800001F2D05DDFFF7C3FF4FF0FF30CD
:100A0400BDE8F0879EB1012204EB8501C1F888900E
:100A1400D4F88831AA401343C4F88831022EC1F8AF
:100A2400088102BFD4F88C311343C4F88C316B1C99
:100A34000235636044F82570FFF7A3FF0020DFE769
:100A440000000020F4000020F8000020F8B500BFEA
:100A5400F8BC08BC9E467047F8B500BFF8BC08BC9B
:040A64009E467047F3
:080A68008909000809020008D9
:040A7000E501000894
:040A7400F00000206E
:04000005080008F1F6
:00000001FF
