:020000040800F2
:1000000000000120A9090008F1090008F109000811
:10001000F1090008F1090008F109000800000000DA
:10002000000000000000000000000000F1090008CE
:10003000F109000800000000F1090008F1090008BA
:10004000F1090008F1090008F1090008F1090008A8
:10005000F1090008F1090008F1090008F109000898
:10006000F1090008F1090008F1090008F109000888
:10007000F1090008F1090008F1090008F109000878
:10008000F1090008F1090008F1090008F109000868
:10009000F1090008F1090008F1090008F109000858
:1000A000F1090008F1090008F1090008F109000848
:1000B00099060008D5050008F1090008F1090008B3
:1000C000F1090008F1090008F1090008F109000828
:1000D000F109000829020008F1090008F1090008E7
:1000E000F1090008F1090008F1090008F109000808
:1000F000F1090008F1090008F1090008F1090008F8
:10010000F1090008F1090008FD050008F1090008DF
:10011000F1090008F1090008F1090008F1090008D7
:10012000F1090008F1090008F1090008F1090008C7
:1001300000000000000000000000000000000000BF
:1001400000000000000000000000000000000000AF
:10015000000000000000000000000000000000009F
:10016000000000000000000000000000000000008F
:10017000000000000000000000000000000000007F
:10018000000000000000000000000000000000006F
:10019000000000000000000000000000000000005F
:1001A000000000000000000000000000000000004F
:1001B000000000000000000000000000000000003F
:1001C000000000000000000000000000000000002F
:1001D000000000000000000000000000000000001F
:0401E0005FF8E0F1F3
:1001E40010B5054C237833B9044B13B10448AFF36D
:1001F40000800123237010BD0800002000000000CF
:10020400080B000808B5034B1BB103490348AFF3BF
:10021400008008BD000000000C000020080B00084E
:1002240070470000114B1B6813F0200F1CD00F4BBC
:100234005A68D2B20A2A0FD010B40D490B88C3F3FE
:100244000D000C4C225401339BB20B80C72B01D9F7
:1002540000220A8010BC7047054A13886FEA4343A2
:100264006FEA534313807047704700BF0038014062
:1002740024000020280000202DE9F04182B0064629
:100284000C46254B9A6942F004029A619A6942F03D
:1002940004029A619A6942F480429A611F4F4FF0B6
:1002A4000108CDF8048003250095002302224FF4B1
:1002B4000071384600F0EEF8CDF804800095002374
:1002C4001A464FF48061384600F0E4F824FA08F343
:1002D400134800FB0630B0FBF4F0124CA06000237E
:1002E400E360E368E360E36843F00803E360E36822
:1002F40043F00403E360E36843F02003E360022374
:1003040025222946284600F09DF8E36843F400536B
:10031400E36002B0BDE8F081001002400008014033
:1003240040420F00003801404FF0E0231A6942F0C8
:1003340004021A61044A10601A6942F001021A6147
:100344006FF070425A617047F000002010B44FF013
:10035400E02254690B4B1B6800FB03FC93690021EA
:1003640004E0E01A02441144614509D21A464FF0F0
:10037400E0239B699A42FAD0F3D9D21A1144F3E7E5
:1003840010BC7047F000002008B54FF47A7303FBEB
:1003940000F0FFF7DBFF08BDC3431B0203F4E06377
:1003A4000649CA6822F4E0621204120C42F0BF62E9
:1003B40042F400321343CB60704700BF00ED00E00D
:1003C400194A136843F480331360174B1B6813F402
:1003D400003FFAD0144B4FF480525A6002385A68E6
:1003E40042EA80425A605A6842F480325A600F4AA4
:1003F40010211160116841F0020111601A6842F085
:1004040080721A60084B1B685B0EFBD0064A536867
:1004140043F002035360044B5B68C3F38103022B74
:10042400F9D10120704700BF0010024000200240B3
:1004340021F4FF7121F001010143014B99607047E0
:1004440000ED00E0F8B507460C4616461D46184672
:10045400FFF7A2FFC5F1040307FA03F10F232B41B1
:1004640004EA030570090A4C54F8203006F01F070B
:100474000122BA40134344F82030344494F8003342
:10048400294301F00F0143EA011384F80033F8BD56
:1004940000E100E02DE9F041069E079D4FF0000CBD
:1004A4001DE006F003074FEA830E0EF0040E4EEA39
:1004B400070E4EEAC40EBCF1070F33D807684FEAA3
:1004C4008C044FF00F0808FA04F827EA08070760BD
:1004D40007680EFA04F43C4304600CF1010CBCF10F
:1004E4000F0F31D84FF0010E0EFA0CFE3EEA010454
:1004F400F3D1541E012CD4D972B985B1C46824EA4D
:100504000E04C460C46805F0010707FA0CF73C4305
:10051400C4604FF0080ECEE74FF0000ECBE74FF06B
:10052400040EC8E74768ACF10804A4004FF00F08B4
:1005340008FA04F827EA0807476047680EFA04FE39
:1005440047EA0E074760C8E7BDE8F08112F0010FE3
:1005540003D00369194301617047036943EA014306
:10056400036170478368194201D00120704700205D
:100574007047000010B5144B00241C61DC605C6102
:100584009C61DC611A6842F001021A6059680F4AE2
:100594000A405A601A6822F0847222F480321A6087
:1005A4001A6822F480221A605A6822F4FE025A6001
:1005B4004FF41F029A60FFF703FF21464FF00060DB
:1005C400FFF736FF10BD00BF001002400000FFF827
:1005D400074B1B6913F0010F04D0064AD36883F05C
:1005E4002003D360024A136923F0010313617047A7
:1005F4000004004000180140234B1A69234B19786A
:1006040093F90030002B20DB12F0010F09D011F018
:10061400400F06D001F03F033F2B1AD001311B4B92
:10062400197012F0020F10D0184B1B7813F0400F02
:100634001DD063F07F03154A1370134B596B144A92
:1006440011601A6A22F002021A620F4B00221A6128
:1006540070470D48036A23F00203036261F07F01CF
:100664000A4B19700A4B4FF6FF711960D9E7002243
:10067400074B1A60054B40211970034B5A621A6AE2
:1006840042F002021A62E0E7000C0040FC00002085
:10069400F80000204FF080431B6913F0010F03D0D2
:1006A400044A1368013313604FF0804300221A6137
:1006B400704700BFF400002070B582B00646214B9D
:1006C400DA6942F00102DA61DA6942F00102DA61C0
:1006D40002240194032500950023224601211A488F
:1006E400FFF7D8FE4FF080434FF6FF72DA629E6246
:1006F4009A6942F001029A619A699A619A699A61C7
:100704001A6A42F001021A621A6A1A629A6842F07C
:1007140050029A609A6842F007029A605A6942F05D
:1007240001025A61DA6842F00102DA601A6842F0A2
:1007340001021A6023461C2229460120FFF782FE8B
:1007440002B070BD0010024000080140034B18685D
:100754004FF080435B6A03EB00407047F4000020D5
:100764004FF080431A6802F001021A600022044923
:100774000A605A621A6842F001021A60704700BFA8
:10078400F400002070B582B0134B9A6942F008025D
:100794009A619A6942F040029A61104E01240194D0
:1007A40000940023224620213046FFF773FE0C4DAF
:1007B400019400940023224620212846FFF76AFE74
:1007C400224620213046FFF7C1FE2246202128463A
:1007D400FFF7BCFE02B070BD00100240000C0140E7
:1007E4000018014030B583B01A4B9A6942F04002B8
:1007F4009A619A6942F040029A619A6942F0400211
:100804009A619A6942F004029A61134D0124019499
:10081400009400231A4610212846FFF73BFE01945A
:10082400009400231A4608212846FFF733FE01945A
:10083400009400231A4604212846FFF72BFE0223C6
:100844000193009400231A4621460448FFF722FE30
:1008540003B030BD00100240001801400008014000
:1008640010B510B1314B01221A70304B1B78002B9C
:1008740035D010212E48FFF775FE20B108212C48F1
:10088400FFF770FEF8B90A20FFF77EFD274B002220
:100894001A7010212648FFF765FE48B3002408218A
:1008A4002348FFF75FFE00B9022404212048FFF724
:1008B40059FE00B9032401211E48FFF753FE012805
:1008C40014D1042412E004211948FFF74BFE002838
:1008D400D9D001211748FFF745FE0128D3D01021B4
:1008E4001348FFF73FFE012804D00024204610BD22
:1008F4000124D4E708210E48FFF734FE012801D073
:100904000024F3E704210A48FFF72CFE012801D054
:100914000024EBE701210748FFF724FE044618B939
:10092400024B01221A70E1E70024DFE700000020F7
:10093400001801400008014038B50920FFF71AFEED
:100944004820FFF7F1FC4FF4E1314820FFF794FC15
:10095400FFF718FFFFF746FF0020FFF7ADFEFFF794
:10096400FFFE002425460FE0FFF7FAFE11E00134F4
:10097400E4B2142C05D90A4AD36883F02003D36067
:1009840000240A20FFF700FD0020FFF769FF01287B
:10099400EAD0FFF7DBFE8542E9D00546E7E700BF72
:1009A400000C0140FFF73CFC0B480C490C4A0023A7
:1009B40002E0D458C4500433C4188C42F9D3094A11
:1009C400094C002301E013600432A242FBD300F07F
:1009D4000FF8FFF7B1FF7047000000200800002067
:1009E4002C0B00080800002094020020FEE7000001
:1009F40070B500260C4D0D4C641BA410A64209D101
:100A040000F080F800260A4D0A4C641BA410A6428C
:100A140005D170BD55F8043B98470136EEE755F80B
:100A2400043B98470136F2E7200B0008200B00082E
:100A3400200B0008280B000870477047024B13B1C5
:100A4400024800F005B8704700000000610A000881
:100A5400002301461A46184600F014B838B5074D6D
:100A6400074C641BA4101CB9BDE8384000F050B812
:100A7400013C55F824309847F5E700BF280B0008DF
:100A84002C0B00082DE9F047DFF86CA00646DAF8D5
:100A9400000098460F469146FFF7CEFF174B1C689F
:100AA4000CB9174C1C606568DAF800001F2D05DDD1
:100AB400FFF7C3FF4FF0FF30BDE8F0879EB101227E
:100AC40004EB8501C1F88890D4F88831AA40134317
:100AD400C4F88831022EC1F8088102BFD4F88C31E1
:100AE4001343C4F88C316B1C0235636044F82570E1
:100AF400FFF7A3FF0020DFE704000020000100202F
:100B040004010020F8B500BFF8BC08BC9E4670473D
:0C0B1400F8B500BFF8BC08BC9E46704756
:080B2000410A00080902000867
:040B2800E5010008DB
:080B2C0001000000FD000020A3
:04000005080009A93D
:00000001FF
