:020000040800F2
:1000000000000120D90B0008210C0008210C000879
:10001000210C0008210C0008210C00080000000041
:10002000000000000000000000000000210C00089B
:10003000210C000800000000210C0008210C000821
:10004000210C0008210C0008210C0008210C0008DC
:10005000210C0008210C0008210C0008210C0008CC
:10006000210C0008210C0008210C0008210C0008BC
:10007000210C0008210C0008210C0008210C0008AC
:10008000210C0008210C0008210C0008210C00089C
:10009000210C0008210C0008210C0008210C00088C
:1000A000210C0008210C0008210C0008210C00087C
:1000B000210C0008210C0008210C0008210C00086C
:1000C000210C0008210C0008210C0008210C00085C
:1000D000210C000889080008210C0008210C0008E8
:1000E000210C0008210C0008210C0008210C00083C
:1000F000210C0008210C0008210C0008210C00082C
:10010000210C0008210C0008210C0008210C00081B
:10011000210C0008210C0008210C0008210C00080B
:10012000210C0008210C0008210C0008210C0008FB
:1001300000000000000000000000000000000000BF
:1001400000000000000000000000000000000000AF
:10015000000000000000000000000000000000009F
:10016000000000000000000000000000000000008F
:10017000000000000000000000000000000000007F
:10018000000000000000000000000000000000006F
:10019000000000000000000000000000000000005F
:1001A000000000000000000000000000000000004F
:1001B000000000000000000000000000000000003F
:1001C000000000000000000000000000000000002F
:1001D000000000000000000000000000000000001F
:0401E0005FF8E0F1F3
:1001E40010B5054C237833B9044B13B10448AFF36D
:1001F40000800123237010BD0400002000000000D3
:100204006C0C000808B5034B1BB103490348AFF35A
:10021400008008BD00000000080000206C0C0008ED
:1002240081F0004102E000BF83F0004330B54FEAA3
:1002340041044FEA430594EA050F08BF90EA020F10
:100244001FBF54EA000C55EA020C7FEA645C7FEAA3
:10025400655C00F0E2804FEA5454D4EB5555B8BFC6
:100264006D420CDD2C4480EA020281EA030382EA37
:10027400000083EA010180EA020281EA0303362DC9
:1002840088BF30BD11F0004F4FEA01314FF4801C9C
:100294004CEA113102D0404261EB410113F0004FAE
:1002A4004FEA03334CEA133302D0524263EB430365
:1002B40094EA050F00F0A780A4F10104D5F1200E03
:1002C4000DDB02FA0EFC22FA05F2801841F100015E
:1002D40003FA0EF2801843FA05F359410EE0A5F132
:1002E40020050EF1200E012A03FA0EFC28BF4CF063
:1002F400020C43FA05F3C01851EBE37101F0004519
:1003040007D54FF0000EDCF1000C7EEB00006EEB25
:100314000101B1F5801F1BD3B1F5001F0CD34908AF
:100324005FEA30004FEA3C0C04F101044FEA445206
:1003340012F5800F80F09A80BCF1004F08BF5FEA8D
:10034400500C50F1000041EB045141EA050130BD6D
:100354005FEA4C0C404141EB0101013C28BFB1F57F
:10036400801FE9D291F0000F04BF01460020B1FACA
:1003740081F308BF2033A3F10B03B3F120020CDA9D
:100384000C3208DD02F1140CC2F10C0201FA0CF07B
:1003940021FA02F10CE002F11402D8BFC2F1200CE0
:1003A40001FA02F120FA0CFCDCBF41EA0C01904096
:1003B400E41AA2BF01EB0451294330BD6FEA0404DF
:1003C4001F3C1CDA0C340EDC04F11404C4F12002CA
:1003D40020FA04F001FA02F340EA030021FA04F3DC
:1003E40045EA030130BDC4F10C04C4F1200220FA33
:1003F40002F001FA04F340EA0300294630BD21FA71
:1004040004F0294630BD94F0000F83F4801306BF36
:1004140081F480110134013D4EE77FEA645C18BF2A
:100424007FEA655C29D094EA050F08BF90EA020FC1
:1004340005D054EA000C04BF1946104630BD91EAB9
:10044400030F1EBF0021002030BD5FEA545C05D1BC
:100454004000494128BF41F0004130BD14F58004FB
:100464003CBF01F5801130BD01F0004545F0FE416F
:1004740041F470014FF0000030BD7FEA645C1ABFA4
:10048400194610467FEA655C1CBF0B46024650EADB
:10049400013406BF52EA033591EA030F41F4002107
:1004A40030BD00BF90F0000F04BF0021704730B58D
:1004B4004FF4806404F132044FF000054FF0000162
:1004C40050E700BF90F0000F04BF0021704730B523
:1004D4004FF4806404F1320410F0004548BF4042F8
:1004E4004FF000013EE700BF42004FEAE2014FEA4D
:1004F40031014FEA02701FBF12F07F4393F07F4F28
:1005040081F06051704732F07F4208BF704793F02A
:100514007F4F04BF41F40021704730B54FF460743D
:1005240001F0004521F000411CE700BF50EA010240
:1005340008BF704730B54FF000050AE050EA0102E9
:1005440008BF704730B511F0004502D5404261EB59
:1005540041014FF4806404F132045FEA915C3FF49A
:10056400D8AE4FF003025FEADC0C18BF03325FEA37
:10057400DC0C18BF033202EBDC02C2F1200300FAE8
:1005840003FC20FA02F001FA03FE40EA0E0021FA0D
:1005940002F11444BDE600BF4A0011D212F5001264
:1005A40011D20DD56FF47873B3EB62520ED44FEAC7
:1005B400C12343F0004343EA505323FA02F0704747
:1005C4004FF00000704750EA013002D14FF0FF3085
:1005D40070474FF000007047704700004FF0E02371
:1005E4001A6942F004021A61044A10601A6942F05E
:1005F40001021A616FF070425A61704720000020B6
:1006040010B44FF0E02254690B4B1B6800FB03FC51
:100614009369002104E0E01A02441144614509D2BF
:100624001A464FF0E0239B699A42FAD0F3D9D21AC2
:100634001144F3E710BC70472000002008B54FF4C4
:100644007A7303FB00F0FFF7DBFF08BDC3431B0213
:1006540003F4E0630649CA6822F4E0621204120C4F
:1006640042F0BF6242F400321343CB60704700BFD4
:1006740000ED00E021F4FF7121F001010143014B81
:100684009960704700ED00E0F8B507460C46164641
:100694001D461846FFF7DAFFC5F1040307FA03F114
:1006A4000F232B4104EA030570090A4C54F8203047
:1006B40006F01F070122BA40134344F820303444A3
:1006C40094F80033294301F00F0143EA011384F83D
:1006D4000033F8BD00E100E02DE9F041069E079DDE
:1006E4004FF0000C1DE006F003074FEA830E0EF0F6
:1006F400040E4EEA070E4EEAC40EBCF1070F33D8BF
:1007040007684FEA8C044FF00F0808FA04F827EA48
:100714000807076007680EFA04F43C4304600CF110
:10072400010CBCF10F0F31D84FF0010E0EFA0CFE84
:100734003EEA0104F3D1541E012CD4D972B985B117
:10074400C46824EA0E04C460C46805F0010707FA0B
:100754000CF73C43C4604FF0080ECEE74FF0000E98
:10076400CBE74FF0040EC8E74768ACF10804A400D7
:100774004FF00F0808FA04F827EA080747604768AB
:100784000EFA04FE47EA0E074760C8E7BDE8F081A9
:1007940012F0010F03D00369194301617047036923
:1007A40043EA0143036170478368194201D0012081
:1007B4007047002070470000194A136843F48033DF
:1007C4001360174B1B6813F4003FFAD0144B4FF41B
:1007D40080525A6002385A6842EA80425A605A6823
:1007E40042F480325A600F4A10211160116841F0BE
:1007F400020111601A6842F080721A60084B1B688B
:100804005B0EFBD0064A536843F002035360044B6B
:100814005B68C3F38103022BF9D10120704700BF49
:10082400001002400020024010B5144B00241C614B
:10083400DC6014225A619C61DC611A6842F0010296
:100844001A6059680E4A0A405A601A6822F0847283
:1008540022F480321A601A6822F480221A605A68DC
:1008640022F4FE025A604FF41F029A60FFF7A4FFBD
:1008740021464FF00060FFF7FDFE10BD001002405E
:100884000000FFF8114B1B6813F0200F1CD00F4B16
:100894005A68D2B20A2A0FD010B40D490B88C3F398
:1008A4000D000C4C225401339BB20B80C72B01D991
:1008B40000220A8010BC7047054A13886FEA43433C
:1008C4006FEA534313807047704700BF00380140FC
:1008D40024000020280000202DE9F04182B00446C5
:1008E4000E46284B9A6942F004029A619A6942F0D2
:1008F40004029A619A6942F480429A61224F4FF04D
:100904000108CDF8048003250095002302224FF44A
:1009140000713846FFF7E0FECDF80480009500230F
:100924001A464FF480613846FFF7D6FE174804FB99
:1009340000F0B0FBF6F0FFF7B5FD0022144BFFF713
:1009440075FCFFF729FE134CA0600023E360E36805
:10095400E360E36843F00803E360E36843F00403FF
:10096400E360E36843F02003E36002232522294681
:100974002846FFF789FEE36843F40053E36002B0BE
:10098400BDE8F081001002400008014040420F0021
:100994000000E03F0038014008B50920FFF744FF9C
:1009A4004820FFF71BFE4FF4E1314820FFF794FF86
:1009B40000F01EF800F064F86420FFF73FFE40F2F8
:1009C4007121042000F044F8002220210748FFF799
:1009D400DFFE04E000F04CF80A20FFF72FFE0120B0
:1009E40000F08CF80428F5D0F6E700BF000C0140B5
:1009F40070B582B0134B9A6942F008029A619A6901
:100A040042F040029A61104E0124019400940023A4
:100A1400224620213046FFF75FFE0C4D01940094DE
:100A24000023224620212846FFF756FE2246202195
:100A34003046FFF7ADFE224620212846FFF7A8FEE8
:100A440002B070BD00100240000C014000180140CB
:100A5400064B45F255521A60586099604AF6AA222C
:100A64001A604CF6CC421A60704700BF0030004058
:100A7400024B4AF6AA221A60704700BF00300040B9
:100A840030B583B01A4B9A6942F040029A619A6970
:100A940042F040029A619A6942F040029A619A696E
:100AA40042F004029A61134D01240194009400233E
:100AB4001A4610212846FFF70FFE019400940023E4
:100AC4001A4608212846FFF707FE019400940023E4
:100AD4001A4604212846FFF7FFFD022301930094E0
:100AE40000231A4621460448FFF7F6FD03B030BD43
:100AF40000100240001801400008014010B510B178
:100B0400314B01221A70304B1B78002B35D0102149
:100B14002E48FFF749FE20B108212C48FFF744FE78
:100B2400F8B90A20FFF78AFD274B00221A7010211A
:100B34002648FFF739FE48B3002408212348FFF76D
:100B440033FE00B9022404212048FFF72DFE00B92A
:100B5400032401211E48FFF727FE012814D1042491
:100B640012E004211948FFF71FFE0028D9D0012103
:100B74001748FFF719FE0128D3D010211348FFF7B7
:100B840013FE012804D00024204610BD0124D4E71C
:100B940008210E48FFF708FE012801D00024F3E7DE
:100BA40004210A48FFF700FE012801D00024EBE7E6
:100BB40001210748FFF7F8FD044618B9024B01224A
:100BC4001A70E1E70024DFE700000020001801406C
:100BD40000080140FFF700FD0B480C490C4A0023B4
:100BE40002E0D458C4500433C4188C42F9D3094ADF
:100BF400094C002301E013600432A242FBD300F04D
:100C04000FF8FFF7C9FE7047000000200400002021
:100C14008C0C000804000020F0000020FEE7000017
:100C240070B500260C4D0D4C641BA410A64209D1CE
:100C340000F01AF800260A4D0A4C641BA410A642C0
:100C440005D170BD55F8043B98470136EEE755F8D9
:100C5400043B98470136F2E7840C0008840C000832
:100C6400840C0008880C0008F8B500BFF8BC08BC68
:100C74009E467047F8B500BFF8BC08BC9E46704756
:040C84000902000859
:040C8800E50100087A
:040C8C000100000063
:0400000508000BD90B
:00000001FF
