:020000040800F2
:100000000000012095050008DD050008DD05000859
:10001000DD050008DD050008DD0500080000000022
:10002000000000000000000000000000DD050008E6
:10003000DD05000800000000DD050008DD05000802
:10004000DD050008DD050008DD050008DD05000808
:10005000DD050008DD050008DD050008DD050008F8
:10006000DD050008DD050008DD050008DD050008E8
:10007000DD050008DD050008DD050008DD050008D8
:10008000DD050008DD050008DD050008DD050008C8
:10009000DD050008DD050008DD050008DD050008B8
:1000A000DD050008DD050008DD050008DD050008A8
:1000B000DD050008DD050008DD050008DD05000898
:1000C000DD050008DD050008DD050008DD05000888
:1000D000DD05000849040008DD050008DD0500080D
:1000E000DD050008DD050008DD050008DD05000868
:1000F000DD050008DD050008DD050008DD05000858
:10010000DD050008DD050008DD050008DD05000847
:10011000DD050008DD050008DD050008DD05000837
:10012000DD050008DD050008DD050008DD05000827
:1001300000000000000000000000000000000000BF
:1001400000000000000000000000000000000000AF
:10015000000000000000000000000000000000009F
:10016000000000000000000000000000000000008F
:10017000000000000000000000000000000000007F
:10018000000000000000000000000000000000006F
:10019000000000000000000000000000000000005F
:1001A000000000000000000000000000000000004F
:1001B000000000000000000000000000000000003F
:1001C000000000000000000000000000000000002F
:1001D000000000000000000000000000000000001F
:0401E0005FF8E0F1F3
:1001E40010B5054C237833B9044B13B10448AFF36D
:1001F40000800123237010BD0400002000000000D3
:10020400F406000808B5034B1BB103490348AFF3D8
:10021400008008BD0000000008000020F40600086B
:10022400704700004FF0E0231A6942F004021A619B
:10023400044A10601A6942F001021A616FF07042B8
:100244005A6170472000002010B44FF0E022546936
:100254000B4B1B6800FB03FC9369002104E0E01ACC
:1002640002441144614509D21A464FF0E0239B69C8
:100274009A42FAD0F3D9D21A1144F3E710BC70476A
:100284002000002008B54FF47A7303FB00F0FFF759
:10029400DBFF08BD194A136843F480331360174B1E
:1002A4001B6813F4003FFAD0144B4FF480525A6089
:1002B40002385A6842EA80425A605A6842F48032EC
:1002C4005A600F4A10211160116841F00201116057
:1002D4001A6842F080721A60084B1B685B0EFBD0F0
:1002E400064A536843F002035360044B5B68C3F34C
:1002F4008103022BF9D10120704700BF0010024096
:100304000020024021F4FF7121F001010143014B5F
:100314009960704700ED00E02DE9F041069E079DCD
:100324004FF0000C1DE006F003074FEA830E0EF0B9
:10033400040E4EEA070E4EEAC40EBCF1070F33D882
:1003440007684FEA8C044FF00F0808FA04F827EA0C
:100354000807076007680EFA04F43C4304600CF1D4
:10036400010CBCF10F0F31D84FF0010E0EFA0CFE48
:100374003EEA0104F3D1541E012CD4D972B985B1DB
:10038400C46824EA0E04C460C46805F0010707FACF
:100394000CF73C43C4604FF0080ECEE74FF0000E5C
:1003A400CBE74FF0040EC8E74768ACF10804A4009B
:1003B4004FF00F0808FA04F827EA0807476047686F
:1003C4000EFA04FE47EA0E074760C8E7BDE8F0816D
:1003D40012F0010F03D003691943016170470369E7
:1003E40043EA01430361704710B5144B00241C61B8
:1003F400DC605C619C61DC611A6842F001021A6095
:1004040059680F4A0A405A601A6822F0847222F42A
:1004140080321A601A6822F480221A605A6822F420
:10042400FE025A604FF41F029A60FFF733FF214621
:100434004FF00060FFF766FF10BD00BF00100240E0
:100444000000FFF8114B1B6813F0200F1CD00F4B5A
:100454005A68D2B20A2A0FD010B40D490B88C3F3DC
:100464000D000C4C225401339BB20B80C72B01D9D5
:1004740000220A8010BC7047054A13886FEA434380
:100484006FEA534313807047704700BF0038014040
:10049400240000202800002070B582B0134B9A6914
:1004A40042F008029A619A6942F040029A61104E41
:1004B4000124019400940023224620213046FFF7B2
:1004C4002BFF0C4D01940094002322462021284642
:1004D400FFF722FF224620213046FFF779FF22460C
:1004E40020212846FFF774FF02B070BD00100240BF
:1004F400000C01400018014010B582B00B4A93690A
:1005040043F0080393610A4C0122019200920023F4
:100514004FF480712046FFF7FFFE00224FF48071F4
:100524002046FFF755FF02B010BD00BF0010024087
:10053400000C014008B50920FFF756FF4820FFF7DB
:1005440071FEFFF7A9FFFFF7D7FF104C002220210F
:100554002046FFF73DFF00224FF480712046FFF74D
:1005640037FF4FF49670FFF78DFE012220212046BD
:10057400FFF72EFF01224FF480712046FFF728FF7A
:100584004FF49670FFF77EFEDFE700BF000C0140DA
:10059400FFF746FE0B480C490C4A002302E0D458EE
:1005A400C4500433C4188C42F9D3094A094C0023BB
:1005B40001E013600432A242FBD300F00FF8FFF70E
:1005C400B9FF70470000002004000020180700084D
:1005D4000400002088020020FEE7000070B5002619
:1005E4000C4D0D4C641BA410A64209D100F080F8F8
:1005F40000260A4D0A4C641BA410A64205D170BD06
:1006040055F8043B98470136EEE755F8043B984704
:100614000136F2E70C0700080C0700080C07000875
:100624001407000870477047024B13B1024800F0EA
:1006340005B87047000000004D060008002301467D
:100644001A46184600F014B838B5074D074C641B19
:10065400A4101CB9BDE8384000F050B8013C55F86E
:1006640024309847F5E700BF14070008180700086E
:100674002DE9F047DFF86CA00646DAF8000098464A
:100684000F469146FFF7CEFF174B1C680CB9174C69
:100694001C606568DAF800001F2D05DDFFF7C3FF55
:1006A4004FF0FF30BDE8F0879EB1012204EB8501D5
:1006B400C1F88890D4F88831AA401343C4F888312B
:1006C400022EC1F8088102BFD4F88C311343C4F858
:1006D4008C316B1C0235636044F82570FFF7A3FF6F
:1006E4000020DFE700000020F4000020F8000020D4
:1006F400F8B500BFF8BC08BC9E467047F8B500BF0B
:08070400F8BC08BC9E467047DA
:08070C002D0600080902000897
:04071400E5010008F3
:04071800F0000020CD
:040000050800059555
:00000001FF
