:020000040800F2
:10000000000001205D0A0008A50A0008A50A0008F2
:10001000A50A0008A50A0008A50A000800000000BB
:10002000000000000000000000000000A50A000819
:10003000A50A000800000000A50A0008A50A00089B
:10004000A50A0008A50A0008A50A0008A50A0008D4
:10005000A50A0008A50A0008A50A0008A50A0008C4
:10006000A50A0008A50A0008A50A0008A50A0008B4
:10007000A50A0008A50A0008A50A0008A50A0008A4
:10008000A50A0008A50A0008A50A0008A50A000894
:10009000A50A0008A50A0008A50A0008A50A000884
:1000A000A50A0008A50A0008A50A0008A50A000874
:1000B0007509000831080008A50A0008A50A00080B
:1000C000A50A0008A50A0008A50A0008A50A000854
:1000D000A50A000829020008A50A0008A50A0008C8
:1000E000A50A0008A50A0008A50A0008A50A000834
:1000F00021080008A50A000829080008A50A000828
:10010000A50A0008A50A0008E1080008A50A0008D9
:10011000A50A0008A50A0008A50A0008A50A000803
:10012000A50A0008A50A0008A50A0008A50A0008F3
:1001300000000000000000000000000000000000BF
:1001400000000000000000000000000000000000AF
:10015000000000000000000000000000000000009F
:10016000000000000000000000000000000000008F
:10017000000000000000000000000000000000007F
:10018000000000000000000000000000000000006F
:10019000000000000000000000000000000000005F
:1001A000000000000000000000000000000000004F
:1001B000000000000000000000000000000000003F
:1001C000000000000000000000000000000000002F
:1001D000000000000000000000000000000000001F
:0401E0005FF8E0F1F3
:1001E40010B5054C237833B9044B13B10448AFF36D
:1001F40000800123237010BD0400002000000000D3
:10020400BC0B000808B5034B1BB103490348AFF30B
:10021400008008BD0000000008000020BC0B00089E
:1002240070470000114B1B6813F0200F1CD00F4BBC
:100234005A68D2B20A2A0FD010B40D490B88C3F3FE
:100244000D000C4C225401339BB20B80C72B01D9F7
:1002540000220A8010BC7047054A13886FEA4343A2
:100264006FEA534313807047704700BF0038014062
:1002740020000020240000202DE9F04182B0064631
:100284000C46254B9A6942F004029A619A6942F03D
:1002940004029A619A6942F480429A611F4F4FF0B6
:1002A4000108CDF8048003250095002302224FF4B1
:1002B4000071384600F010F9CDF804800095002351
:1002C4001A464FF48061384600F006F924FA08F320
:1002D400134800FB0630B0FBF4F0124CA06000237E
:1002E400E360E368E360E36843F00803E360E36822
:1002F40043F00403E360E36843F02003E360022374
:1003040025222946284600F09DF8E36843F400536B
:10031400E36002B0BDE8F081001002400008014033
:1003240040420F00003801404FF0E0231A6942F0C8
:1003340004021A61044A10601A6942F001021A6147
:100344006FF070425A617047EC00002010B44FF017
:10035400E02254690B4B1B6800FB03FC93690021EA
:1003640004E0E01A02441144614509D21A464FF0F0
:10037400E0239B699A42FAD0F3D9D21A1144F3E7E5
:1003840010BC7047EC00002008B54FF47A7303FBEF
:1003940000F0FFF7DBFF08BDC3431B0203F4E06377
:1003A4000649CA6822F4E0621204120C42F0BF62E9
:1003B40042F400321343CB60704700BF00ED00E00D
:1003C400194A136843F480331360174B1B6813F402
:1003D400003FFAD0144B4FF480525A6002385A68E6
:1003E40042EA80425A605A6842F480325A600F4AA4
:1003F40010211160116841F0020111601A6842F085
:1004040080721A60084B1B685B0EFBD0064A536867
:1004140043F002035360044B5B68C3F38103022B74
:10042400F9D10120704700BF0010024000200240B3
:1004340021F4FF7121F001010143014B99607047E0
:1004440000ED00E0F8B507460C4616461D46184672
:10045400FFF7A2FFC5F1040307FA03F10F232B41B1
:1004640004EA030570090A4C54F8203006F01F070B
:100474000122BA40134344F82030344494F8003342
:10048400294301F00F0143EA011384F80033F8BD56
:1004940000E100E010B40E4CA36943F00103A36132
:1004A40000239C4605E04FEA4C0C0CF1010C01338F
:1004B400DBB28B42F7D3074B59680CFA00FC21EAF4
:1004C4000C015960596882400A435A6010BC704755
:1004D40000100240000001402DE9F041069E079DF6
:1004E4004FF0000C1DE006F003074FEA830E0EF0F8
:1004F400040E4EEA070E4EEAC40EBCF1070F33D8C1
:1005040007684FEA8C044FF00F0808FA04F827EA4A
:100514000807076007680EFA04F43C4304600CF112
:10052400010CBCF10F0F31D84FF0010E0EFA0CFE86
:100534003EEA0104F3D1541E012CD4D972B985B119
:10054400C46824EA0E04C460C46805F0010707FA0D
:100554000CF73C43C4604FF0080ECEE74FF0000E9A
:10056400CBE74FF0040EC8E74768ACF10804A400D9
:100574004FF00F0808FA04F827EA080747604768AD
:100584000EFA04FE47EA0E074760C8E7BDE8F081AB
:1005940012F0010F03D00369194301617047036925
:1005A40043EA01430361704710B5144B00241C61F6
:1005B400DC605C619C61DC611A6842F001021A60D3
:1005C40059680F4A0A405A601A6822F0847222F469
:1005D40080321A601A6822F480221A605A6822F45F
:1005E400FE025A604FF41F029A60FFF7E9FE2146AB
:1005F4004FF00060FFF71CFF10BD00BF0010024069
:100604000000FFF872B6704762B6704730B583B029
:10061400274B9A6942F010029A619A6942F4005297
:100624009A61022501950324009400231A4640216F
:100634002048FFF751FF204B4FF6FF72DA62002289
:100644009A629A6942F001029A619A6942F40072CC
:100654009A611A6A1A621A6A42F020021A629A6845
:1006640042F050029A609A6842F004029A601A6A50
:1006740042F001021A621A6A42F010021A62DA683F
:1006840042F00102DA60DA682A43DA601A6842F05A
:1006940001021A602B462C2221460120FFF7D2FECC
:1006A4002B462E2221460120FFF7CCFE03B030BD9D
:1006B40000100240001001400034014008B5FFF76B
:1006C400A1FF00220B4B1A700B4B1A800B4B9A6242
:1006D4005A62D96841F00201D960D96841F0010138
:1006E400D960196841F0010119601A61FFF78CFFA4
:1006F40008BD00BFFE000020FC00002000340140C3
:10070400404B1B78002B3ED13F4B1B6913F0010F6C
:1007140008D03D4B1A6922F001021A611B6913F0DB
:10072400020F37D0394B1B78002B58D0364B1B693E
:1007340013F0020F62D010B5334B9A6B501C34493E
:1007440008605B6B591C334C2160884253D22D499D
:10075400012008703049098821B902322C490A6005
:10076400023323600021294B1970274B1A6822F0A9
:1007740001021A601961DA6822F00702DA60224B7A
:1007840000221A6110BD0023234A13801E4A1361FC
:10079400536270471D4B00221A701F4B1B8853B9BC
:1007A40001331D4A13801C4B1A88174B9A6200228E
:1007B4005A621A6170474FF6FF72934206D013F4DF
:1007C400004F07D15B00144A1380ECE7124B002260
:1007D4001A80E8E7104B4FF6FF721A80E3E70A4BE2
:1007E4001B6913F0020F02D0084B01221A70064B4A
:1007F40000221A617047FFF761FFC0E7024B002235
:100804001A617047FE00002000340140F00000200F
:10081400F8000020F4000020FC00002008B5FFF7D9
:100824006FFF08BD08B5FFF76BFF08BD074B1B69D9
:1008340013F0010F04D0064AD36883F02003D36079
:10084400024A136923F00103136170470004004056
:100854000018014030B583B005460C461C4B9A691C
:1008640042F008029A61DA6942F00202DA61012375
:100874000193032300930023022220211548FFF74C
:100884002BFE022211460A20FFF704FE124BDD6202
:100894009C625A6C42F400425A649A6942F4C0421F
:1008A4009A619A6942F400629A611A6A42F01002EB
:1008B4001A621A6A42F020021A621A6842F080022E
:1008C4001A601A6842F001021A6003B030BD00BF1A
:1008D40000100240000C014000040040214B1A6942
:1008E400214B197893F90030002B20DB12F0010F13
:1008F40009D011F0400F06D001F03F033F2B1AD06E
:100904000131194B197012F0020F10D0164B1B78DD
:1009140013F0400F18D063F07F03134A1370114B88
:10092400596B124A11601A6A22F002021A620D4BC4
:1009340000221A61704761F07F010B4B19700B4B59
:100944004FF6FF711960DEE70022084B1A60064B70
:1009540040211970034B5A621A6A42F002021A6269
:10096400E5E700BF000C004008010020040100205E
:100974004FF080431B6913F0010F03D0044A13683E
:10098400013313604FF0804300221A61704700BFA7
:100994000001002070B582B0134B9A6942F008023E
:1009A4009A619A6942F040029A61104E01240194BE
:1009B40000940023224620213046FFF78DFD0C4D84
:1009C400019400940023224620212846FFF784FD49
:1009D400224620213046FFF7DBFD2246202128460F
:1009E400FFF7D6FD02B070BD00100240000C0140BC
:1009F4000018014010B50920FFF7D6FD4820FFF785
:100A040093FC4FF4E1314820FFF736FCFFF7C2FFB7
:100A140047210920FFF71EFFFFF7F8FD0B4B0222C9
:100A24009A6304E00A4AD36883F02003D360002465
:100A34000A20FFF7A9FC0134E4B2132CF8D9054BC2
:100A44001B88002BEED0FFF739FEEBE700040040D3
:100A540000180140FE000020FFF7E2FB0B480C49A0
:100A64000C4A002302E0D458C4500433C4188C4206
:100A7400F9D3094A094C002301E013600432A2426D
:100A8400FBD300F00FF8FFF7B5FF7047000000201C
:100A940004000020E00B000804000020A002002055
:100AA400FEE7000070B500260C4D0D4C641BA4102D
:100AB400A64209D100F080F800260A4D0A4C641BB6
:100AC400A410A64205D170BD55F8043B98470136E1
:100AD400EEE755F8043B98470136F2E7D40B0008DB
:100AE400D40B0008D40B0008DC0B000870477047D7
:100AF400024B13B1024800F005B870470000000033
:100B0400150B0008002301461A46184600F014B8D5
:100B140038B5074D074C641BA4101CB9BDE8384018
:100B240000F050B8013C55F824309847F5E700BF71
:100B3400DC0B0008E00B00082DE9F047DFF86CA09F
:100B44000646DAF8000098460F469146FFF7CEFFB6
:100B5400174B1C680CB9174C1C606568DAF8000068
:100B64001F2D05DDFFF7C3FF4FF0FF30BDE8F08711
:100B74009EB1012204EB8501C1F88890D4F8883134
:100B8400AA401343C4F88831022EC1F8088102BF79
:100B9400D4F88C311343C4F88C316B1C0235636078
:100BA40044F82570FFF7A3FF0020DFE700000020D2
:100BB4000C01002010010020F8B500BFF8BC08BCEF
:100BC4009E467047F8B500BFF8BC08BC9E46704707
:080BD400F50A000809020008FF
:040BDC00E501000827
:040BE00009010020E7
:0400000508000A5D88
:00000001FF
