:020000040800F2
:100000000000012071070008B9070008B9070008BF
:10001000B9070008B9070008B90700080000000088
:10002000000000000000000000000000B907000808
:10003000B907000800000000B9070008B907000868
:10004000B9070008B9070008B9070008B907000890
:10005000B9070008B9070008B9070008B907000880
:10006000B9070008B9070008B9070008B907000870
:10007000B9070008B9070008B9070008B907000860
:10008000B9070008B9070008B9070008B907000850
:10009000B9070008B9070008B9070008B907000840
:1000A000B9070008B9070008B9070008B907000830
:1000B000B907000809060008B9070008B9070008D1
:1000C000B9070008B9070008B9070008B907000810
:1000D000B907000829020008B9070008B907000895
:1000E000B9070008B9070008B9070008B9070008F0
:1000F000B9070008B9070008B9070008B9070008E0
:10010000B9070008B9070008B9070008B9070008CF
:10011000B9070008B9070008B9070008B9070008BF
:10012000B9070008B9070008B9070008B9070008AF
:1001300000000000000000000000000000000000BF
:1001400000000000000000000000000000000000AF
:10015000000000000000000000000000000000009F
:10016000000000000000000000000000000000008F
:10017000000000000000000000000000000000007F
:10018000000000000000000000000000000000006F
:10019000000000000000000000000000000000005F
:1001A000000000000000000000000000000000004F
:1001B000000000000000000000000000000000003F
:1001C000000000000000000000000000000000002F
:1001D000000000000000000000000000000000001F
:0401E0005FF8E0F1F3
:1001E40010B5054C237833B9044B13B10448AFF36D
:1001F40000800123237010BD0400002000000000D3
:10020400D008000808B5034B1BB103490348AFF3FA
:10021400008008BD0000000008000020D00800088D
:1002240070470000114B1B6813F0200F1CD00F4BBC
:100234005A68D2B20A2A0FD010B40D490B88C3F3FE
:100244000D000C4C225401339BB20B80C72B01D9F7
:1002540000220A8010BC7047054A13886FEA4343A2
:100264006FEA534313807047704700BF0038014062
:1002740020000020240000202DE9F04182B0064631
:100284000C46254B9A6942F004029A619A6942F03D
:1002940004029A619A6942F480429A611F4F4FF0B6
:1002A4000108CDF8048003250095002302224FF4B1
:1002B4000071384600F010F9CDF804800095002351
:1002C4001A464FF48061384600F006F924FA08F320
:1002D400134800FB0630B0FBF4F0124CA06000237E
:1002E400E360E368E360E36843F00803E360E36822
:1002F40043F00403E360E36843F02003E360022374
:1003040025222946284600F09DF8E36843F400536B
:10031400E36002B0BDE8F081001002400008014033
:1003240040420F00003801404FF0E0231A6942F0C8
:1003340004021A61044A10601A6942F001021A6147
:100344006FF070425A617047EC00002010B44FF017
:10035400E02254690B4B1B6800FB03FC93690021EA
:1003640004E0E01A02441144614509D21A464FF0F0
:10037400E0239B699A42FAD0F3D9D21A1144F3E7E5
:1003840010BC7047EC00002008B54FF47A7303FBEF
:1003940000F0FFF7DBFF08BDC3431B0203F4E06377
:1003A4000649CA6822F4E0621204120C42F0BF62E9
:1003B40042F400321343CB60704700BF00ED00E00D
:1003C400194A136843F480331360174B1B6813F402
:1003D400003FFAD0144B4FF480525A6002385A68E6
:1003E40042EA80425A605A6842F480325A600F4AA4
:1003F40010211160116841F0020111601A6842F085
:1004040080721A60084B1B685B0EFBD0064A536867
:1004140043F002035360044B5B68C3F38103022B74
:10042400F9D10120704700BF0010024000200240B3
:1004340021F4FF7121F001010143014B99607047E0
:1004440000ED00E0F8B507460C4616461D46184672
:10045400FFF7A2FFC5F1040307FA03F10F232B41B1
:1004640004EA030570090A4C54F8203006F01F070B
:100474000122BA40134344F82030344494F8003342
:10048400294301F00F0143EA011384F80033F8BD56
:1004940000E100E010B40E4CA36943F00103A36132
:1004A40000239C4605E04FEA4C0C0CF1010C01338F
:1004B400DBB28B42F7D3074B59680CFA00FC21EAF4
:1004C4000C015960596882400A435A6010BC704755
:1004D40000100240000001402DE9F041069E079DF6
:1004E4004FF0000C1DE006F003074FEA830E0EF0F8
:1004F400040E4EEA070E4EEAC40EBCF1070F33D8C1
:1005040007684FEA8C044FF00F0808FA04F827EA4A
:100514000807076007680EFA04F43C4304600CF112
:10052400010CBCF10F0F31D84FF0010E0EFA0CFE86
:100534003EEA0104F3D1541E012CD4D972B985B119
:10054400C46824EA0E04C460C46805F0010707FA0D
:100554000CF73C43C4604FF0080ECEE74FF0000E9A
:10056400CBE74FF0040EC8E74768ACF10804A400D9
:100574004FF00F0808FA04F827EA080747604768AD
:100584000EFA04FE47EA0E074760C8E7BDE8F081AB
:1005940012F0010F03D00369194301617047036925
:1005A40043EA01430361704710B5144B00241C61F6
:1005B400DC605C619C61DC611A6842F001021A60D3
:1005C40059680F4A0A405A601A6822F0847222F469
:1005D40080321A601A6822F480221A605A6822F45F
:1005E400FE025A604FF41F029A60FFF7E9FE2146AB
:1005F4004FF00060FFF71CFF10BD00BF0010024069
:100604000000FFF8074B1B6913F0010F04D0064AE2
:10061400D36883F02003D360024A136923F00103F3
:1006240013617047000400400018014030B583B0E6
:1006340005460C461C4B9A6942F008029A61DA6935
:1006440042F00202DA6101230193032300930023A1
:10065400022220211548FFF73FFF022211460A20FB
:10066400FFF718FF124BDD629C625A6C42F40042A1
:100674005A649A6942F4C0429A619A6942F40062E7
:100684009A611A6A42F010021A621A6A42F020024F
:100694001A621A6842F080021A601A6842F0010273
:1006A4001A6003B030BD00BF00100240000C0140CE
:1006B4000004004070B582B0134B9A6942F00802FE
:1006C4009A619A6942F040029A61104E01240194A1
:1006D40000940023224620213046FFF7FDFE0C4DF6
:1006E400019400940023224620212846FFF7F4FEBB
:1006F400224620213046FFF74BFF22462021284680
:10070400FFF746FF02B070BD00100240000C01402C
:100714000018014038B50920FFF746FF4820FFF7CD
:1007240003FE4FF4E1314820FFF7A6FDFFF7C2FFB7
:10073400472140F2F310FFF779FF0125002405E07B
:10074400013CA4B209E00025074B9C630A20FFF793
:100754001BFE002DF4D00134A4B2B4F5967FF2D878
:10076400002CF1D10125EFE700040040FFF758FD0C
:100774000B480C490C4A002302E0D458C4500433FB
:10078400C4188C42F9D3094A094C002301E01360D0
:100794000432A242FBD300F00FF8FFF7BBFF70470F
:1007A4000000002004000020F408000804000020D9
:1007B40088020020FEE7000070B500260C4D0D4CA9
:1007C400641BA410A64209D100F080F800260A4D4B
:1007D4000A4C641BA410A64205D170BD55F8043B15
:1007E40098470136EEE755F8043B98470136F2E79F
:1007F400E8080008E8080008E8080008F00800080D
:1008040070477047024B13B1024800F005B87047B7
:100814000000000029080008002301461A46184673
:1008240000F014B838B5074D074C641BA4101CB96C
:10083400BDE8384000F050B8013C55F824309847E2
:10084400F5E700BFF0080008F40800082DE9F047B8
:10085400DFF86CA00646DAF8000098460F46914689
:10086400FFF7CEFF174B1C680CB9174C1C6065686A
:10087400DAF800001F2D05DDFFF7C3FF4FF0FF304E
:10088400BDE8F0879EB1012204EB8501C1F8889090
:10089400D4F88831AA401343C4F88831022EC1F831
:1008A400088102BFD4F88C311343C4F88C316B1C1B
:1008B4000235636044F82570FFF7A3FF0020DFE7EB
:1008C40000000020F4000020F8000020F8B500BF6C
:1008D400F8BC08BC9E467047F8B500BFF8BC08BC1D
:0408E4009E46704775
:0808E8000908000809020008DC
:0408F000E501000816
:0408F400F0000020F0
:040000050800077177
:00000001FF
