:020000040800F2
:1000000000000120350700087D0700087D07000873
:100010007D0700087D0700087D070008000000003C
:100020000000000000000000000000007D07000844
:100030007D070008000000007D0700087D0700081C
:100040007D0700087D0700087D0700087D07000880
:100050007D0700087D0700087D0700087D07000870
:100060007D0700087D0700087D0700087D07000860
:100070007D0700087D0700087D0700087D07000850
:100080007D0700087D0700087D0700087D07000840
:100090007D0700087D0700087D0700087D07000830
:1000A0007D0700087D0700087D0700087D07000820
:1000B0007D0700087D0700087D0700087D07000810
:1000C0007D0700087D0700087D0700087D07000800
:1000D0007D070008490600087D0700087D07000825
:1000E0007D0700087D0700087D0700087D070008E0
:1000F0007D0700087D0700087D0700087D070008D0
:100100007D0700087D0700087D0700087D070008BF
:100110007D0700087D0700087D0700087D070008AF
:100120007D0700087D0700087D0700087D0700089F
:1001300000000000000000000000000000000000BF
:1001400000000000000000000000000000000000AF
:10015000000000000000000000000000000000009F
:10016000000000000000000000000000000000008F
:10017000000000000000000000000000000000007F
:10018000000000000000000000000000000000006F
:10019000000000000000000000000000000000005F
:1001A000000000000000000000000000000000004F
:1001B000000000000000000000000000000000003F
:1001C000000000000000000000000000000000002F
:1001D000000000000000000000000000000000001F
:0401E0005FF8E0F1F3
:1001E40010B5054C237833B9044B13B10448AFF36D
:1001F40000800123237010BD0800002000000000CF
:100204009408000808B5034B1BB103490348AFF336
:10021400008008BD000000000C00002094080008C5
:100224007047000070B582B0134B9A6942F008021F
:100234009A619A6942F040029A61104E0124019435
:100244000094002322462021304600F095F80C4DFE
:1002540001940094002322462021284600F08CF8C3
:1002640022462021304600F0E3F822462021284689
:1002740000F0DEF802B070BD00100240000C014036
:10028400001801404FF0E0231A6942F004021A6199
:10029400044A10601A6942F001021A616FF0704258
:1002A4005A6170472400002010B44FF0E0225469D2
:1002B4000B4B1B6800FB03FC9369002104E0E01A6C
:1002C40002441144614509D21A464FF0E0239B6968
:1002D4009A42FAD0F3D9D21A1144F3E710BC70470A
:1002E4002400002008B54FF47A7303FB00F0FFF7F5
:1002F400DBFF08BD194A136843F480331360174BBE
:100304001B6813F4003FFAD0144B4FF480525A6028
:1003140002385A6842EA80425A605A6842F480328B
:100324005A600F4A10211160116841F002011160F6
:100334001A6842F080721A60084B1B685B0EFBD08F
:10034400064A536843F002035360044B5B68C3F3EB
:100354008103022BF9D10120704700BF0010024035
:100364000020024021F4FF7121F001010143014BFF
:100374009960704700ED00E02DE9F041069E079D6D
:100384004FF0000C1DE006F003074FEA830E0EF059
:10039400040E4EEA070E4EEAC40EBCF1070F33D822
:1003A40007684FEA8C044FF00F0808FA04F827EAAC
:1003B4000807076007680EFA04F43C4304600CF174
:1003C400010CBCF10F0F31D84FF0010E0EFA0CFEE8
:1003D4003EEA0104F3D1541E012CD4D972B985B17B
:1003E400C46824EA0E04C460C46805F0010707FA6F
:1003F4000CF73C43C4604FF0080ECEE74FF0000EFC
:10040400CBE74FF0040EC8E74768ACF10804A4003A
:100414004FF00F0808FA04F827EA0807476047680E
:100424000EFA04FE47EA0E074760C8E7BDE8F0810C
:1004340012F0010F03D00369194301617047036986
:1004440043EA0143036170478368194201D00120E4
:10045400704700207047000010B5144B00241C6145
:10046400DC605C619C61DC611A6842F001021A6024
:1004740059680F4A0A405A601A6822F0847222F4BA
:1004840080321A601A6822F480221A605A6822F4B0
:10049400FE025A604FF41F029A60FFF72BFF2146B9
:1004A4004FF00060FFF75EFF10BD00BF0010024078
:1004B4000000FFF810B582B00B4A936943F00803BB
:1004C40093610A4C01220192009200234FF480713F
:1004D4002046FFF751FF00224FF480712046FFF7BA
:1004E400A7FF02B010BD00BF00100240000C014085
:1004F40030B583B01A4B9A6942F040029A619A6906
:1005040042F040029A619A6942F040029A619A6903
:1005140042F004029A61134D0124019400940023D3
:100524001A4610212846FFF727FF01940094002360
:100534001A4608212846FFF71FFF01940094002360
:100544001A4604212846FFF717FF0223019300945B
:1005540000231A4621460448FFF70EFF03B030BDBE
:1005640000100240001801400008014010B510B10D
:10057400314B01221A70304B1B78002B35D01021DF
:100584002E48FFF761FF20B108212C48FFF75CFFDC
:10059400F8B90A20FFF7A6FE274B00221A70102193
:1005A4002648FFF751FF48B3002408212348FFF7EA
:1005B4004BFF00B9022404212048FFF745FF00B98E
:1005C400032401211E48FFF73FFF012814D104240E
:1005D40012E004211948FFF737FF0028D9D0012180
:1005E4001748FFF731FF0128D3D010211348FFF734
:1005F4002BFF012804D00024204610BD0124D4E799
:1006040008210E48FFF720FF012801D00024F3E75A
:1006140004210A48FFF718FF012801D00024EBE762
:1006240001210748FFF710FF044618B9024B0122C5
:100634001A70E1E70024DFE7000000200018014001
:1006440000080140114B1B6813F0200F1CD00F4B06
:100654005A68D2B20A2A0FD010B40D490B88C3F3DA
:100664000D000C4C225401339BB20B80C72B01D9D3
:1006740000220A8010BC7047054A13886FEA43437E
:100684006FEA534313807047704700BF003801403E
:10069400280000202C00002008B50920FFF7DCFE0C
:1006A4004820FFF7EFFDFFF7BDFDFFF703FFFFF75E
:1006B4001FFF002220211C48FFF7BAFE20E01A4A3F
:1006C400D36883F48073D3601AE0174AD36883F045
:1006D4002003D36014E0154AD36883F02003D36069
:1006E4000EE0114AD36883F02003D36002F5406220
:1006F400D36883F02003D36002E00A20FFF7F2FD01
:100704000020FFF733FF0028F7D0431E032BF7D850
:1007140001A252F823F000BFE7060008DB06000838
:10072400CF060008C3060008000C01400018014071
:10073400FFF776FD0B480C490C4A002302E0D4581D
:10074400C4500433C4188C42F9D3094A094C002319
:1007540001E013600432A242FBD300F00FF8FFF76C
:100764009BFF70470000002008000020B808000824
:10077400080000208C020020FEE7000070B500266F
:100784000C4D0D4C641BA410A64209D100F080F856
:1007940000260A4D0A4C641BA410A64205D170BD64
:1007A40055F8043B98470136EEE755F8043B984763
:1007B4000136F2E7AC080008AC080008AC080008F1
:1007C400B408000870477047024B13B1024800F0A8
:1007D40005B8704700000000ED070008002301463B
:1007E4001A46184600F014B838B5074D074C641B78
:1007F400A4101CB9BDE8384000F050B8013C55F8CD
:1008040024309847F5E700BFB4080008B80800088A
:100814002DE9F047DFF86CA00646DAF800009846A8
:100824000F469146FFF7CEFF174B1C680CB9174CC7
:100834001C606568DAF800001F2D05DDFFF7C3FFB3
:100844004FF0FF30BDE8F0879EB1012204EB850133
:10085400C1F88890D4F88831AA401343C4F8883189
:10086400022EC1F8088102BFD4F88C311343C4F8B6
:100874008C316B1C0235636044F82570FFF7A3FFCD
:100884000020DFE704000020F8000020FC00002026
:10089400F8B500BFF8BC08BC9E467047F8B500BF69
:0808A400F8BC08BC9E46704739
:0808AC00CD0700080902000855
:0408B400E501000852
:0808B80001000000F400002023
:0400000508000735B3
:00000001FF
