:020000040800F2
:1000000000000120FD070008450800084508000819
:1000100045080008450800084508000800000000E1
:10002000000000000000000000000000450800087B
:1000300045080008000000004508000845080008C1
:10004000450800084508000845080008450800085C
:10005000450800084508000845080008450800084C
:10006000450800084508000845080008450800083C
:10007000450800084508000845080008450800082C
:10008000450800084508000845080008450800081C
:10009000450800084508000845080008450800080C
:1000A00045080008450800084508000845080008FC
:1000B00045080008450800084508000845080008EC
:1000C00045080008450800084508000845080008DC
:1000D00045080008C1040008450800084508000854
:1000E00045080008450800084508000845080008BC
:1000F00025060008450800084508000845080008CE
:10010000450800084508000845080008450800089B
:10011000450800084508000845080008450800088B
:10012000450800084508000845080008450800087B
:1001300000000000000000000000000000000000BF
:1001400000000000000000000000000000000000AF
:10015000000000000000000000000000000000009F
:10016000000000000000000000000000000000008F
:10017000000000000000000000000000000000007F
:10018000000000000000000000000000000000006F
:10019000000000000000000000000000000000005F
:1001A000000000000000000000000000000000004F
:1001B000000000000000000000000000000000003F
:1001C000000000000000000000000000000000002F
:1001D000000000000000000000000000000000001F
:0401E0005FF8E0F1F3
:1001E40010B5054C237833B9044B13B10448AFF36D
:1001F40000800123237010BD0400002000000000D3
:100204005C09000808B5034B1BB103490348AFF36D
:10021400008008BD00000000080000205C09000800
:10022400704700004FF0E0231A6942F004021A619B
:10023400044A10601A6942F001021A616FF07042B8
:100244005A6170472000002010B44FF0E022546936
:100254000B4B1B6800FB03FC9369002104E0E01ACC
:1002640002441144614509D21A464FF0E0239B69C8
:100274009A42FAD0F3D9D21A1144F3E710BC70476A
:100284002000002008B54FF47A7303FB00F0FFF759
:10029400DBFF08BDC3431B0203F4E0630649CA68DD
:1002A40022F4E0621204120C42F0BF6242F4003203
:1002B4001343CB60704700BF00ED00E0194A136898
:1002C40043F480331360174B1B6813F4003FFAD0D8
:1002D400144B4FF480525A6002385A6842EA804202
:1002E4005A605A6842F480325A600F4A10211160F1
:1002F400116841F0020111601A6842F080721A60BC
:10030400084B1B685B0EFBD0064A536843F002039C
:100314005360044B5B68C3F38103022BF9D10120C2
:10032400704700BF001002400020024021F4FF711A
:1003340021F001010143014B9960704700ED00E099
:10034400F8B507460C4616461D461846FFF7A2FFA9
:10035400C5F1040307FA03F10F232B4104EA030553
:1003640070090A4C54F8203006F01F070122BA40E5
:10037400134344F82030344494F80033294301F003
:100384000F0143EA011384F80033F8BD00E100E0F3
:100394002DE9F041069E079D4FF0000C1DE006F08C
:1003A40003074FEA830E0EF0040E4EEA070E4EEAE0
:1003B400C40EBCF1070F33D807684FEA8C044FF022
:1003C4000F0808FA04F827EA0807076007680EFA16
:1003D40004F43C4304600CF1010CBCF10F0F31D860
:1003E4004FF0010E0EFA0CFE3EEA0104F3D1541E46
:1003F400012CD4D972B985B1C46824EA0E04C4604E
:10040400C46805F0010707FA0CF73C43C4604FF0D9
:10041400080ECEE74FF0000ECBE74FF0040EC8E70E
:100424004768ACF10804A4004FF00F0808FA04F878
:1004340027EA0807476047680EFA04FE47EA0E07F2
:100444004760C8E7BDE8F08112F0010F03D00369EB
:10045400194301617047036943EA0143036170472B
:1004640010B5144B00241C61DC605C619C61DC6190
:100474001A6842F001021A6059680F4A0A405A6029
:100484001A6822F0847222F480321A601A6822F404
:1004940080221A605A6822F4FE025A604FF41F0246
:1004A4009A60FFF70BFF21464FF00060FFF73EFF15
:1004B40010BD00BF001002400000FFF8114B1B6884
:1004C40013F0200F1CD00F4B5A68D2B20A2A0FD057
:1004D40010B40D490B88C3F30D000C4C22540133A6
:1004E4009BB20B80C72B01D900220A8010BC704735
:1004F400054A13886FEA43436FEA534313807047F6
:10050400704700BF0038014024000020280000206C
:100514002DE9F04182B006460C46254B9A6942F01B
:1005240004029A619A6942F004029A619A6942F457
:1005340080429A611F4F4FF00108CDF804800325D3
:100544000095002302224FF400713846FFF720FF84
:10055400CDF80480009500231A464FF48061384694
:10056400FFF716FF24FA08F3134800FB0630B0FB2C
:10057400F4F0124CA0600023E360E368E360E368F6
:1005840043F00803E360E36843F00403E360E368D3
:1005940043F02003E3600223252229462846FFF77F
:1005A400CFFEE36843F40053E36002B0BDE8F0819A
:1005B400001002400008014040420F000038014092
:1005C40070B582B0134B9A6942F008029A619A6935
:1005D40042F040029A61104E0124019400940023D9
:1005E400224620213046FFF7D3FE0C4D019400949F
:1005F4000023224620212846FFF7CAFE2246202156
:100604003046FFF721FF224620212846FFF71CFF32
:1006140002B070BD00100240000C014000180140FF
:10062400174B1B6913F0010F15D0164B1B68B3F55C
:10063400807F16D9A3F58073124A13604FF4807338
:10064400013B0F4A1363536943F001035361136879
:1006540043F0010313600A4A136923F00103136191
:10066400704713F0FF0F05D0064A0021116013F004
:10067400FF03E5D1024A136823F001031360EAE79C
:1006840000340140F00000202DE9F04182B08046A2
:100694000F463D4B9A6942F010029A619A6942F002
:1006A40010029A619A6942F010029A619A6942F0C2
:1006B40010029A619A6942F400529A61334C0126FD
:1006C4000196032500950023022240212046FFF7CE
:1006D4005FFE019600950023022280212046FFF749
:1006E40057FE01960095002302224FF480712046A4
:1006F400FFF74EFE01960095002302224FF400718D
:100704002046FFF745FE224BC3F82C809F625A6CAB
:1007140042F400425A649A6942F030029A619A693A
:1007240042F008029A619A6942F440529A619A69C5
:1007340042F400629A61DA6942F03002DA61DA69FD
:1007440042F00802DA61DA6942F44052DA61DA69A5
:1007540042F40062DA611A6A32431A621A6A42F097
:1007640010021A621A6A42F480721A621A6A42F415
:1007740080521A621A6842F080021A601A68324380
:100784001A6002B0BDE8F081001002400010014080
:100794000034014010B50920FFF762FE4820FFF73E
:1007A40041FD4FF4E1314820FFF7B2FEFFF708FFA7
:1007B400472140F2E730FFF767FF0D4BF9225A63F8
:1007C40040F2F3129A6340F2ED22DA6340F2E73228
:1007D4001A6400240A20FFF755FD0134E4B2132CF7
:1007E400F8D9044AD36883F02003D360F1E700BF4B
:1007F40000340140000C0140FFF712FD0B480C4986
:100804000C4A002302E0D458C4500433C4188C4268
:10081400F9D3094A094C002301E013600432A242CF
:10082400FBD300F00FF8FFF7B5FF7047000000207E
:100834000400002080090008040000208C0200202D
:10084400FEE7000070B500260C4D0D4C641BA4108F
:10085400A64209D100F080F800260A4D0A4C641B18
:10086400A410A64205D170BD55F8043B9847013643
:10087400EEE755F8043B98470136F2E7740900089F
:1008840074090008740900087C090008704770475F
:10089400024B13B1024800F005B870470000000095
:1008A400B5080008002301461A46184600F014B89B
:1008B40038B5074D074C641BA4101CB9BDE838407B
:1008C40000F050B8013C55F824309847F5E700BFD4
:1008D4007C090008800900082DE9F047DFF86CA0C6
:1008E4000646DAF8000098460F469146FFF7CEFF19
:1008F400174B1C680CB9174C1C606568DAF80000CB
:100904001F2D05DDFFF7C3FF4FF0FF30BDE8F08773
:100914009EB1012204EB8501C1F88890D4F8883196
:10092400AA401343C4F88831022EC1F8088102BFDB
:10093400D4F88C311343C4F88C316B1C02356360DA
:1009440044F82570FFF7A3FF0020DFE70000002034
:10095400F8000020FC000020F8B500BFF8BC08BC7B
:100964009E467047F8B500BFF8BC08BC9E46704769
:080974009508000809020008C3
:04097C00E501000889
:04098000F40000205F
:04000005080007FDEB
:00000001FF
