:020000040800F2
:100000000000012039080008810800088108000864
:10001000810800088108000881080008000000002D
:10002000000000000000000000000000810800083F
:10003000810800080000000081080008810800080D
:10004000810800088108000881080008810800086C
:10005000810800088108000881080008810800085C
:10006000810800088108000881080008810800084C
:10007000810800088108000881080008810800083C
:10008000810800088108000881080008810800082C
:10009000810800088108000881080008810800081C
:1000A000810800088108000881080008810800080C
:1000B00081080008810800088108000881080008FC
:1000C00081080008810800088108000881080008EC
:1000D000810800082902000881080008810800083A
:1000E00081080008810800088108000881080008CC
:1000F00069060008810800088108000881080008D6
:1001000081080008810800088108000881080008AB
:10011000810800088108000881080008810800089B
:10012000810800088108000881080008810800088B
:1001300000000000000000000000000000000000BF
:1001400000000000000000000000000000000000AF
:10015000000000000000000000000000000000009F
:10016000000000000000000000000000000000008F
:10017000000000000000000000000000000000007F
:10018000000000000000000000000000000000006F
:10019000000000000000000000000000000000005F
:1001A000000000000000000000000000000000004F
:1001B000000000000000000000000000000000003F
:1001C000000000000000000000000000000000002F
:1001D000000000000000000000000000000000001F
:0401E0005FF8E0F1F3
:1001E40010B5054C237833B9044B13B10448AFF36D
:1001F40000800123237010BD0400002000000000D3
:100204009809000808B5034B1BB103490348AFF331
:10021400008008BD000000000800002098090008C4
:1002240070470000114B1B6813F0200F1CD00F4BBC
:100234005A68D2B20A2A0FD010B40D490B88C3F3FE
:100244000D000C4C225401339BB20B80C72B01D9F7
:1002540000220A8010BC7047054A13886FEA4343A2
:100264006FEA534313807047704700BF0038014062
:1002740020000020240000202DE9F04182B0064631
:100284000C46254B9A6942F004029A619A6942F03D
:1002940004029A619A6942F480429A611F4F4FF0B6
:1002A4000108CDF8048003250095002302224FF4B1
:1002B4000071384600F010F9CDF804800095002351
:1002C4001A464FF48061384600F006F924FA08F320
:1002D400134800FB0630B0FBF4F0124CA06000237E
:1002E400E360E368E360E36843F00803E360E36822
:1002F40043F00403E360E36843F02003E360022374
:1003040025222946284600F09DF8E36843F400536B
:10031400E36002B0BDE8F081001002400008014033
:1003240040420F00003801404FF0E0231A6942F0C8
:1003340004021A61044A10601A6942F001021A6147
:100344006FF070425A617047EC00002010B44FF017
:10035400E02254690B4B1B6800FB03FC93690021EA
:1003640004E0E01A02441144614509D21A464FF0F0
:10037400E0239B699A42FAD0F3D9D21A1144F3E7E5
:1003840010BC7047EC00002008B54FF47A7303FBEF
:1003940000F0FFF7DBFF08BDC3431B0203F4E06377
:1003A4000649CA6822F4E0621204120C42F0BF62E9
:1003B40042F400321343CB60704700BF00ED00E00D
:1003C400194A136843F480331360174B1B6813F402
:1003D400003FFAD0144B4FF480525A6002385A68E6
:1003E40042EA80425A605A6842F480325A600F4AA4
:1003F40010211160116841F0020111601A6842F085
:1004040080721A60084B1B685B0EFBD0064A536867
:1004140043F002035360044B5B68C3F38103022B74
:10042400F9D10120704700BF0010024000200240B3
:1004340021F4FF7121F001010143014B99607047E0
:1004440000ED00E0F8B507460C4616461D46184672
:10045400FFF7A2FFC5F1040307FA03F10F232B41B1
:1004640004EA030570090A4C54F8203006F01F070B
:100474000122BA40134344F82030344494F8003342
:10048400294301F00F0143EA011384F80033F8BD56
:1004940000E100E010B40E4CA36943F00103A36132
:1004A40000239C4605E04FEA4C0C0CF1010C01338F
:1004B400DBB28B42F7D3074B59680CFA00FC21EAF4
:1004C4000C015960596882400A435A6010BC704755
:1004D40000100240000001402DE9F041069E079DF6
:1004E4004FF0000C1DE006F003074FEA830E0EF0F8
:1004F400040E4EEA070E4EEAC40EBCF1070F33D8C1
:1005040007684FEA8C044FF00F0808FA04F827EA4A
:100514000807076007680EFA04F43C4304600CF112
:10052400010CBCF10F0F31D84FF0010E0EFA0CFE86
:100534003EEA0104F3D1541E012CD4D972B985B119
:10054400C46824EA0E04C460C46805F0010707FA0D
:100554000CF73C43C4604FF0080ECEE74FF0000E9A
:10056400CBE74FF0040EC8E74768ACF10804A400D9
:100574004FF00F0808FA04F827EA080747604768AD
:100584000EFA04FE47EA0E074760C8E7BDE8F081AB
:1005940012F0010F03D00369194301617047036925
:1005A40043EA01430361704710B5144B00241C61F6
:1005B400DC605C619C61DC611A6842F001021A60D3
:1005C40059680F4A0A405A601A6822F0847222F469
:1005D40080321A601A6822F480221A605A6822F45F
:1005E400FE025A604FF41F029A60FFF7E9FE2146AB
:1005F4004FF00060FFF71CFF10BD00BF0010024069
:100604000000FFF870B582B0134B9A6942F00802FB
:100614009A619A6942F040029A61104E0124019451
:1006240000940023224620213046FFF755FF0C4D4D
:10063400019400940023224620212846FFF74CFF12
:10064400224620213046FFF7A3FF224620212846D8
:10065400FFF79EFF02B070BD00100240000C014085
:1006640000180140174B1B6913F0010F15D0164BEE
:100674001B68B3F5807F16D9A3F58073124A136003
:100684004FF48073013B0F4A1363536943F0010332
:100694005361136843F0010313600A4A136923F09A
:1006A40001031361704713F0FF0F05D0064A0021C0
:1006B400116013F0FF03E5D1024A136823F001032C
:1006C4001360EAE700340140F00000202DE9F04116
:1006D40082B006460D46384B9A6942F040029A6150
:1006E4009A6942F040029A619A6942F040029A6122
:1006F4009A6942F400629A61304F4FF00108CDF8D4
:10070400048003240094002302224FF4007138462D
:10071400FFF7E2FECDF804800094002302224FF498
:1007240080713846FFF7D8FECDF80480009400238A
:1007340002224FF400413846FFF7CEFE2246022142
:100744000620FFF7A7FE1E4BDE629D629A6942F007
:1007540060029A619A6942F008029A611A6A42EA4E
:1007640008021A621A6A42F002021A621A6A42F013
:1007740004021A621A6A42F008021A625A6C42F4BB
:1007840000525A6400BF00BF00BF5A6C42F480524A
:100794005A641A6842F080021A601A6842F40072BD
:1007A4001A601A6842EA08021A605A6C42F48042DB
:1007B4005A6402B0BDE8F081001002400018014004
:1007C400002C0140064B5A6C22F0FF025A645A6C0A
:1007D4000A435A645A6C42F400425A64586370479C
:1007E400002C014010B50920FFF7DEFE4820FFF77A
:1007F4009BFD4FF4E1314820FFF73EFDFFF702FF78
:10080400472140F2E730FFF761FF64214FF496700F
:10081400FFF7D8FF00240A20FFF7B6FD0134E4B245
:10082400132CF8D9024AD36883F02003D360F1E78C
:10083400000C0140FFF7F4FC0B480C490C4A002360
:1008440002E0D458C4500433C4188C42F9D3094A82
:10085400094C002301E013600432A242FBD300F0F0
:100864000FF8FFF7BFFF70470000002004000020CE
:10087400BC090008040000208C020020FEE70000F0
:1008840070B500260C4D0D4C641BA410A64209D172
:1008940000F080F800260A4D0A4C641BA410A642FE
:1008A40005D170BD55F8043B98470136EEE755F87D
:1008B400043B98470136F2E7B0090008B009000884
:1008C400B0090008B809000870477047024B13B11B
:1008D400024800F005B8704700000000F108000865
:1008E400002301461A46184600F014B838B5074DDF
:1008F400074C641BA4101CB9BDE8384000F050B884
:10090400013C55F824309847F5E700BFB8090008C2
:10091400BC0900082DE9F047DFF86CA00646DAF8B8
:10092400000098460F469146FFF7CEFF174B1C6810
:100934000CB9174C1C606568DAF800001F2D05DD42
:10094400FFF7C3FF4FF0FF30BDE8F0879EB10122EF
:1009540004EB8501C1F88890D4F88831AA40134388
:10096400C4F88831022EC1F8088102BFD4F88C3152
:100974001343C4F88C316B1C0235636044F8257052
:10098400FFF7A3FF0020DFE700000020F8000020AD
:10099400FC000020F8B500BFF8BC08BC9E467047B8
:0C09A400F8B500BFF8BC08BC9E467047C8
:0809B000D1080008090200084B
:0409B800E50100084D
:0409BC00F400002023
:0400000508000839AE
:00000001FF
